{
  "contractName": "CarbonFootprint",
  "abi": [
    {
      "inputs": [
        {
          "internalType": "string",
          "name": "_name",
          "type": "string"
        },
        {
          "internalType": "string",
          "name": "_symbol",
          "type": "string"
        }
      ],
      "stateMutability": "nonpayable",
      "type": "constructor"
    },
    {
      "anonymous": false,
      "inputs": [
        {
          "indexed": true,
          "internalType": "address",
          "name": "owner",
          "type": "address"
        },
        {
          "indexed": true,
          "internalType": "address",
          "name": "approved",
          "type": "address"
        },
        {
          "indexed": true,
          "internalType": "uint256",
          "name": "tokenId",
          "type": "uint256"
        }
      ],
      "name": "Approval",
      "type": "event"
    },
    {
      "anonymous": false,
      "inputs": [
        {
          "indexed": true,
          "internalType": "address",
          "name": "owner",
          "type": "address"
        },
        {
          "indexed": true,
          "internalType": "address",
          "name": "operator",
          "type": "address"
        },
        {
          "indexed": false,
          "internalType": "bool",
          "name": "approved",
          "type": "bool"
        }
      ],
      "name": "ApprovalForAll",
      "type": "event"
    },
    {
      "anonymous": false,
      "inputs": [
        {
          "indexed": true,
          "internalType": "address",
          "name": "previousOwner",
          "type": "address"
        },
        {
          "indexed": true,
          "internalType": "address",
          "name": "newOwner",
          "type": "address"
        }
      ],
      "name": "OwnershipTransferred",
      "type": "event"
    },
    {
      "anonymous": false,
      "inputs": [
        {
          "indexed": true,
          "internalType": "address",
          "name": "from",
          "type": "address"
        },
        {
          "indexed": true,
          "internalType": "address",
          "name": "to",
          "type": "address"
        },
        {
          "indexed": true,
          "internalType": "uint256",
          "name": "tokenId",
          "type": "uint256"
        }
      ],
      "name": "Transfer",
      "type": "event"
    },
    {
      "inputs": [
        {
          "internalType": "address",
          "name": "to",
          "type": "address"
        },
        {
          "internalType": "uint256",
          "name": "tokenId",
          "type": "uint256"
        }
      ],
      "name": "approve",
      "outputs": [],
      "stateMutability": "nonpayable",
      "type": "function"
    },
    {
      "inputs": [
        {
          "internalType": "address",
          "name": "owner",
          "type": "address"
        }
      ],
      "name": "balanceOf",
      "outputs": [
        {
          "internalType": "uint256",
          "name": "",
          "type": "uint256"
        }
      ],
      "stateMutability": "view",
      "type": "function",
      "constant": true
    },
    {
      "inputs": [
        {
          "internalType": "uint256",
          "name": "tokenId",
          "type": "uint256"
        }
      ],
      "name": "getApproved",
      "outputs": [
        {
          "internalType": "address",
          "name": "",
          "type": "address"
        }
      ],
      "stateMutability": "view",
      "type": "function",
      "constant": true
    },
    {
      "inputs": [
        {
          "internalType": "address",
          "name": "owner",
          "type": "address"
        },
        {
          "internalType": "address",
          "name": "operator",
          "type": "address"
        }
      ],
      "name": "isApprovedForAll",
      "outputs": [
        {
          "internalType": "bool",
          "name": "",
          "type": "bool"
        }
      ],
      "stateMutability": "view",
      "type": "function",
      "constant": true
    },
    {
      "inputs": [],
      "name": "name",
      "outputs": [
        {
          "internalType": "string",
          "name": "",
          "type": "string"
        }
      ],
      "stateMutability": "view",
      "type": "function",
      "constant": true
    },
    {
      "inputs": [],
      "name": "owner",
      "outputs": [
        {
          "internalType": "address",
          "name": "",
          "type": "address"
        }
      ],
      "stateMutability": "view",
      "type": "function",
      "constant": true
    },
    {
      "inputs": [
        {
          "internalType": "uint256",
          "name": "tokenId",
          "type": "uint256"
        }
      ],
      "name": "ownerOf",
      "outputs": [
        {
          "internalType": "address",
          "name": "",
          "type": "address"
        }
      ],
      "stateMutability": "view",
      "type": "function",
      "constant": true
    },
    {
      "inputs": [],
      "name": "renounceOwnership",
      "outputs": [],
      "stateMutability": "nonpayable",
      "type": "function"
    },
    {
      "inputs": [
        {
          "internalType": "address",
          "name": "from",
          "type": "address"
        },
        {
          "internalType": "address",
          "name": "to",
          "type": "address"
        },
        {
          "internalType": "uint256",
          "name": "tokenId",
          "type": "uint256"
        }
      ],
      "name": "safeTransferFrom",
      "outputs": [],
      "stateMutability": "nonpayable",
      "type": "function"
    },
    {
      "inputs": [
        {
          "internalType": "address",
          "name": "from",
          "type": "address"
        },
        {
          "internalType": "address",
          "name": "to",
          "type": "address"
        },
        {
          "internalType": "uint256",
          "name": "tokenId",
          "type": "uint256"
        },
        {
          "internalType": "bytes",
          "name": "_data",
          "type": "bytes"
        }
      ],
      "name": "safeTransferFrom",
      "outputs": [],
      "stateMutability": "nonpayable",
      "type": "function"
    },
    {
      "inputs": [
        {
          "internalType": "address",
          "name": "operator",
          "type": "address"
        },
        {
          "internalType": "bool",
          "name": "approved",
          "type": "bool"
        }
      ],
      "name": "setApprovalForAll",
      "outputs": [],
      "stateMutability": "nonpayable",
      "type": "function"
    },
    {
      "inputs": [
        {
          "internalType": "bytes4",
          "name": "interfaceId",
          "type": "bytes4"
        }
      ],
      "name": "supportsInterface",
      "outputs": [
        {
          "internalType": "bool",
          "name": "",
          "type": "bool"
        }
      ],
      "stateMutability": "view",
      "type": "function",
      "constant": true
    },
    {
      "inputs": [],
      "name": "symbol",
      "outputs": [
        {
          "internalType": "string",
          "name": "",
          "type": "string"
        }
      ],
      "stateMutability": "view",
      "type": "function",
      "constant": true
    },
    {
      "inputs": [
        {
          "internalType": "uint256",
          "name": "index",
          "type": "uint256"
        }
      ],
      "name": "tokenByIndex",
      "outputs": [
        {
          "internalType": "uint256",
          "name": "",
          "type": "uint256"
        }
      ],
      "stateMutability": "view",
      "type": "function",
      "constant": true
    },
    {
      "inputs": [
        {
          "internalType": "address",
          "name": "owner",
          "type": "address"
        },
        {
          "internalType": "uint256",
          "name": "index",
          "type": "uint256"
        }
      ],
      "name": "tokenOfOwnerByIndex",
      "outputs": [
        {
          "internalType": "uint256",
          "name": "",
          "type": "uint256"
        }
      ],
      "stateMutability": "view",
      "type": "function",
      "constant": true
    },
    {
      "inputs": [
        {
          "internalType": "uint256",
          "name": "tokenId",
          "type": "uint256"
        }
      ],
      "name": "tokenURI",
      "outputs": [
        {
          "internalType": "string",
          "name": "",
          "type": "string"
        }
      ],
      "stateMutability": "view",
      "type": "function",
      "constant": true
    },
    {
      "inputs": [],
      "name": "totalSupply",
      "outputs": [
        {
          "internalType": "uint256",
          "name": "",
          "type": "uint256"
        }
      ],
      "stateMutability": "view",
      "type": "function",
      "constant": true
    },
    {
      "inputs": [
        {
          "internalType": "address",
          "name": "from",
          "type": "address"
        },
        {
          "internalType": "address",
          "name": "to",
          "type": "address"
        },
        {
          "internalType": "uint256",
          "name": "tokenId",
          "type": "uint256"
        }
      ],
      "name": "transferFrom",
      "outputs": [],
      "stateMutability": "nonpayable",
      "type": "function"
    },
    {
      "inputs": [
        {
          "internalType": "address",
          "name": "newOwner",
          "type": "address"
        }
      ],
      "name": "transferOwnership",
      "outputs": [],
      "stateMutability": "nonpayable",
      "type": "function"
    },
    {
      "inputs": [
        {
          "internalType": "address",
          "name": "_to",
          "type": "address"
        },
        {
          "internalType": "string",
          "name": "_lotto",
          "type": "string"
        },
        {
          "internalType": "uint256",
          "name": "_footprint",
          "type": "uint256"
        },
        {
          "internalType": "string",
          "name": "_nome",
          "type": "string"
        }
      ],
      "name": "mint",
      "outputs": [],
      "stateMutability": "nonpayable",
      "type": "function"
    },
    {
      "inputs": [
        {
          "internalType": "address",
          "name": "_owner",
          "type": "address"
        }
      ],
      "name": "walletOfOwner",
      "outputs": [
        {
          "internalType": "uint256[]",
          "name": "",
          "type": "uint256[]"
        }
      ],
      "stateMutability": "view",
      "type": "function",
      "constant": true
    },
    {
      "inputs": [
        {
          "internalType": "address payable",
          "name": "_fornitore",
          "type": "address"
        },
        {
          "internalType": "address payable",
          "name": "_produttore",
          "type": "address"
        },
        {
          "internalType": "string[]",
          "name": "lotti",
          "type": "string[]"
        }
      ],
      "name": "compraNft",
      "outputs": [],
      "stateMutability": "nonpayable",
      "type": "function"
    },
    {
      "inputs": [
        {
          "internalType": "address",
          "name": "_account",
          "type": "address"
        },
        {
          "internalType": "string",
          "name": "lotto",
          "type": "string"
        }
      ],
      "name": "isOwner",
      "outputs": [
        {
          "internalType": "bool",
          "name": "",
          "type": "bool"
        }
      ],
      "stateMutability": "view",
      "type": "function",
      "constant": true
    },
    {
      "inputs": [
        {
          "internalType": "uint256",
          "name": "_tokenId",
          "type": "uint256"
        }
      ],
      "name": "buildMetadata",
      "outputs": [
        {
          "internalType": "string",
          "name": "",
          "type": "string"
        }
      ],
      "stateMutability": "view",
      "type": "function",
      "constant": true
    },
    {
      "inputs": [
        {
          "internalType": "string",
          "name": "_lotto",
          "type": "string"
        }
      ],
      "name": "existsLotto",
      "outputs": [
        {
          "internalType": "bool",
          "name": "",
          "type": "bool"
        }
      ],
      "stateMutability": "view",
      "type": "function",
      "constant": true
    },
    {
      "inputs": [
        {
          "internalType": "string",
          "name": "lotto",
          "type": "string"
        }
      ],
      "name": "searchMateriaPrimaByLotto",
      "outputs": [
        {
          "internalType": "string",
          "name": "",
          "type": "string"
        }
      ],
      "stateMutability": "view",
      "type": "function",
      "constant": true
    },
    {
      "inputs": [
        {
          "internalType": "string",
          "name": "lotto",
          "type": "string"
        }
      ],
      "name": "searchProdottoByLotto",
      "outputs": [
        {
          "internalType": "string",
          "name": "",
          "type": "string"
        }
      ],
      "stateMutability": "view",
      "type": "function",
      "constant": true
    },
    {
      "inputs": [
        {
          "internalType": "string",
          "name": "lotto",
          "type": "string"
        }
      ],
      "name": "getFootPrintByLotto",
      "outputs": [
        {
          "internalType": "uint256",
          "name": "",
          "type": "uint256"
        }
      ],
      "stateMutability": "view",
      "type": "function",
      "constant": true
    }
  ],
  "bytecode": "0x60806040523480156200001157600080fd5b5060405162004e7c38038062004e7c8339818101604052810190620000379190620003b0565b818181600090805190602001906200005192919062000163565b5080600190805190602001906200006a92919062000163565b5050506200008d620000816200009560201b60201c565b6200009d60201b60201c565b50506200049a565b600033905090565b6000600a60009054906101000a900473ffffffffffffffffffffffffffffffffffffffff16905081600a60006101000a81548173ffffffffffffffffffffffffffffffffffffffff021916908373ffffffffffffffffffffffffffffffffffffffff1602179055508173ffffffffffffffffffffffffffffffffffffffff168173ffffffffffffffffffffffffffffffffffffffff167f8be0079c531659141344cd1fd0a4f28419497f9722a3daafe3b4186f6b6457e060405160405180910390a35050565b828054620001719062000464565b90600052602060002090601f016020900481019282620001955760008555620001e1565b82601f10620001b057805160ff1916838001178555620001e1565b82800160010185558215620001e1579182015b82811115620001e0578251825591602001919060010190620001c3565b5b509050620001f09190620001f4565b5090565b5b808211156200020f576000816000905550600101620001f5565b5090565b6000604051905090565b600080fd5b600080fd5b600080fd5b600080fd5b6000601f19601f8301169050919050565b7f4e487b7100000000000000000000000000000000000000000000000000000000600052604160045260246000fd5b6200027c8262000231565b810181811067ffffffffffffffff821117156200029e576200029d62000242565b5b80604052505050565b6000620002b362000213565b9050620002c1828262000271565b919050565b600067ffffffffffffffff821115620002e457620002e362000242565b5b620002ef8262000231565b9050602081019050919050565b60005b838110156200031c578082015181840152602081019050620002ff565b838111156200032c576000848401525b50505050565b6000620003496200034384620002c6565b620002a7565b9050828152602081018484840111156200036857620003676200022c565b5b62000375848285620002fc565b509392505050565b600082601f83011262000395576200039462000227565b5b8151620003a784826020860162000332565b91505092915050565b60008060408385031215620003ca57620003c96200021d565b5b600083015167ffffffffffffffff811115620003eb57620003ea62000222565b5b620003f9858286016200037d565b925050602083015167ffffffffffffffff8111156200041d576200041c62000222565b5b6200042b858286016200037d565b9150509250929050565b7f4e487b7100000000000000000000000000000000000000000000000000000000600052602260045260246000fd5b600060028204905060018216806200047d57607f821691505b6020821081141562000494576200049362000435565b5b50919050565b6149d280620004aa6000396000f3fe608060405234801561001057600080fd5b50600436106101c45760003560e01c8063715018a6116100f9578063c87b56dd11610097578063e985e9c511610071578063e985e9c51461054f578063eb256cef1461057f578063edf87704146105af578063f2fde38b146105df576101c4565b8063c87b56dd146104bf578063cd379964146104ef578063dc8618521461051f576101c4565b8063a22cb465116100d3578063a22cb46514610427578063b695956e14610443578063b88d4fde14610473578063bcd5a3751461048f576101c4565b8063715018a6146103e15780638da5cb5b146103eb57806395d89b4114610409576101c4565b80633dd90430116101665780634aa5f96b116101405780634aa5f96b146103355780634f6ccce7146103515780636352211e1461038157806370a08231146103b1576101c4565b80633dd90430146102cd57806342842e0e146102e9578063438b630014610305576101c4565b8063095ea7b3116101a2578063095ea7b31461024757806318160ddd1461026357806323b872dd146102815780632f745c591461029d576101c4565b806301ffc9a7146101c957806306fdde03146101f9578063081812fc14610217575b600080fd5b6101e360048036038101906101de9190612ee0565b6105fb565b6040516101f09190612f28565b60405180910390f35b610201610675565b60405161020e9190612fdc565b60405180910390f35b610231600480360381019061022c9190613034565b610707565b60405161023e91906130a2565b60405180910390f35b610261600480360381019061025c91906130e9565b61078c565b005b61026b6108a4565b6040516102789190613138565b60405180910390f35b61029b60048036038101906102969190613153565b6108b1565b005b6102b760048036038101906102b291906130e9565b610911565b6040516102c49190613138565b60405180910390f35b6102e760048036038101906102e291906132db565b6109b6565b005b61030360048036038101906102fe9190613153565b610bb8565b005b61031f600480360381019061031a919061337a565b610bd8565b60405161032c9190613465565b60405180910390f35b61034f600480360381019061034a91906135ab565b610c86565b005b61036b60048036038101906103669190613034565b610d23565b6040516103789190613138565b60405180910390f35b61039b60048036038101906103969190613034565b610d94565b6040516103a891906130a2565b60405180910390f35b6103cb60048036038101906103c6919061337a565b610e46565b6040516103d89190613138565b60405180910390f35b6103e9610efe565b005b6103f3610f86565b60405161040091906130a2565b60405180910390f35b610411610fb0565b60405161041e9190612fdc565b60405180910390f35b610441600480360381019061043c9190613646565b611042565b005b61045d60048036038101906104589190613686565b611058565b60405161046a9190612fdc565b60405180910390f35b61048d60048036038101906104889190613770565b6111f3565b005b6104a960048036038101906104a49190613686565b611255565b6040516104b69190612fdc565b60405180910390f35b6104d960048036038101906104d49190613034565b6113f0565b6040516104e69190612fdc565b60405180910390f35b610509600480360381019061050491906137f3565b611497565b6040516105169190612f28565b60405180910390f35b61053960048036038101906105349190613686565b6114cc565b6040516105469190612f28565b60405180910390f35b6105696004803603810190610564919061384f565b611501565b6040516105769190612f28565b60405180910390f35b61059960048036038101906105949190613686565b611595565b6040516105a69190613138565b60405180910390f35b6105c960048036038101906105c49190613034565b6115c0565b6040516105d69190612fdc565b60405180910390f35b6105f960048036038101906105f4919061337a565b611783565b005b60007f780e9d63000000000000000000000000000000000000000000000000000000007bffffffffffffffffffffffffffffffffffffffffffffffffffffffff1916827bffffffffffffffffffffffffffffffffffffffffffffffffffffffff1916148061066e575061066d8261187b565b5b9050919050565b606060008054610684906138be565b80601f01602080910402602001604051908101604052809291908181526020018280546106b0906138be565b80156106fd5780601f106106d2576101008083540402835291602001916106fd565b820191906000526020600020905b8154815290600101906020018083116106e057829003601f168201915b5050505050905090565b60006107128261195d565b610751576040517f08c379a000000000000000000000000000000000000000000000000000000000815260040161074890613962565b60405180910390fd5b6004600083815260200190815260200160002060009054906101000a900473ffffffffffffffffffffffffffffffffffffffff169050919050565b600061079782610d94565b90508073ffffffffffffffffffffffffffffffffffffffff168373ffffffffffffffffffffffffffffffffffffffff161415610808576040517f08c379a00000000000000000000000000000000000000000000000000000000081526004016107ff906139f4565b60405180910390fd5b8073ffffffffffffffffffffffffffffffffffffffff166108276119c9565b73ffffffffffffffffffffffffffffffffffffffff1614806108565750610855816108506119c9565b611501565b5b610895576040517f08c379a000000000000000000000000000000000000000000000000000000000815260040161088c90613a86565b60405180910390fd5b61089f83836119d1565b505050565b6000600880549050905090565b6108c26108bc6119c9565b82611a8a565b610901576040517f08c379a00000000000000000000000000000000000000000000000000000000081526004016108f890613b18565b60405180910390fd5b61090c838383611b68565b505050565b600061091c83610e46565b821061095d576040517f08c379a000000000000000000000000000000000000000000000000000000000815260040161095490613baa565b60405180910390fd5b600660008473ffffffffffffffffffffffffffffffffffffffff1673ffffffffffffffffffffffffffffffffffffffff168152602001908152602001600020600083815260200190815260200160002054905092915050565b60006109c06108a4565b90506109d8856001836109d39190613bf9565b611dc4565b60405180608001604052806001836109f09190613bf9565b815260200185815260200183815260200184815250600d6000838152602001908152602001600020600082015181600001556020820151816001019080519060200190610a3e929190612d44565b506040820151816002019080519060200190610a5b929190612d44565b5060608201518160030155905050600d6000828152602001908152602001600020600c6000600184610a8d9190613bf9565b8152602001908152602001600020600082015481600001556001820181600101908054610ab9906138be565b610ac4929190612dca565b506002820181600201908054610ad9906138be565b610ae4929190612dca565b5060038201548160030155905050600d6000828152602001908152602001600020600b85604051610b159190613c8b565b9081526020016040518091039020600082015481600001556001820181600101908054610b41906138be565b610b4c929190612dca565b506002820181600201908054610b61906138be565b610b6c929190612dca565b50600382015481600301559050506001600e85604051610b8c9190613c8b565b908152602001604051809103902060006101000a81548160ff0219169083151502179055505050505050565b610bd3838383604051806020016040528060008152506111f3565b505050565b60606000610be583610e46565b905060008167ffffffffffffffff811115610c0357610c026131b0565b5b604051908082528060200260200182016040528015610c315781602001602082028036833780820191505090505b50905060005b82811015610c7b57610c498582610911565b828281518110610c5c57610c5b613ca2565b5b6020026020010181815250508080610c7390613cd1565b915050610c37565b508092505050919050565b6000805b8251811015610d1c57610cb785848381518110610caa57610ca9613ca2565b5b6020026020010151611497565b610cc057600080fd5b600b838281518110610cd557610cd4613ca2565b5b6020026020010151604051610cea9190613c8b565b9081526020016040518091039020600001549150610d09858584611b68565b8080610d1490613cd1565b915050610c8a565b5050505050565b6000610d2d6108a4565b8210610d6e576040517f08c379a0000000000000000000000000000000000000000000000000000000008152600401610d6590613d8c565b60405180910390fd5b60088281548110610d8257610d81613ca2565b5b90600052602060002001549050919050565b6000806002600084815260200190815260200160002060009054906101000a900473ffffffffffffffffffffffffffffffffffffffff169050600073ffffffffffffffffffffffffffffffffffffffff168173ffffffffffffffffffffffffffffffffffffffff161415610e3d576040517f08c379a0000000000000000000000000000000000000000000000000000000008152600401610e3490613e1e565b60405180910390fd5b80915050919050565b60008073ffffffffffffffffffffffffffffffffffffffff168273ffffffffffffffffffffffffffffffffffffffff161415610eb7576040517f08c379a0000000000000000000000000000000000000000000000000000000008152600401610eae90613eb0565b60405180910390fd5b600360008373ffffffffffffffffffffffffffffffffffffffff1673ffffffffffffffffffffffffffffffffffffffff168152602001908152602001600020549050919050565b610f066119c9565b73ffffffffffffffffffffffffffffffffffffffff16610f24610f86565b73ffffffffffffffffffffffffffffffffffffffff1614610f7a576040517f08c379a0000000000000000000000000000000000000000000000000000000008152600401610f7190613f1c565b60405180910390fd5b610f846000611de2565b565b6000600a60009054906101000a900473ffffffffffffffffffffffffffffffffffffffff16905090565b606060018054610fbf906138be565b80601f0160208091040260200160405190810160405280929190818152602001828054610feb906138be565b80156110385780601f1061100d57610100808354040283529160200191611038565b820191906000526020600020905b81548152906001019060200180831161101b57829003601f168201915b5050505050905090565b61105461104d6119c9565b8383611ea8565b5050565b60606000600b8360405160200161106f9190613f88565b60405160208183030381529060405260405161108b9190613c8b565b9081526020016040518091039020604051806080016040529081600082015481526020016001820180546110be906138be565b80601f01602080910402602001604051908101604052809291908181526020018280546110ea906138be565b80156111375780601f1061110c57610100808354040283529160200191611137565b820191906000526020600020905b81548152906001019060200180831161111a57829003601f168201915b50505050508152602001600282018054611150906138be565b80601f016020809104026020016040519081016040528092919081815260200182805461117c906138be565b80156111c95780601f1061119e576101008083540402835291602001916111c9565b820191906000526020600020905b8154815290600101906020018083116111ac57829003601f168201915b5050505050815260200160038201548152505090506111eb81600001516115c0565b915050919050565b6112046111fe6119c9565b83611a8a565b611243576040517f08c379a000000000000000000000000000000000000000000000000000000000815260040161123a90613b18565b60405180910390fd5b61124f84848484612015565b50505050565b60606000600b8360405160200161126c9190613ff6565b6040516020818303038152906040526040516112889190613c8b565b9081526020016040518091039020604051806080016040529081600082015481526020016001820180546112bb906138be565b80601f01602080910402602001604051908101604052809291908181526020018280546112e7906138be565b80156113345780601f1061130957610100808354040283529160200191611334565b820191906000526020600020905b81548152906001019060200180831161131757829003601f168201915b5050505050815260200160028201805461134d906138be565b80601f0160208091040260200160405190810160405280929190818152602001828054611379906138be565b80156113c65780601f1061139b576101008083540402835291602001916113c6565b820191906000526020600020905b8154815290600101906020018083116113a957829003601f168201915b5050505050815260200160038201548152505090506113e881600001516115c0565b915050919050565b60606113fb8261195d565b61143a576040517f08c379a00000000000000000000000000000000000000000000000000000000081526004016114319061408a565b60405180910390fd5b6000611444612071565b90506000815111611464576040518060200160405280600081525061148f565b8061146e84612088565b60405160200161147f9291906140aa565b6040516020818303038152906040525b915050919050565b60006114c483600b846040516114ad9190613c8b565b908152602001604051809103902060000154611a8a565b905092915050565b6000600e826040516114de9190613c8b565b908152602001604051809103902060009054906101000a900460ff169050919050565b6000600560008473ffffffffffffffffffffffffffffffffffffffff1673ffffffffffffffffffffffffffffffffffffffff16815260200190815260200160002060008373ffffffffffffffffffffffffffffffffffffffff1673ffffffffffffffffffffffffffffffffffffffff16815260200190815260200160002060009054906101000a900460ff16905092915050565b6000600b826040516115a79190613c8b565b9081526020016040518091039020600301549050919050565b60606000600c6000848152602001908152602001600020604051806080016040529081600082015481526020016001820180546115fc906138be565b80601f0160208091040260200160405190810160405280929190818152602001828054611628906138be565b80156116755780601f1061164a57610100808354040283529160200191611675565b820191906000526020600020905b81548152906001019060200180831161165857829003601f168201915b5050505050815260200160028201805461168e906138be565b80601f01602080910402602001604051908101604052809291908181526020018280546116ba906138be565b80156117075780601f106116dc57610100808354040283529160200191611707565b820191906000526020600020905b8154815290600101906020018083116116ea57829003601f168201915b50505050508152602001600382015481525050905061175c8160400151826020015161173684606001516121e9565b604051602001611748939291906141fe565b604051602081830303815290604052612372565b60405160200161176c91906142a7565b604051602081830303815290604052915050919050565b61178b6119c9565b73ffffffffffffffffffffffffffffffffffffffff166117a9610f86565b73ffffffffffffffffffffffffffffffffffffffff16146117ff576040517f08c379a00000000000000000000000000000000000000000000000000000000081526004016117f690613f1c565b60405180910390fd5b600073ffffffffffffffffffffffffffffffffffffffff168173ffffffffffffffffffffffffffffffffffffffff16141561186f576040517f08c379a00000000000000000000000000000000000000000000000000000000081526004016118669061433b565b60405180910390fd5b61187881611de2565b50565b60007f80ac58cd000000000000000000000000000000000000000000000000000000007bffffffffffffffffffffffffffffffffffffffffffffffffffffffff1916827bffffffffffffffffffffffffffffffffffffffffffffffffffffffff1916148061194657507f5b5e139f000000000000000000000000000000000000000000000000000000007bffffffffffffffffffffffffffffffffffffffffffffffffffffffff1916827bffffffffffffffffffffffffffffffffffffffffffffffffffffffff1916145b806119565750611955826124f7565b5b9050919050565b60008073ffffffffffffffffffffffffffffffffffffffff166002600084815260200190815260200160002060009054906101000a900473ffffffffffffffffffffffffffffffffffffffff1673ffffffffffffffffffffffffffffffffffffffff1614159050919050565b600033905090565b816004600083815260200190815260200160002060006101000a81548173ffffffffffffffffffffffffffffffffffffffff021916908373ffffffffffffffffffffffffffffffffffffffff160217905550808273ffffffffffffffffffffffffffffffffffffffff16611a4483610d94565b73ffffffffffffffffffffffffffffffffffffffff167f8c5be1e5ebec7d5bd14f71427d1e84f3dd0314c0f7b2291e5b200ac8c7c3b92560405160405180910390a45050565b6000611a958261195d565b611ad4576040517f08c379a0000000000000000000000000000000000000000000000000000000008152600401611acb906143cd565b60405180910390fd5b6000611adf83610d94565b90508073ffffffffffffffffffffffffffffffffffffffff168473ffffffffffffffffffffffffffffffffffffffff161480611b4e57508373ffffffffffffffffffffffffffffffffffffffff16611b3684610707565b73ffffffffffffffffffffffffffffffffffffffff16145b80611b5f5750611b5e8185611501565b5b91505092915050565b8273ffffffffffffffffffffffffffffffffffffffff16611b8882610d94565b73ffffffffffffffffffffffffffffffffffffffff1614611bde576040517f08c379a0000000000000000000000000000000000000000000000000000000008152600401611bd59061445f565b60405180910390fd5b600073ffffffffffffffffffffffffffffffffffffffff168273ffffffffffffffffffffffffffffffffffffffff161415611c4e576040517f08c379a0000000000000000000000000000000000000000000000000000000008152600401611c45906144f1565b60405180910390fd5b611c59838383612561565b611c646000826119d1565b6001600360008573ffffffffffffffffffffffffffffffffffffffff1673ffffffffffffffffffffffffffffffffffffffff1681526020019081526020016000206000828254611cb49190614511565b925050819055506001600360008473ffffffffffffffffffffffffffffffffffffffff1673ffffffffffffffffffffffffffffffffffffffff1681526020019081526020016000206000828254611d0b9190613bf9565b92505081905550816002600083815260200190815260200160002060006101000a81548173ffffffffffffffffffffffffffffffffffffffff021916908373ffffffffffffffffffffffffffffffffffffffff160217905550808273ffffffffffffffffffffffffffffffffffffffff168473ffffffffffffffffffffffffffffffffffffffff167fddf252ad1be2c89b69c2b068fc378daa952ba7f163c4a11628f55a4df523b3ef60405160405180910390a4505050565b611dde828260405180602001604052806000815250612675565b5050565b6000600a60009054906101000a900473ffffffffffffffffffffffffffffffffffffffff16905081600a60006101000a81548173ffffffffffffffffffffffffffffffffffffffff021916908373ffffffffffffffffffffffffffffffffffffffff1602179055508173ffffffffffffffffffffffffffffffffffffffff168173ffffffffffffffffffffffffffffffffffffffff167f8be0079c531659141344cd1fd0a4f28419497f9722a3daafe3b4186f6b6457e060405160405180910390a35050565b8173ffffffffffffffffffffffffffffffffffffffff168373ffffffffffffffffffffffffffffffffffffffff161415611f17576040517f08c379a0000000000000000000000000000000000000000000000000000000008152600401611f0e90614591565b60405180910390fd5b80600560008573ffffffffffffffffffffffffffffffffffffffff1673ffffffffffffffffffffffffffffffffffffffff16815260200190815260200160002060008473ffffffffffffffffffffffffffffffffffffffff1673ffffffffffffffffffffffffffffffffffffffff16815260200190815260200160002060006101000a81548160ff0219169083151502179055508173ffffffffffffffffffffffffffffffffffffffff168373ffffffffffffffffffffffffffffffffffffffff167f17307eab39ab6107e8899845ad3d59bd9653f200f220920489ca2b5937696c31836040516120089190612f28565b60405180910390a3505050565b612020848484611b68565b61202c848484846126d0565b61206b576040517f08c379a000000000000000000000000000000000000000000000000000000000815260040161206290614623565b60405180910390fd5b50505050565b606060405180602001604052806000815250905090565b606060008214156120d0576040518060400160405280600181526020017f300000000000000000000000000000000000000000000000000000000000000081525090506121e4565b600082905060005b600082146121025780806120eb90613cd1565b915050600a826120fb9190614672565b91506120d8565b60008167ffffffffffffffff81111561211e5761211d6131b0565b5b6040519080825280601f01601f1916602001820160405280156121505781602001600182028036833780820191505090505b5090505b600085146121dd576001826121699190614511565b9150600a8561217891906146a3565b60306121849190613bf9565b60f81b81838151811061219a57612199613ca2565b5b60200101907effffffffffffffffffffffffffffffffffffffffffffffffffffffffffffff1916908160001a905350600a856121d69190614672565b9450612154565b8093505050505b919050565b60606000821415612231576040518060400160405280600181526020017f3000000000000000000000000000000000000000000000000000000000000000815250905061236d565b600082905060005b6000821461226357808061224c90613cd1565b915050600a8261225c9190614672565b9150612239565b60008167ffffffffffffffff81111561227f5761227e6131b0565b5b6040519080825280601f01601f1916602001820160405280156122b15781602001600182028036833780820191505090505b50905060008290505b60008614612365576001816122cf9190614511565b90506000600a80886122e19190614672565b6122eb91906146d4565b876122f69190614511565b6030612302919061473b565b905060008160f81b9050808484815181106123205761231f613ca2565b5b60200101907effffffffffffffffffffffffffffffffffffffffffffffffffffffffffffff1916908160001a905350600a8861235c9190614672565b975050506122ba565b819450505050505b919050565b6060600082511415612395576040518060200160405280600081525090506124f2565b600060405180606001604052806040815260200161495d60409139905060006003600285516123c49190613bf9565b6123ce9190614672565b60046123da91906146d4565b905060006020826123eb9190613bf9565b67ffffffffffffffff811115612404576124036131b0565b5b6040519080825280601f01601f1916602001820160405280156124365781602001600182028036833780820191505090505b509050818152600183018586518101602084015b818310156124b1576003830192508251603f8160121c1685015160f81b8252600182019150603f81600c1c1685015160f81b8252600182019150603f8160061c1685015160f81b8252600182019150603f811685015160f81b82526001820191505061244a565b6003895106600181146124cb57600281146124db576124e6565b613d3d60f01b60028303526124e6565b603d60f81b60018303525b50505050508093505050505b919050565b60007f01ffc9a7000000000000000000000000000000000000000000000000000000007bffffffffffffffffffffffffffffffffffffffffffffffffffffffff1916827bffffffffffffffffffffffffffffffffffffffffffffffffffffffff1916149050919050565b61256c838383612858565b600073ffffffffffffffffffffffffffffffffffffffff168373ffffffffffffffffffffffffffffffffffffffff1614156125af576125aa8161285d565b6125ee565b8173ffffffffffffffffffffffffffffffffffffffff168373ffffffffffffffffffffffffffffffffffffffff16146125ed576125ec83826128a6565b5b5b600073ffffffffffffffffffffffffffffffffffffffff168273ffffffffffffffffffffffffffffffffffffffff1614156126315761262c81612a13565b612670565b8273ffffffffffffffffffffffffffffffffffffffff168273ffffffffffffffffffffffffffffffffffffffff161461266f5761266e8282612ae4565b5b5b505050565b61267f8383612b63565b61268c60008484846126d0565b6126cb576040517f08c379a00000000000000000000000000000000000000000000000000000000081526004016126c290614623565b60405180910390fd5b505050565b60006126f18473ffffffffffffffffffffffffffffffffffffffff16612d31565b1561284b578373ffffffffffffffffffffffffffffffffffffffff1663150b7a0261271a6119c9565b8786866040518563ffffffff1660e01b815260040161273c94939291906147c7565b6020604051808303816000875af192505050801561277857506040513d601f19601f820116820180604052508101906127759190614828565b60015b6127fb573d80600081146127a8576040519150601f19603f3d011682016040523d82523d6000602084013e6127ad565b606091505b506000815114156127f3576040517f08c379a00000000000000000000000000000000000000000000000000000000081526004016127ea90614623565b60405180910390fd5b805181602001fd5b63150b7a0260e01b7bffffffffffffffffffffffffffffffffffffffffffffffffffffffff1916817bffffffffffffffffffffffffffffffffffffffffffffffffffffffff191614915050612850565b600190505b949350505050565b505050565b6008805490506009600083815260200190815260200160002081905550600881908060018154018082558091505060019003906000526020600020016000909190919091505550565b600060016128b384610e46565b6128bd9190614511565b90506000600760008481526020019081526020016000205490508181146129a2576000600660008673ffffffffffffffffffffffffffffffffffffffff1673ffffffffffffffffffffffffffffffffffffffff168152602001908152602001600020600084815260200190815260200160002054905080600660008773ffffffffffffffffffffffffffffffffffffffff1673ffffffffffffffffffffffffffffffffffffffff168152602001908152602001600020600084815260200190815260200160002081905550816007600083815260200190815260200160002081905550505b6007600084815260200190815260200160002060009055600660008573ffffffffffffffffffffffffffffffffffffffff1673ffffffffffffffffffffffffffffffffffffffff16815260200190815260200160002060008381526020019081526020016000206000905550505050565b60006001600880549050612a279190614511565b9050600060096000848152602001908152602001600020549050600060088381548110612a5757612a56613ca2565b5b906000526020600020015490508060088381548110612a7957612a78613ca2565b5b906000526020600020018190555081600960008381526020019081526020016000208190555060096000858152602001908152602001600020600090556008805480612ac857612ac7614855565b5b6001900381819060005260206000200160009055905550505050565b6000612aef83610e46565b905081600660008573ffffffffffffffffffffffffffffffffffffffff1673ffffffffffffffffffffffffffffffffffffffff168152602001908152602001600020600083815260200190815260200160002081905550806007600084815260200190815260200160002081905550505050565b600073ffffffffffffffffffffffffffffffffffffffff168273ffffffffffffffffffffffffffffffffffffffff161415612bd3576040517f08c379a0000000000000000000000000000000000000000000000000000000008152600401612bca906148d0565b60405180910390fd5b612bdc8161195d565b15612c1c576040517f08c379a0000000000000000000000000000000000000000000000000000000008152600401612c139061493c565b60405180910390fd5b612c2860008383612561565b6001600360008473ffffffffffffffffffffffffffffffffffffffff1673ffffffffffffffffffffffffffffffffffffffff1681526020019081526020016000206000828254612c789190613bf9565b92505081905550816002600083815260200190815260200160002060006101000a81548173ffffffffffffffffffffffffffffffffffffffff021916908373ffffffffffffffffffffffffffffffffffffffff160217905550808273ffffffffffffffffffffffffffffffffffffffff16600073ffffffffffffffffffffffffffffffffffffffff167fddf252ad1be2c89b69c2b068fc378daa952ba7f163c4a11628f55a4df523b3ef60405160405180910390a45050565b600080823b905060008111915050919050565b828054612d50906138be565b90600052602060002090601f016020900481019282612d725760008555612db9565b82601f10612d8b57805160ff1916838001178555612db9565b82800160010185558215612db9579182015b82811115612db8578251825591602001919060010190612d9d565b5b509050612dc69190612e57565b5090565b828054612dd6906138be565b90600052602060002090601f016020900481019282612df85760008555612e46565b82601f10612e095780548555612e46565b82800160010185558215612e4657600052602060002091601f016020900482015b82811115612e45578254825591600101919060010190612e2a565b5b509050612e539190612e57565b5090565b5b80821115612e70576000816000905550600101612e58565b5090565b6000604051905090565b600080fd5b600080fd5b60007fffffffff0000000000000000000000000000000000000000000000000000000082169050919050565b612ebd81612e88565b8114612ec857600080fd5b50565b600081359050612eda81612eb4565b92915050565b600060208284031215612ef657612ef5612e7e565b5b6000612f0484828501612ecb565b91505092915050565b60008115159050919050565b612f2281612f0d565b82525050565b6000602082019050612f3d6000830184612f19565b92915050565b600081519050919050565b600082825260208201905092915050565b60005b83811015612f7d578082015181840152602081019050612f62565b83811115612f8c576000848401525b50505050565b6000601f19601f8301169050919050565b6000612fae82612f43565b612fb88185612f4e565b9350612fc8818560208601612f5f565b612fd181612f92565b840191505092915050565b60006020820190508181036000830152612ff68184612fa3565b905092915050565b6000819050919050565b61301181612ffe565b811461301c57600080fd5b50565b60008135905061302e81613008565b92915050565b60006020828403121561304a57613049612e7e565b5b60006130588482850161301f565b91505092915050565b600073ffffffffffffffffffffffffffffffffffffffff82169050919050565b600061308c82613061565b9050919050565b61309c81613081565b82525050565b60006020820190506130b76000830184613093565b92915050565b6130c681613081565b81146130d157600080fd5b50565b6000813590506130e3816130bd565b92915050565b60008060408385031215613100576130ff612e7e565b5b600061310e858286016130d4565b925050602061311f8582860161301f565b9150509250929050565b61313281612ffe565b82525050565b600060208201905061314d6000830184613129565b92915050565b60008060006060848603121561316c5761316b612e7e565b5b600061317a868287016130d4565b935050602061318b868287016130d4565b925050604061319c8682870161301f565b9150509250925092565b600080fd5b600080fd5b7f4e487b7100000000000000000000000000000000000000000000000000000000600052604160045260246000fd5b6131e882612f92565b810181811067ffffffffffffffff82111715613207576132066131b0565b5b80604052505050565b600061321a612e74565b905061322682826131df565b919050565b600067ffffffffffffffff821115613246576132456131b0565b5b61324f82612f92565b9050602081019050919050565b82818337600083830152505050565b600061327e6132798461322b565b613210565b90508281526020810184848401111561329a576132996131ab565b5b6132a584828561325c565b509392505050565b600082601f8301126132c2576132c16131a6565b5b81356132d284826020860161326b565b91505092915050565b600080600080608085870312156132f5576132f4612e7e565b5b6000613303878288016130d4565b945050602085013567ffffffffffffffff81111561332457613323612e83565b5b613330878288016132ad565b93505060406133418782880161301f565b925050606085013567ffffffffffffffff81111561336257613361612e83565b5b61336e878288016132ad565b91505092959194509250565b6000602082840312156133905761338f612e7e565b5b600061339e848285016130d4565b91505092915050565b600081519050919050565b600082825260208201905092915050565b6000819050602082019050919050565b6133dc81612ffe565b82525050565b60006133ee83836133d3565b60208301905092915050565b6000602082019050919050565b6000613412826133a7565b61341c81856133b2565b9350613427836133c3565b8060005b8381101561345857815161343f88826133e2565b975061344a836133fa565b92505060018101905061342b565b5085935050505092915050565b6000602082019050818103600083015261347f8184613407565b905092915050565b600061349282613061565b9050919050565b6134a281613487565b81146134ad57600080fd5b50565b6000813590506134bf81613499565b92915050565b600067ffffffffffffffff8211156134e0576134df6131b0565b5b602082029050602081019050919050565b600080fd5b6000613509613504846134c5565b613210565b9050808382526020820190506020840283018581111561352c5761352b6134f1565b5b835b8181101561357357803567ffffffffffffffff811115613551576135506131a6565b5b80860161355e89826132ad565b8552602085019450505060208101905061352e565b5050509392505050565b600082601f830112613592576135916131a6565b5b81356135a28482602086016134f6565b91505092915050565b6000806000606084860312156135c4576135c3612e7e565b5b60006135d2868287016134b0565b93505060206135e3868287016134b0565b925050604084013567ffffffffffffffff81111561360457613603612e83565b5b6136108682870161357d565b9150509250925092565b61362381612f0d565b811461362e57600080fd5b50565b6000813590506136408161361a565b92915050565b6000806040838503121561365d5761365c612e7e565b5b600061366b858286016130d4565b925050602061367c85828601613631565b9150509250929050565b60006020828403121561369c5761369b612e7e565b5b600082013567ffffffffffffffff8111156136ba576136b9612e83565b5b6136c6848285016132ad565b91505092915050565b600067ffffffffffffffff8211156136ea576136e96131b0565b5b6136f382612f92565b9050602081019050919050565b600061371361370e846136cf565b613210565b90508281526020810184848401111561372f5761372e6131ab565b5b61373a84828561325c565b509392505050565b600082601f830112613757576137566131a6565b5b8135613767848260208601613700565b91505092915050565b6000806000806080858703121561378a57613789612e7e565b5b6000613798878288016130d4565b94505060206137a9878288016130d4565b93505060406137ba8782880161301f565b925050606085013567ffffffffffffffff8111156137db576137da612e83565b5b6137e787828801613742565b91505092959194509250565b6000806040838503121561380a57613809612e7e565b5b6000613818858286016130d4565b925050602083013567ffffffffffffffff81111561383957613838612e83565b5b613845858286016132ad565b9150509250929050565b6000806040838503121561386657613865612e7e565b5b6000613874858286016130d4565b9250506020613885858286016130d4565b9150509250929050565b7f4e487b7100000000000000000000000000000000000000000000000000000000600052602260045260246000fd5b600060028204905060018216806138d657607f821691505b602082108114156138ea576138e961388f565b5b50919050565b7f4552433732313a20617070726f76656420717565727920666f72206e6f6e657860008201527f697374656e7420746f6b656e0000000000000000000000000000000000000000602082015250565b600061394c602c83612f4e565b9150613957826138f0565b604082019050919050565b6000602082019050818103600083015261397b8161393f565b9050919050565b7f4552433732313a20617070726f76616c20746f2063757272656e74206f776e6560008201527f7200000000000000000000000000000000000000000000000000000000000000602082015250565b60006139de602183612f4e565b91506139e982613982565b604082019050919050565b60006020820190508181036000830152613a0d816139d1565b9050919050565b7f4552433732313a20617070726f76652063616c6c6572206973206e6f74206f7760008201527f6e6572206e6f7220617070726f76656420666f7220616c6c0000000000000000602082015250565b6000613a70603883612f4e565b9150613a7b82613a14565b604082019050919050565b60006020820190508181036000830152613a9f81613a63565b9050919050565b7f4552433732313a207472616e736665722063616c6c6572206973206e6f74206f60008201527f776e6572206e6f7220617070726f766564000000000000000000000000000000602082015250565b6000613b02603183612f4e565b9150613b0d82613aa6565b604082019050919050565b60006020820190508181036000830152613b3181613af5565b9050919050565b7f455243373231456e756d657261626c653a206f776e657220696e646578206f7560008201527f74206f6620626f756e6473000000000000000000000000000000000000000000602082015250565b6000613b94602b83612f4e565b9150613b9f82613b38565b604082019050919050565b60006020820190508181036000830152613bc381613b87565b9050919050565b7f4e487b7100000000000000000000000000000000000000000000000000000000600052601160045260246000fd5b6000613c0482612ffe565b9150613c0f83612ffe565b9250827fffffffffffffffffffffffffffffffffffffffffffffffffffffffffffffffff03821115613c4457613c43613bca565b5b828201905092915050565b600081905092915050565b6000613c6582612f43565b613c6f8185613c4f565b9350613c7f818560208601612f5f565b80840191505092915050565b6000613c978284613c5a565b915081905092915050565b7f4e487b7100000000000000000000000000000000000000000000000000000000600052603260045260246000fd5b6000613cdc82612ffe565b91507fffffffffffffffffffffffffffffffffffffffffffffffffffffffffffffffff821415613d0f57613d0e613bca565b5b600182019050919050565b7f455243373231456e756d657261626c653a20676c6f62616c20696e646578206f60008201527f7574206f6620626f756e64730000000000000000000000000000000000000000602082015250565b6000613d76602c83612f4e565b9150613d8182613d1a565b604082019050919050565b60006020820190508181036000830152613da581613d69565b9050919050565b7f4552433732313a206f776e657220717565727920666f72206e6f6e657869737460008201527f656e7420746f6b656e0000000000000000000000000000000000000000000000602082015250565b6000613e08602983612f4e565b9150613e1382613dac565b604082019050919050565b60006020820190508181036000830152613e3781613dfb565b9050919050565b7f4552433732313a2062616c616e636520717565727920666f7220746865207a6560008201527f726f206164647265737300000000000000000000000000000000000000000000602082015250565b6000613e9a602a83612f4e565b9150613ea582613e3e565b604082019050919050565b60006020820190508181036000830152613ec981613e8d565b9050919050565b7f4f776e61626c653a2063616c6c6572206973206e6f7420746865206f776e6572600082015250565b6000613f06602083612f4e565b9150613f1182613ed0565b602082019050919050565b60006020820190508181036000830152613f3581613ef9565b9050919050565b7f505f000000000000000000000000000000000000000000000000000000000000600082015250565b6000613f72600283613c4f565b9150613f7d82613f3c565b600282019050919050565b6000613f9382613f65565b9150613f9f8284613c5a565b915081905092915050565b7f4d505f0000000000000000000000000000000000000000000000000000000000600082015250565b6000613fe0600383613c4f565b9150613feb82613faa565b600382019050919050565b600061400182613fd3565b915061400d8284613c5a565b915081905092915050565b7f4552433732314d657461646174613a2055524920717565727920666f72206e6f60008201527f6e6578697374656e7420746f6b656e0000000000000000000000000000000000602082015250565b6000614074602f83612f4e565b915061407f82614018565b604082019050919050565b600060208201905081810360008301526140a381614067565b9050919050565b60006140b68285613c5a565b91506140c28284613c5a565b91508190509392505050565b7f7b226e616d65223a220000000000000000000000000000000000000000000000600082015250565b6000614104600983613c4f565b915061410f826140ce565b600982019050919050565b7f222c226c6f74746f223a22000000000000000000000000000000000000000000600082015250565b6000614150600b83613c4f565b915061415b8261411a565b600b82019050919050565b7f222c22666f6f747072696e74223a000000000000000000000000000000000000600082015250565b600061419c600e83613c4f565b91506141a782614166565b600e82019050919050565b7f7d00000000000000000000000000000000000000000000000000000000000000600082015250565b60006141e8600183613c4f565b91506141f3826141b2565b600182019050919050565b6000614209826140f7565b91506142158286613c5a565b915061422082614143565b915061422c8285613c5a565b91506142378261418f565b91506142438284613c5a565b915061424e826141db565b9150819050949350505050565b7f646174613a6170706c69636174696f6e2f6a736f6e3b6261736536342c000000600082015250565b6000614291601d83613c4f565b915061429c8261425b565b601d82019050919050565b60006142b282614284565b91506142be8284613c5a565b915081905092915050565b7f4f776e61626c653a206e6577206f776e657220697320746865207a65726f206160008201527f6464726573730000000000000000000000000000000000000000000000000000602082015250565b6000614325602683612f4e565b9150614330826142c9565b604082019050919050565b6000602082019050818103600083015261435481614318565b9050919050565b7f4552433732313a206f70657261746f7220717565727920666f72206e6f6e657860008201527f697374656e7420746f6b656e0000000000000000000000000000000000000000602082015250565b60006143b7602c83612f4e565b91506143c28261435b565b604082019050919050565b600060208201905081810360008301526143e6816143aa565b9050919050565b7f4552433732313a207472616e73666572206f6620746f6b656e2074686174206960008201527f73206e6f74206f776e0000000000000000000000000000000000000000000000602082015250565b6000614449602983612f4e565b9150614454826143ed565b604082019050919050565b600060208201905081810360008301526144788161443c565b9050919050565b7f4552433732313a207472616e7366657220746f20746865207a65726f2061646460008201527f7265737300000000000000000000000000000000000000000000000000000000602082015250565b60006144db602483612f4e565b91506144e68261447f565b604082019050919050565b6000602082019050818103600083015261450a816144ce565b9050919050565b600061451c82612ffe565b915061452783612ffe565b92508282101561453a57614539613bca565b5b828203905092915050565b7f4552433732313a20617070726f766520746f2063616c6c657200000000000000600082015250565b600061457b601983612f4e565b915061458682614545565b602082019050919050565b600060208201905081810360008301526145aa8161456e565b9050919050565b7f4552433732313a207472616e7366657220746f206e6f6e20455243373231526560008201527f63656976657220696d706c656d656e7465720000000000000000000000000000602082015250565b600061460d603283612f4e565b9150614618826145b1565b604082019050919050565b6000602082019050818103600083015261463c81614600565b9050919050565b7f4e487b7100000000000000000000000000000000000000000000000000000000600052601260045260246000fd5b600061467d82612ffe565b915061468883612ffe565b92508261469857614697614643565b5b828204905092915050565b60006146ae82612ffe565b91506146b983612ffe565b9250826146c9576146c8614643565b5b828206905092915050565b60006146df82612ffe565b91506146ea83612ffe565b9250817fffffffffffffffffffffffffffffffffffffffffffffffffffffffffffffffff048311821515161561472357614722613bca565b5b828202905092915050565b600060ff82169050919050565b60006147468261472e565b91506147518361472e565b92508260ff0382111561476757614766613bca565b5b828201905092915050565b600081519050919050565b600082825260208201905092915050565b600061479982614772565b6147a3818561477d565b93506147b3818560208601612f5f565b6147bc81612f92565b840191505092915050565b60006080820190506147dc6000830187613093565b6147e96020830186613093565b6147f66040830185613129565b8181036060830152614808818461478e565b905095945050505050565b60008151905061482281612eb4565b92915050565b60006020828403121561483e5761483d612e7e565b5b600061484c84828501614813565b91505092915050565b7f4e487b7100000000000000000000000000000000000000000000000000000000600052603160045260246000fd5b7f4552433732313a206d696e7420746f20746865207a65726f2061646472657373600082015250565b60006148ba602083612f4e565b91506148c582614884565b602082019050919050565b600060208201905081810360008301526148e9816148ad565b9050919050565b7f4552433732313a20746f6b656e20616c7265616479206d696e74656400000000600082015250565b6000614926601c83612f4e565b9150614931826148f0565b602082019050919050565b6000602082019050818103600083015261495581614919565b905091905056fe4142434445464748494a4b4c4d4e4f505152535455565758595a6162636465666768696a6b6c6d6e6f707172737475767778797a303132333435363738392b2fa264697066735822122019290e9c9761367234c137fabec112472df32e1372f6727dc3f6efe088354b9564736f6c634300080b0033",
  "immutableReferences": {},
  "source": "// SPDX-License-Identifier: GPL-3.0\r\n\r\n// Created by HashLips\r\n// The Nerdy Coder Clones\r\n\r\npragma solidity ^0.8.0;\r\n\r\nimport \"@openzeppelin/contracts/token/ERC721/extensions/ERC721Enumerable.sol\";\r\nimport \"@openzeppelin/contracts/access/Ownable.sol\";\r\nimport \"./Base64.sol\";\r\n\r\ncontract CarbonFootprint is ERC721Enumerable, Ownable {\r\n  using Strings for uint256;\r\n\r\n  struct Risorsa{\r\n    uint idToken;\r\n    string lotto;\r\n    string nome;\r\n    uint footprint;\r\n  }\r\n\r\n  mapping(string=>Risorsa) getRisorsaByLotto; //mapping del prodotto in base al lotto\r\n  mapping(uint=>Risorsa) getRisorsaByTokenId;\r\n  mapping(uint=>Risorsa) listaRisorse;\r\n\r\n  mapping(string => bool) private risorsaExists;\r\n\r\n  constructor(\r\n    string memory _name,\r\n    string memory _symbol\r\n  ) ERC721(_name, _symbol) {\r\n  }\r\n\r\n\r\n  // public\r\n  function mint(address _to, string memory _lotto, uint _footprint, string memory _nome) public  {\r\n    uint256 supply = totalSupply();\r\n    _safeMint(_to, supply+1);\r\n    listaRisorse[supply] = Risorsa({\r\n       idToken: supply+1,\r\n       lotto: _lotto,\r\n       nome: _nome,\r\n       footprint: _footprint\r\n    });\r\n    getRisorsaByTokenId[supply+1] = listaRisorse[supply]; \r\n    getRisorsaByLotto[_lotto] = listaRisorse[supply];\r\n    risorsaExists[_lotto] = true;\r\n  }\r\n\r\n  function walletOfOwner(address _owner)\r\n    public\r\n    view\r\n    returns (uint256[] memory)\r\n  {\r\n    uint256 ownerTokenCount = balanceOf(_owner);\r\n    uint256[] memory tokenIds = new uint256[](ownerTokenCount);\r\n    for (uint256 i; i < ownerTokenCount; i++) {\r\n      tokenIds[i] = tokenOfOwnerByIndex(_owner, i);\r\n    }\r\n    return tokenIds;\r\n  }\r\n   \r\n   function compraNft(address payable _fornitore, address payable _produttore, string[] memory lotti) public{\r\n      uint tokenId = 0;\r\n      for(uint i=0;i<lotti.length;i++){\r\n         require(isOwner(_fornitore,lotti[i]));\r\n        tokenId = getRisorsaByLotto[lotti[i]].idToken;\r\n         _transfer(_fornitore, _produttore,tokenId);\r\n      }\r\n    \r\n   }\r\n\r\n   function isOwner(address _account, string memory lotto) public view returns(bool){\r\n      return _isApprovedOrOwner(_account,getRisorsaByLotto[lotto].idToken);\r\n   }\r\n  \r\n   function buildMetadata(uint256 _tokenId) public view returns(string memory) {\r\n      Risorsa memory risorsa = getRisorsaByTokenId[_tokenId];\r\n      return string(abi.encodePacked(\r\n              'data:application/json;base64,', Base64.encode(bytes(abi.encodePacked(\r\n                          '{\"name\":\"', \r\n                          risorsa.nome,\r\n                          '\",\"lotto\":\"', \r\n                          risorsa.lotto,\r\n                          '\",\"footprint\":', \r\n                          uint2str(risorsa.footprint),'}')))));\r\n                          \r\n  }\r\n  \r\n  function existsLotto(string memory _lotto) public view returns (bool){\r\n    return risorsaExists[_lotto];\r\n  }\r\n\r\n  //cerca la materia prima in base al lotto\r\n  function searchMateriaPrimaByLotto(string memory lotto) public view returns(string memory) {\r\n      Risorsa memory risorsa = getRisorsaByLotto[string(abi.encodePacked(\"MP_\",lotto))];\r\n      return buildMetadata(risorsa.idToken);\r\n  }\r\n\r\n  function searchProdottoByLotto(string memory lotto) public view returns(string memory) {\r\n        Risorsa memory risorsa = getRisorsaByLotto[string(abi.encodePacked(\"P_\",lotto))];\r\n        return buildMetadata(risorsa.idToken);\r\n    }\r\n\r\n  function getFootPrintByLotto(string memory lotto) public view returns (uint256){\r\n        return getRisorsaByLotto[lotto].footprint; \r\n   }\r\n\r\n\r\n  function uint2str(uint _i) internal pure returns (string memory _uintAsString) {\r\n        if (_i == 0) {\r\n            return \"0\";\r\n        }\r\n        uint j = _i;\r\n        uint len;\r\n        while (j != 0) {\r\n            len++;\r\n            j /= 10;\r\n        }\r\n        bytes memory bstr = new bytes(len);\r\n        uint k = len;\r\n        while (_i != 0) {\r\n            k = k-1;\r\n            uint8 temp = (48 + uint8(_i - _i / 10 * 10));\r\n            bytes1 b1 = bytes1(temp);\r\n            bstr[k] = b1;\r\n            _i /= 10;\r\n        }\r\n        return string(bstr);\r\n    }\r\n\r\n\r\n}",
  "sourcePath": "C:\\Users\\sam\\Desktop\\Progetto\\Truffle\\contracts\\CarbonFootprint.sol",
  "compiler": {
    "name": "solc",
    "version": "0.8.11+commit.d7f03943.Emscripten.clang"
  },
  "schemaVersion": "3.4.1",
  "updatedAt": "2022-02-09T07:48:20.614Z",
  "networkType": "quorum",
  "devdoc": {
    "kind": "dev",
    "methods": {
      "approve(address,uint256)": {
        "details": "See {IERC721-approve}."
      },
      "balanceOf(address)": {
        "details": "See {IERC721-balanceOf}."
      },
      "getApproved(uint256)": {
        "details": "See {IERC721-getApproved}."
      },
      "isApprovedForAll(address,address)": {
        "details": "See {IERC721-isApprovedForAll}."
      },
      "name()": {
        "details": "See {IERC721Metadata-name}."
      },
      "owner()": {
        "details": "Returns the address of the current owner."
      },
      "ownerOf(uint256)": {
        "details": "See {IERC721-ownerOf}."
      },
      "renounceOwnership()": {
        "details": "Leaves the contract without owner. It will not be possible to call `onlyOwner` functions anymore. Can only be called by the current owner. NOTE: Renouncing ownership will leave the contract without an owner, thereby removing any functionality that is only available to the owner."
      },
      "safeTransferFrom(address,address,uint256)": {
        "details": "See {IERC721-safeTransferFrom}."
      },
      "safeTransferFrom(address,address,uint256,bytes)": {
        "details": "See {IERC721-safeTransferFrom}."
      },
      "setApprovalForAll(address,bool)": {
        "details": "See {IERC721-setApprovalForAll}."
      },
      "supportsInterface(bytes4)": {
        "details": "See {IERC165-supportsInterface}."
      },
      "symbol()": {
        "details": "See {IERC721Metadata-symbol}."
      },
      "tokenByIndex(uint256)": {
        "details": "See {IERC721Enumerable-tokenByIndex}."
      },
      "tokenOfOwnerByIndex(address,uint256)": {
        "details": "See {IERC721Enumerable-tokenOfOwnerByIndex}."
      },
      "tokenURI(uint256)": {
        "details": "See {IERC721Metadata-tokenURI}."
      },
      "totalSupply()": {
        "details": "See {IERC721Enumerable-totalSupply}."
      },
      "transferFrom(address,address,uint256)": {
        "details": "See {IERC721-transferFrom}."
      },
      "transferOwnership(address)": {
        "details": "Transfers ownership of the contract to a new account (`newOwner`). Can only be called by the current owner."
      }
    },
    "version": 1
  },
  "userdoc": {
    "kind": "user",
    "methods": {},
    "version": 1
  }
}