{
  "contractName": "CarbonFootprint",
  "abi": [
    {
      "inputs": [
        {
          "internalType": "string",
          "name": "_name",
          "type": "string"
        },
        {
          "internalType": "string",
          "name": "_symbol",
          "type": "string"
        }
      ],
      "stateMutability": "nonpayable",
      "type": "constructor"
    },
    {
      "anonymous": false,
      "inputs": [
        {
          "indexed": true,
          "internalType": "address",
          "name": "owner",
          "type": "address"
        },
        {
          "indexed": true,
          "internalType": "address",
          "name": "approved",
          "type": "address"
        },
        {
          "indexed": true,
          "internalType": "uint256",
          "name": "tokenId",
          "type": "uint256"
        }
      ],
      "name": "Approval",
      "type": "event"
    },
    {
      "anonymous": false,
      "inputs": [
        {
          "indexed": true,
          "internalType": "address",
          "name": "owner",
          "type": "address"
        },
        {
          "indexed": true,
          "internalType": "address",
          "name": "operator",
          "type": "address"
        },
        {
          "indexed": false,
          "internalType": "bool",
          "name": "approved",
          "type": "bool"
        }
      ],
      "name": "ApprovalForAll",
      "type": "event"
    },
    {
      "anonymous": false,
      "inputs": [
        {
          "indexed": true,
          "internalType": "address",
          "name": "previousOwner",
          "type": "address"
        },
        {
          "indexed": true,
          "internalType": "address",
          "name": "newOwner",
          "type": "address"
        }
      ],
      "name": "OwnershipTransferred",
      "type": "event"
    },
    {
      "anonymous": false,
      "inputs": [
        {
          "indexed": true,
          "internalType": "address",
          "name": "from",
          "type": "address"
        },
        {
          "indexed": true,
          "internalType": "address",
          "name": "to",
          "type": "address"
        },
        {
          "indexed": true,
          "internalType": "uint256",
          "name": "tokenId",
          "type": "uint256"
        }
      ],
      "name": "Transfer",
      "type": "event"
    },
    {
      "inputs": [
        {
          "internalType": "address",
          "name": "to",
          "type": "address"
        },
        {
          "internalType": "uint256",
          "name": "tokenId",
          "type": "uint256"
        }
      ],
      "name": "approve",
      "outputs": [],
      "stateMutability": "nonpayable",
      "type": "function"
    },
    {
      "inputs": [
        {
          "internalType": "address",
          "name": "owner",
          "type": "address"
        }
      ],
      "name": "balanceOf",
      "outputs": [
        {
          "internalType": "uint256",
          "name": "",
          "type": "uint256"
        }
      ],
      "stateMutability": "view",
      "type": "function",
      "constant": true
    },
    {
      "inputs": [
        {
          "internalType": "uint256",
          "name": "tokenId",
          "type": "uint256"
        }
      ],
      "name": "getApproved",
      "outputs": [
        {
          "internalType": "address",
          "name": "",
          "type": "address"
        }
      ],
      "stateMutability": "view",
      "type": "function",
      "constant": true
    },
    {
      "inputs": [
        {
          "internalType": "address",
          "name": "owner",
          "type": "address"
        },
        {
          "internalType": "address",
          "name": "operator",
          "type": "address"
        }
      ],
      "name": "isApprovedForAll",
      "outputs": [
        {
          "internalType": "bool",
          "name": "",
          "type": "bool"
        }
      ],
      "stateMutability": "view",
      "type": "function",
      "constant": true
    },
    {
      "inputs": [],
      "name": "name",
      "outputs": [
        {
          "internalType": "string",
          "name": "",
          "type": "string"
        }
      ],
      "stateMutability": "view",
      "type": "function",
      "constant": true
    },
    {
      "inputs": [],
      "name": "owner",
      "outputs": [
        {
          "internalType": "address",
          "name": "",
          "type": "address"
        }
      ],
      "stateMutability": "view",
      "type": "function",
      "constant": true
    },
    {
      "inputs": [
        {
          "internalType": "uint256",
          "name": "tokenId",
          "type": "uint256"
        }
      ],
      "name": "ownerOf",
      "outputs": [
        {
          "internalType": "address",
          "name": "",
          "type": "address"
        }
      ],
      "stateMutability": "view",
      "type": "function",
      "constant": true
    },
    {
      "inputs": [],
      "name": "renounceOwnership",
      "outputs": [],
      "stateMutability": "nonpayable",
      "type": "function"
    },
    {
      "inputs": [
        {
          "internalType": "address",
          "name": "from",
          "type": "address"
        },
        {
          "internalType": "address",
          "name": "to",
          "type": "address"
        },
        {
          "internalType": "uint256",
          "name": "tokenId",
          "type": "uint256"
        }
      ],
      "name": "safeTransferFrom",
      "outputs": [],
      "stateMutability": "nonpayable",
      "type": "function"
    },
    {
      "inputs": [
        {
          "internalType": "address",
          "name": "from",
          "type": "address"
        },
        {
          "internalType": "address",
          "name": "to",
          "type": "address"
        },
        {
          "internalType": "uint256",
          "name": "tokenId",
          "type": "uint256"
        },
        {
          "internalType": "bytes",
          "name": "_data",
          "type": "bytes"
        }
      ],
      "name": "safeTransferFrom",
      "outputs": [],
      "stateMutability": "nonpayable",
      "type": "function"
    },
    {
      "inputs": [
        {
          "internalType": "address",
          "name": "operator",
          "type": "address"
        },
        {
          "internalType": "bool",
          "name": "approved",
          "type": "bool"
        }
      ],
      "name": "setApprovalForAll",
      "outputs": [],
      "stateMutability": "nonpayable",
      "type": "function"
    },
    {
      "inputs": [
        {
          "internalType": "bytes4",
          "name": "interfaceId",
          "type": "bytes4"
        }
      ],
      "name": "supportsInterface",
      "outputs": [
        {
          "internalType": "bool",
          "name": "",
          "type": "bool"
        }
      ],
      "stateMutability": "view",
      "type": "function",
      "constant": true
    },
    {
      "inputs": [],
      "name": "symbol",
      "outputs": [
        {
          "internalType": "string",
          "name": "",
          "type": "string"
        }
      ],
      "stateMutability": "view",
      "type": "function",
      "constant": true
    },
    {
      "inputs": [
        {
          "internalType": "uint256",
          "name": "index",
          "type": "uint256"
        }
      ],
      "name": "tokenByIndex",
      "outputs": [
        {
          "internalType": "uint256",
          "name": "",
          "type": "uint256"
        }
      ],
      "stateMutability": "view",
      "type": "function",
      "constant": true
    },
    {
      "inputs": [
        {
          "internalType": "address",
          "name": "owner",
          "type": "address"
        },
        {
          "internalType": "uint256",
          "name": "index",
          "type": "uint256"
        }
      ],
      "name": "tokenOfOwnerByIndex",
      "outputs": [
        {
          "internalType": "uint256",
          "name": "",
          "type": "uint256"
        }
      ],
      "stateMutability": "view",
      "type": "function",
      "constant": true
    },
    {
      "inputs": [
        {
          "internalType": "uint256",
          "name": "tokenId",
          "type": "uint256"
        }
      ],
      "name": "tokenURI",
      "outputs": [
        {
          "internalType": "string",
          "name": "",
          "type": "string"
        }
      ],
      "stateMutability": "view",
      "type": "function",
      "constant": true
    },
    {
      "inputs": [],
      "name": "totalSupply",
      "outputs": [
        {
          "internalType": "uint256",
          "name": "",
          "type": "uint256"
        }
      ],
      "stateMutability": "view",
      "type": "function",
      "constant": true
    },
    {
      "inputs": [
        {
          "internalType": "address",
          "name": "from",
          "type": "address"
        },
        {
          "internalType": "address",
          "name": "to",
          "type": "address"
        },
        {
          "internalType": "uint256",
          "name": "tokenId",
          "type": "uint256"
        }
      ],
      "name": "transferFrom",
      "outputs": [],
      "stateMutability": "nonpayable",
      "type": "function"
    },
    {
      "inputs": [
        {
          "internalType": "address",
          "name": "newOwner",
          "type": "address"
        }
      ],
      "name": "transferOwnership",
      "outputs": [],
      "stateMutability": "nonpayable",
      "type": "function"
    },
    {
      "inputs": [
        {
          "internalType": "address",
          "name": "_to",
          "type": "address"
        },
        {
          "internalType": "string",
          "name": "_lotto",
          "type": "string"
        },
        {
          "internalType": "uint256",
          "name": "_footprint",
          "type": "uint256"
        },
        {
          "internalType": "string",
          "name": "_nome",
          "type": "string"
        }
      ],
      "name": "mint",
      "outputs": [],
      "stateMutability": "nonpayable",
      "type": "function"
    },
    {
      "inputs": [
        {
          "internalType": "string",
          "name": "_lotto",
          "type": "string"
        }
      ],
      "name": "setRisorsaUtilizzata",
      "outputs": [],
      "stateMutability": "nonpayable",
      "type": "function"
    },
    {
      "inputs": [
        {
          "internalType": "string",
          "name": "_lotto",
          "type": "string"
        }
      ],
      "name": "getRisorsaUtilizzata",
      "outputs": [
        {
          "internalType": "bool",
          "name": "",
          "type": "bool"
        }
      ],
      "stateMutability": "view",
      "type": "function",
      "constant": true
    },
    {
      "inputs": [
        {
          "internalType": "address",
          "name": "_owner",
          "type": "address"
        }
      ],
      "name": "walletOfOwner",
      "outputs": [
        {
          "internalType": "uint256[]",
          "name": "",
          "type": "uint256[]"
        }
      ],
      "stateMutability": "view",
      "type": "function",
      "constant": true
    },
    {
      "inputs": [
        {
          "internalType": "address payable",
          "name": "_fornitore",
          "type": "address"
        },
        {
          "internalType": "address payable",
          "name": "_produttore",
          "type": "address"
        },
        {
          "internalType": "string",
          "name": "lotto",
          "type": "string"
        }
      ],
      "name": "trasferisciNft",
      "outputs": [],
      "stateMutability": "nonpayable",
      "type": "function"
    },
    {
      "inputs": [
        {
          "internalType": "address",
          "name": "_account",
          "type": "address"
        },
        {
          "internalType": "string",
          "name": "lotto",
          "type": "string"
        }
      ],
      "name": "isOwner",
      "outputs": [
        {
          "internalType": "bool",
          "name": "",
          "type": "bool"
        }
      ],
      "stateMutability": "view",
      "type": "function",
      "constant": true
    },
    {
      "inputs": [
        {
          "internalType": "uint256",
          "name": "_tokenId",
          "type": "uint256"
        }
      ],
      "name": "buildMetadata",
      "outputs": [
        {
          "internalType": "string",
          "name": "",
          "type": "string"
        }
      ],
      "stateMutability": "view",
      "type": "function",
      "constant": true
    },
    {
      "inputs": [
        {
          "internalType": "string",
          "name": "_lotto",
          "type": "string"
        }
      ],
      "name": "existsLotto",
      "outputs": [
        {
          "internalType": "bool",
          "name": "",
          "type": "bool"
        }
      ],
      "stateMutability": "view",
      "type": "function",
      "constant": true
    },
    {
      "inputs": [
        {
          "internalType": "string",
          "name": "lotto",
          "type": "string"
        }
      ],
      "name": "searchMateriaPrimaByLotto",
      "outputs": [
        {
          "internalType": "string",
          "name": "",
          "type": "string"
        }
      ],
      "stateMutability": "view",
      "type": "function",
      "constant": true
    },
    {
      "inputs": [
        {
          "internalType": "string",
          "name": "lotto",
          "type": "string"
        }
      ],
      "name": "searchProdottoByLotto",
      "outputs": [
        {
          "internalType": "string",
          "name": "",
          "type": "string"
        }
      ],
      "stateMutability": "view",
      "type": "function",
      "constant": true
    },
    {
      "inputs": [
        {
          "internalType": "string",
          "name": "lotto",
          "type": "string"
        }
      ],
      "name": "getFootPrintByLotto",
      "outputs": [
        {
          "internalType": "uint256",
          "name": "",
          "type": "uint256"
        }
      ],
      "stateMutability": "view",
      "type": "function",
      "constant": true
    }
  ],
  "bytecode": "0x60806040523480156200001157600080fd5b5060405162004fe438038062004fe48339818101604052810190620000379190620003b0565b818181600090805190602001906200005192919062000163565b5080600190805190602001906200006a92919062000163565b5050506200008d620000816200009560201b60201c565b6200009d60201b60201c565b50506200049a565b600033905090565b6000600a60009054906101000a900473ffffffffffffffffffffffffffffffffffffffff16905081600a60006101000a81548173ffffffffffffffffffffffffffffffffffffffff021916908373ffffffffffffffffffffffffffffffffffffffff1602179055508173ffffffffffffffffffffffffffffffffffffffff168173ffffffffffffffffffffffffffffffffffffffff167f8be0079c531659141344cd1fd0a4f28419497f9722a3daafe3b4186f6b6457e060405160405180910390a35050565b828054620001719062000464565b90600052602060002090601f016020900481019282620001955760008555620001e1565b82601f10620001b057805160ff1916838001178555620001e1565b82800160010185558215620001e1579182015b82811115620001e0578251825591602001919060010190620001c3565b5b509050620001f09190620001f4565b5090565b5b808211156200020f576000816000905550600101620001f5565b5090565b6000604051905090565b600080fd5b600080fd5b600080fd5b600080fd5b6000601f19601f8301169050919050565b7f4e487b7100000000000000000000000000000000000000000000000000000000600052604160045260246000fd5b6200027c8262000231565b810181811067ffffffffffffffff821117156200029e576200029d62000242565b5b80604052505050565b6000620002b362000213565b9050620002c1828262000271565b919050565b600067ffffffffffffffff821115620002e457620002e362000242565b5b620002ef8262000231565b9050602081019050919050565b60005b838110156200031c578082015181840152602081019050620002ff565b838111156200032c576000848401525b50505050565b6000620003496200034384620002c6565b620002a7565b9050828152602081018484840111156200036857620003676200022c565b5b62000375848285620002fc565b509392505050565b600082601f83011262000395576200039462000227565b5b8151620003a784826020860162000332565b91505092915050565b60008060408385031215620003ca57620003c96200021d565b5b600083015167ffffffffffffffff811115620003eb57620003ea62000222565b5b620003f9858286016200037d565b925050602083015167ffffffffffffffff8111156200041d576200041c62000222565b5b6200042b858286016200037d565b9150509250929050565b7f4e487b7100000000000000000000000000000000000000000000000000000000600052602260045260246000fd5b600060028204905060018216806200047d57607f821691505b6020821081141562000494576200049362000435565b5b50919050565b614b3a80620004aa6000396000f3fe608060405234801561001057600080fd5b50600436106101da5760003560e01c80638da5cb5b11610104578063c87b56dd116100a2578063eb256cef11610071578063eb256cef146105c5578063edf87704146105f5578063f2fde38b14610625578063fa0313e214610641576101da565b8063c87b56dd14610505578063cd37996414610535578063dc86185214610565578063e985e9c514610595576101da565b8063a22cb465116100de578063a22cb4651461046d578063b695956e14610489578063b88d4fde146104b9578063bcd5a375146104d5576101da565b80638da5cb5b1461041557806395d89b411461043357806398d0e3fe14610451576101da565b80633dd904301161017c5780634f94a5e91161014b5780634f94a5e91461037b5780636352211e146103ab57806370a08231146103db578063715018a61461040b576101da565b80633dd90430146102e357806342842e0e146102ff578063438b63001461031b5780634f6ccce71461034b576101da565b8063095ea7b3116101b8578063095ea7b31461025d57806318160ddd1461027957806323b872dd146102975780632f745c59146102b3576101da565b806301ffc9a7146101df57806306fdde031461020f578063081812fc1461022d575b600080fd5b6101f960048036038101906101f49190613054565b61065d565b604051610206919061309c565b60405180910390f35b6102176106d7565b6040516102249190613150565b60405180910390f35b610247600480360381019061024291906131a8565b610769565b6040516102549190613216565b60405180910390f35b6102776004803603810190610272919061325d565b6107ee565b005b610281610906565b60405161028e91906132ac565b60405180910390f35b6102b160048036038101906102ac91906132c7565b610913565b005b6102cd60048036038101906102c8919061325d565b610973565b6040516102da91906132ac565b60405180910390f35b6102fd60048036038101906102f8919061344f565b610a18565b005b610319600480360381019061031491906132c7565b610cbd565b005b610335600480360381019061033091906134ee565b610cdd565b60405161034291906135d9565b60405180910390f35b610365600480360381019061036091906131a8565b610d8b565b60405161037291906132ac565b60405180910390f35b610395600480360381019061039091906135fb565b610dfc565b6040516103a2919061309c565b60405180910390f35b6103c560048036038101906103c091906131a8565b610e31565b6040516103d29190613216565b60405180910390f35b6103f560048036038101906103f091906134ee565b610ee3565b60405161040291906132ac565b60405180910390f35b610413610f9b565b005b61041d611023565b60405161042a9190613216565b60405180910390f35b61043b61104d565b6040516104489190613150565b60405180910390f35b61046b600480360381019061046691906135fb565b6110df565b005b61048760048036038101906104829190613670565b611119565b005b6104a3600480360381019061049e91906135fb565b61112f565b6040516104b09190613150565b60405180910390f35b6104d360048036038101906104ce9190613751565b6112ca565b005b6104ef60048036038101906104ea91906135fb565b61132c565b6040516104fc9190613150565b60405180910390f35b61051f600480360381019061051a91906131a8565b6114c7565b60405161052c9190613150565b60405180910390f35b61054f600480360381019061054a91906137d4565b61156e565b60405161055c919061309c565b60405180910390f35b61057f600480360381019061057a91906135fb565b6115a3565b60405161058c919061309c565b60405180910390f35b6105af60048036038101906105aa9190613830565b6115d8565b6040516105bc919061309c565b60405180910390f35b6105df60048036038101906105da91906135fb565b61166c565b6040516105ec91906132ac565b60405180910390f35b61060f600480360381019061060a91906131a8565b611697565b60405161061c9190613150565b60405180910390f35b61063f600480360381019061063a91906134ee565b61185a565b005b61065b600480360381019061065691906138ae565b611952565b005b60007f780e9d63000000000000000000000000000000000000000000000000000000007bffffffffffffffffffffffffffffffffffffffffffffffffffffffff1916827bffffffffffffffffffffffffffffffffffffffffffffffffffffffff191614806106d057506106cf826119ef565b5b9050919050565b6060600080546106e69061394c565b80601f01602080910402602001604051908101604052809291908181526020018280546107129061394c565b801561075f5780601f106107345761010080835404028352916020019161075f565b820191906000526020600020905b81548152906001019060200180831161074257829003601f168201915b5050505050905090565b600061077482611ad1565b6107b3576040517f08c379a00000000000000000000000000000000000000000000000000000000081526004016107aa906139f0565b60405180910390fd5b6004600083815260200190815260200160002060009054906101000a900473ffffffffffffffffffffffffffffffffffffffff169050919050565b60006107f982610e31565b90508073ffffffffffffffffffffffffffffffffffffffff168373ffffffffffffffffffffffffffffffffffffffff16141561086a576040517f08c379a000000000000000000000000000000000000000000000000000000000815260040161086190613a82565b60405180910390fd5b8073ffffffffffffffffffffffffffffffffffffffff16610889611b3d565b73ffffffffffffffffffffffffffffffffffffffff1614806108b857506108b7816108b2611b3d565b6115d8565b5b6108f7576040517f08c379a00000000000000000000000000000000000000000000000000000000081526004016108ee90613b14565b60405180910390fd5b6109018383611b45565b505050565b6000600880549050905090565b61092461091e611b3d565b82611bfe565b610963576040517f08c379a000000000000000000000000000000000000000000000000000000000815260040161095a90613ba6565b60405180910390fd5b61096e838383611cdc565b505050565b600061097e83610ee3565b82106109bf576040517f08c379a00000000000000000000000000000000000000000000000000000000081526004016109b690613c38565b60405180910390fd5b600660008473ffffffffffffffffffffffffffffffffffffffff1673ffffffffffffffffffffffffffffffffffffffff168152602001908152602001600020600083815260200190815260200160002054905092915050565b600e83604051610a289190613c94565b908152602001604051809103902060009054906101000a900460ff1615610a84576040517f08c379a0000000000000000000000000000000000000000000000000000000008152600401610a7b90613cf7565b60405180910390fd5b6000610a8e610906565b9050610aa685600183610aa19190613d46565b611f38565b6040518060800160405280600183610abe9190613d46565b815260200185815260200183815260200184815250600d6000838152602001908152602001600020600082015181600001556020820151816001019080519060200190610b0c929190612eb8565b506040820151816002019080519060200190610b29929190612eb8565b5060608201518160030155905050600d6000828152602001908152602001600020600c6000600184610b5b9190613d46565b8152602001908152602001600020600082015481600001556001820181600101908054610b879061394c565b610b92929190612f3e565b506002820181600201908054610ba79061394c565b610bb2929190612f3e565b5060038201548160030155905050600d6000828152602001908152602001600020600b85604051610be39190613c94565b9081526020016040518091039020600082015481600001556001820181600101908054610c0f9061394c565b610c1a929190612f3e565b506002820181600201908054610c2f9061394c565b610c3a929190612f3e565b50600382015481600301559050506001600f85604051610c5a9190613c94565b908152602001604051809103902060006101000a81548160ff0219169083151502179055506000600e85604051610c919190613c94565b908152602001604051809103902060006101000a81548160ff0219169083151502179055505050505050565b610cd8838383604051806020016040528060008152506112ca565b505050565b60606000610cea83610ee3565b905060008167ffffffffffffffff811115610d0857610d07613324565b5b604051908082528060200260200182016040528015610d365781602001602082028036833780820191505090505b50905060005b82811015610d8057610d4e8582610973565b828281518110610d6157610d60613d9c565b5b6020026020010181815250508080610d7890613dcb565b915050610d3c565b508092505050919050565b6000610d95610906565b8210610dd6576040517f08c379a0000000000000000000000000000000000000000000000000000000008152600401610dcd90613e86565b60405180910390fd5b60088281548110610dea57610de9613d9c565b5b90600052602060002001549050919050565b6000600e82604051610e0e9190613c94565b908152602001604051809103902060009054906101000a900460ff169050919050565b6000806002600084815260200190815260200160002060009054906101000a900473ffffffffffffffffffffffffffffffffffffffff169050600073ffffffffffffffffffffffffffffffffffffffff168173ffffffffffffffffffffffffffffffffffffffff161415610eda576040517f08c379a0000000000000000000000000000000000000000000000000000000008152600401610ed190613f18565b60405180910390fd5b80915050919050565b60008073ffffffffffffffffffffffffffffffffffffffff168273ffffffffffffffffffffffffffffffffffffffff161415610f54576040517f08c379a0000000000000000000000000000000000000000000000000000000008152600401610f4b90613faa565b60405180910390fd5b600360008373ffffffffffffffffffffffffffffffffffffffff1673ffffffffffffffffffffffffffffffffffffffff168152602001908152602001600020549050919050565b610fa3611b3d565b73ffffffffffffffffffffffffffffffffffffffff16610fc1611023565b73ffffffffffffffffffffffffffffffffffffffff1614611017576040517f08c379a000000000000000000000000000000000000000000000000000000000815260040161100e90614016565b60405180910390fd5b6110216000611f56565b565b6000600a60009054906101000a900473ffffffffffffffffffffffffffffffffffffffff16905090565b60606001805461105c9061394c565b80601f01602080910402602001604051908101604052809291908181526020018280546110889061394c565b80156110d55780601f106110aa576101008083540402835291602001916110d5565b820191906000526020600020905b8154815290600101906020018083116110b857829003601f168201915b5050505050905090565b6001600e826040516110f19190613c94565b908152602001604051809103902060006101000a81548160ff02191690831515021790555050565b61112b611124611b3d565b838361201c565b5050565b60606000600b836040516020016111469190614082565b6040516020818303038152906040526040516111629190613c94565b9081526020016040518091039020604051806080016040529081600082015481526020016001820180546111959061394c565b80601f01602080910402602001604051908101604052809291908181526020018280546111c19061394c565b801561120e5780601f106111e35761010080835404028352916020019161120e565b820191906000526020600020905b8154815290600101906020018083116111f157829003601f168201915b505050505081526020016002820180546112279061394c565b80601f01602080910402602001604051908101604052809291908181526020018280546112539061394c565b80156112a05780601f10611275576101008083540402835291602001916112a0565b820191906000526020600020905b81548152906001019060200180831161128357829003601f168201915b5050505050815260200160038201548152505090506112c28160000151611697565b915050919050565b6112db6112d5611b3d565b83611bfe565b61131a576040517f08c379a000000000000000000000000000000000000000000000000000000000815260040161131190613ba6565b60405180910390fd5b61132684848484612189565b50505050565b60606000600b8360405160200161134391906140f0565b60405160208183030381529060405260405161135f9190613c94565b9081526020016040518091039020604051806080016040529081600082015481526020016001820180546113929061394c565b80601f01602080910402602001604051908101604052809291908181526020018280546113be9061394c565b801561140b5780601f106113e05761010080835404028352916020019161140b565b820191906000526020600020905b8154815290600101906020018083116113ee57829003601f168201915b505050505081526020016002820180546114249061394c565b80601f01602080910402602001604051908101604052809291908181526020018280546114509061394c565b801561149d5780601f106114725761010080835404028352916020019161149d565b820191906000526020600020905b81548152906001019060200180831161148057829003601f168201915b5050505050815260200160038201548152505090506114bf8160000151611697565b915050919050565b60606114d282611ad1565b611511576040517f08c379a000000000000000000000000000000000000000000000000000000000815260040161150890614184565b60405180910390fd5b600061151b6121e5565b9050600081511161153b5760405180602001604052806000815250611566565b80611545846121fc565b6040516020016115569291906141a4565b6040516020818303038152906040525b915050919050565b600061159b83600b846040516115849190613c94565b908152602001604051809103902060000154611bfe565b905092915050565b6000600f826040516115b59190613c94565b908152602001604051809103902060009054906101000a900460ff169050919050565b6000600560008473ffffffffffffffffffffffffffffffffffffffff1673ffffffffffffffffffffffffffffffffffffffff16815260200190815260200160002060008373ffffffffffffffffffffffffffffffffffffffff1673ffffffffffffffffffffffffffffffffffffffff16815260200190815260200160002060009054906101000a900460ff16905092915050565b6000600b8260405161167e9190613c94565b9081526020016040518091039020600301549050919050565b60606000600c6000848152602001908152602001600020604051806080016040529081600082015481526020016001820180546116d39061394c565b80601f01602080910402602001604051908101604052809291908181526020018280546116ff9061394c565b801561174c5780601f106117215761010080835404028352916020019161174c565b820191906000526020600020905b81548152906001019060200180831161172f57829003601f168201915b505050505081526020016002820180546117659061394c565b80601f01602080910402602001604051908101604052809291908181526020018280546117919061394c565b80156117de5780601f106117b3576101008083540402835291602001916117de565b820191906000526020600020905b8154815290600101906020018083116117c157829003601f168201915b5050505050815260200160038201548152505090506118338160400151826020015161180d846060015161235d565b60405160200161181f939291906142f8565b6040516020818303038152906040526124e6565b60405160200161184391906143a1565b604051602081830303815290604052915050919050565b611862611b3d565b73ffffffffffffffffffffffffffffffffffffffff16611880611023565b73ffffffffffffffffffffffffffffffffffffffff16146118d6576040517f08c379a00000000000000000000000000000000000000000000000000000000081526004016118cd90614016565b60405180910390fd5b600073ffffffffffffffffffffffffffffffffffffffff168173ffffffffffffffffffffffffffffffffffffffff161415611946576040517f08c379a000000000000000000000000000000000000000000000000000000000815260040161193d90614435565b60405180910390fd5b61194f81611f56565b50565b61195c838261156e565b8160405160200161196d91906144a1565b604051602081830303815290604052906119bd576040517f08c379a00000000000000000000000000000000000000000000000000000000081526004016119b49190613150565b60405180910390fd5b506119ea8383600b846040516119d39190613c94565b908152602001604051809103902060000154611cdc565b505050565b60007f80ac58cd000000000000000000000000000000000000000000000000000000007bffffffffffffffffffffffffffffffffffffffffffffffffffffffff1916827bffffffffffffffffffffffffffffffffffffffffffffffffffffffff19161480611aba57507f5b5e139f000000000000000000000000000000000000000000000000000000007bffffffffffffffffffffffffffffffffffffffffffffffffffffffff1916827bffffffffffffffffffffffffffffffffffffffffffffffffffffffff1916145b80611aca5750611ac98261266b565b5b9050919050565b60008073ffffffffffffffffffffffffffffffffffffffff166002600084815260200190815260200160002060009054906101000a900473ffffffffffffffffffffffffffffffffffffffff1673ffffffffffffffffffffffffffffffffffffffff1614159050919050565b600033905090565b816004600083815260200190815260200160002060006101000a81548173ffffffffffffffffffffffffffffffffffffffff021916908373ffffffffffffffffffffffffffffffffffffffff160217905550808273ffffffffffffffffffffffffffffffffffffffff16611bb883610e31565b73ffffffffffffffffffffffffffffffffffffffff167f8c5be1e5ebec7d5bd14f71427d1e84f3dd0314c0f7b2291e5b200ac8c7c3b92560405160405180910390a45050565b6000611c0982611ad1565b611c48576040517f08c379a0000000000000000000000000000000000000000000000000000000008152600401611c3f90614535565b60405180910390fd5b6000611c5383610e31565b90508073ffffffffffffffffffffffffffffffffffffffff168473ffffffffffffffffffffffffffffffffffffffff161480611cc257508373ffffffffffffffffffffffffffffffffffffffff16611caa84610769565b73ffffffffffffffffffffffffffffffffffffffff16145b80611cd35750611cd281856115d8565b5b91505092915050565b8273ffffffffffffffffffffffffffffffffffffffff16611cfc82610e31565b73ffffffffffffffffffffffffffffffffffffffff1614611d52576040517f08c379a0000000000000000000000000000000000000000000000000000000008152600401611d49906145c7565b60405180910390fd5b600073ffffffffffffffffffffffffffffffffffffffff168273ffffffffffffffffffffffffffffffffffffffff161415611dc2576040517f08c379a0000000000000000000000000000000000000000000000000000000008152600401611db990614659565b60405180910390fd5b611dcd8383836126d5565b611dd8600082611b45565b6001600360008573ffffffffffffffffffffffffffffffffffffffff1673ffffffffffffffffffffffffffffffffffffffff1681526020019081526020016000206000828254611e289190614679565b925050819055506001600360008473ffffffffffffffffffffffffffffffffffffffff1673ffffffffffffffffffffffffffffffffffffffff1681526020019081526020016000206000828254611e7f9190613d46565b92505081905550816002600083815260200190815260200160002060006101000a81548173ffffffffffffffffffffffffffffffffffffffff021916908373ffffffffffffffffffffffffffffffffffffffff160217905550808273ffffffffffffffffffffffffffffffffffffffff168473ffffffffffffffffffffffffffffffffffffffff167fddf252ad1be2c89b69c2b068fc378daa952ba7f163c4a11628f55a4df523b3ef60405160405180910390a4505050565b611f528282604051806020016040528060008152506127e9565b5050565b6000600a60009054906101000a900473ffffffffffffffffffffffffffffffffffffffff16905081600a60006101000a81548173ffffffffffffffffffffffffffffffffffffffff021916908373ffffffffffffffffffffffffffffffffffffffff1602179055508173ffffffffffffffffffffffffffffffffffffffff168173ffffffffffffffffffffffffffffffffffffffff167f8be0079c531659141344cd1fd0a4f28419497f9722a3daafe3b4186f6b6457e060405160405180910390a35050565b8173ffffffffffffffffffffffffffffffffffffffff168373ffffffffffffffffffffffffffffffffffffffff16141561208b576040517f08c379a0000000000000000000000000000000000000000000000000000000008152600401612082906146f9565b60405180910390fd5b80600560008573ffffffffffffffffffffffffffffffffffffffff1673ffffffffffffffffffffffffffffffffffffffff16815260200190815260200160002060008473ffffffffffffffffffffffffffffffffffffffff1673ffffffffffffffffffffffffffffffffffffffff16815260200190815260200160002060006101000a81548160ff0219169083151502179055508173ffffffffffffffffffffffffffffffffffffffff168373ffffffffffffffffffffffffffffffffffffffff167f17307eab39ab6107e8899845ad3d59bd9653f200f220920489ca2b5937696c318360405161217c919061309c565b60405180910390a3505050565b612194848484611cdc565b6121a084848484612844565b6121df576040517f08c379a00000000000000000000000000000000000000000000000000000000081526004016121d69061478b565b60405180910390fd5b50505050565b606060405180602001604052806000815250905090565b60606000821415612244576040518060400160405280600181526020017f30000000000000000000000000000000000000000000000000000000000000008152509050612358565b600082905060005b6000821461227657808061225f90613dcb565b915050600a8261226f91906147da565b915061224c565b60008167ffffffffffffffff81111561229257612291613324565b5b6040519080825280601f01601f1916602001820160405280156122c45781602001600182028036833780820191505090505b5090505b60008514612351576001826122dd9190614679565b9150600a856122ec919061480b565b60306122f89190613d46565b60f81b81838151811061230e5761230d613d9c565b5b60200101907effffffffffffffffffffffffffffffffffffffffffffffffffffffffffffff1916908160001a905350600a8561234a91906147da565b94506122c8565b8093505050505b919050565b606060008214156123a5576040518060400160405280600181526020017f300000000000000000000000000000000000000000000000000000000000000081525090506124e1565b600082905060005b600082146123d75780806123c090613dcb565b915050600a826123d091906147da565b91506123ad565b60008167ffffffffffffffff8111156123f3576123f2613324565b5b6040519080825280601f01601f1916602001820160405280156124255781602001600182028036833780820191505090505b50905060008290505b600086146124d9576001816124439190614679565b90506000600a808861245591906147da565b61245f919061483c565b8761246a9190614679565b603061247691906148a3565b905060008160f81b90508084848151811061249457612493613d9c565b5b60200101907effffffffffffffffffffffffffffffffffffffffffffffffffffffffffffff1916908160001a905350600a886124d091906147da565b9750505061242e565b819450505050505b919050565b606060008251141561250957604051806020016040528060008152509050612666565b6000604051806060016040528060408152602001614ac560409139905060006003600285516125389190613d46565b61254291906147da565b600461254e919061483c565b9050600060208261255f9190613d46565b67ffffffffffffffff81111561257857612577613324565b5b6040519080825280601f01601f1916602001820160405280156125aa5781602001600182028036833780820191505090505b509050818152600183018586518101602084015b81831015612625576003830192508251603f8160121c1685015160f81b8252600182019150603f81600c1c1685015160f81b8252600182019150603f8160061c1685015160f81b8252600182019150603f811685015160f81b8252600182019150506125be565b60038951066001811461263f576002811461264f5761265a565b613d3d60f01b600283035261265a565b603d60f81b60018303525b50505050508093505050505b919050565b60007f01ffc9a7000000000000000000000000000000000000000000000000000000007bffffffffffffffffffffffffffffffffffffffffffffffffffffffff1916827bffffffffffffffffffffffffffffffffffffffffffffffffffffffff1916149050919050565b6126e08383836129cc565b600073ffffffffffffffffffffffffffffffffffffffff168373ffffffffffffffffffffffffffffffffffffffff1614156127235761271e816129d1565b612762565b8173ffffffffffffffffffffffffffffffffffffffff168373ffffffffffffffffffffffffffffffffffffffff1614612761576127608382612a1a565b5b5b600073ffffffffffffffffffffffffffffffffffffffff168273ffffffffffffffffffffffffffffffffffffffff1614156127a5576127a081612b87565b6127e4565b8273ffffffffffffffffffffffffffffffffffffffff168273ffffffffffffffffffffffffffffffffffffffff16146127e3576127e28282612c58565b5b5b505050565b6127f38383612cd7565b6128006000848484612844565b61283f576040517f08c379a00000000000000000000000000000000000000000000000000000000081526004016128369061478b565b60405180910390fd5b505050565b60006128658473ffffffffffffffffffffffffffffffffffffffff16612ea5565b156129bf578373ffffffffffffffffffffffffffffffffffffffff1663150b7a0261288e611b3d565b8786866040518563ffffffff1660e01b81526004016128b0949392919061492f565b6020604051808303816000875af19250505080156128ec57506040513d601f19601f820116820180604052508101906128e99190614990565b60015b61296f573d806000811461291c576040519150601f19603f3d011682016040523d82523d6000602084013e612921565b606091505b50600081511415612967576040517f08c379a000000000000000000000000000000000000000000000000000000000815260040161295e9061478b565b60405180910390fd5b805181602001fd5b63150b7a0260e01b7bffffffffffffffffffffffffffffffffffffffffffffffffffffffff1916817bffffffffffffffffffffffffffffffffffffffffffffffffffffffff1916149150506129c4565b600190505b949350505050565b505050565b6008805490506009600083815260200190815260200160002081905550600881908060018154018082558091505060019003906000526020600020016000909190919091505550565b60006001612a2784610ee3565b612a319190614679565b9050600060076000848152602001908152602001600020549050818114612b16576000600660008673ffffffffffffffffffffffffffffffffffffffff1673ffffffffffffffffffffffffffffffffffffffff168152602001908152602001600020600084815260200190815260200160002054905080600660008773ffffffffffffffffffffffffffffffffffffffff1673ffffffffffffffffffffffffffffffffffffffff168152602001908152602001600020600084815260200190815260200160002081905550816007600083815260200190815260200160002081905550505b6007600084815260200190815260200160002060009055600660008573ffffffffffffffffffffffffffffffffffffffff1673ffffffffffffffffffffffffffffffffffffffff16815260200190815260200160002060008381526020019081526020016000206000905550505050565b60006001600880549050612b9b9190614679565b9050600060096000848152602001908152602001600020549050600060088381548110612bcb57612bca613d9c565b5b906000526020600020015490508060088381548110612bed57612bec613d9c565b5b906000526020600020018190555081600960008381526020019081526020016000208190555060096000858152602001908152602001600020600090556008805480612c3c57612c3b6149bd565b5b6001900381819060005260206000200160009055905550505050565b6000612c6383610ee3565b905081600660008573ffffffffffffffffffffffffffffffffffffffff1673ffffffffffffffffffffffffffffffffffffffff168152602001908152602001600020600083815260200190815260200160002081905550806007600084815260200190815260200160002081905550505050565b600073ffffffffffffffffffffffffffffffffffffffff168273ffffffffffffffffffffffffffffffffffffffff161415612d47576040517f08c379a0000000000000000000000000000000000000000000000000000000008152600401612d3e90614a38565b60405180910390fd5b612d5081611ad1565b15612d90576040517f08c379a0000000000000000000000000000000000000000000000000000000008152600401612d8790614aa4565b60405180910390fd5b612d9c600083836126d5565b6001600360008473ffffffffffffffffffffffffffffffffffffffff1673ffffffffffffffffffffffffffffffffffffffff1681526020019081526020016000206000828254612dec9190613d46565b92505081905550816002600083815260200190815260200160002060006101000a81548173ffffffffffffffffffffffffffffffffffffffff021916908373ffffffffffffffffffffffffffffffffffffffff160217905550808273ffffffffffffffffffffffffffffffffffffffff16600073ffffffffffffffffffffffffffffffffffffffff167fddf252ad1be2c89b69c2b068fc378daa952ba7f163c4a11628f55a4df523b3ef60405160405180910390a45050565b600080823b905060008111915050919050565b828054612ec49061394c565b90600052602060002090601f016020900481019282612ee65760008555612f2d565b82601f10612eff57805160ff1916838001178555612f2d565b82800160010185558215612f2d579182015b82811115612f2c578251825591602001919060010190612f11565b5b509050612f3a9190612fcb565b5090565b828054612f4a9061394c565b90600052602060002090601f016020900481019282612f6c5760008555612fba565b82601f10612f7d5780548555612fba565b82800160010185558215612fba57600052602060002091601f016020900482015b82811115612fb9578254825591600101919060010190612f9e565b5b509050612fc79190612fcb565b5090565b5b80821115612fe4576000816000905550600101612fcc565b5090565b6000604051905090565b600080fd5b600080fd5b60007fffffffff0000000000000000000000000000000000000000000000000000000082169050919050565b61303181612ffc565b811461303c57600080fd5b50565b60008135905061304e81613028565b92915050565b60006020828403121561306a57613069612ff2565b5b60006130788482850161303f565b91505092915050565b60008115159050919050565b61309681613081565b82525050565b60006020820190506130b1600083018461308d565b92915050565b600081519050919050565b600082825260208201905092915050565b60005b838110156130f15780820151818401526020810190506130d6565b83811115613100576000848401525b50505050565b6000601f19601f8301169050919050565b6000613122826130b7565b61312c81856130c2565b935061313c8185602086016130d3565b61314581613106565b840191505092915050565b6000602082019050818103600083015261316a8184613117565b905092915050565b6000819050919050565b61318581613172565b811461319057600080fd5b50565b6000813590506131a28161317c565b92915050565b6000602082840312156131be576131bd612ff2565b5b60006131cc84828501613193565b91505092915050565b600073ffffffffffffffffffffffffffffffffffffffff82169050919050565b6000613200826131d5565b9050919050565b613210816131f5565b82525050565b600060208201905061322b6000830184613207565b92915050565b61323a816131f5565b811461324557600080fd5b50565b60008135905061325781613231565b92915050565b6000806040838503121561327457613273612ff2565b5b600061328285828601613248565b925050602061329385828601613193565b9150509250929050565b6132a681613172565b82525050565b60006020820190506132c1600083018461329d565b92915050565b6000806000606084860312156132e0576132df612ff2565b5b60006132ee86828701613248565b93505060206132ff86828701613248565b925050604061331086828701613193565b9150509250925092565b600080fd5b600080fd5b7f4e487b7100000000000000000000000000000000000000000000000000000000600052604160045260246000fd5b61335c82613106565b810181811067ffffffffffffffff8211171561337b5761337a613324565b5b80604052505050565b600061338e612fe8565b905061339a8282613353565b919050565b600067ffffffffffffffff8211156133ba576133b9613324565b5b6133c382613106565b9050602081019050919050565b82818337600083830152505050565b60006133f26133ed8461339f565b613384565b90508281526020810184848401111561340e5761340d61331f565b5b6134198482856133d0565b509392505050565b600082601f8301126134365761343561331a565b5b81356134468482602086016133df565b91505092915050565b6000806000806080858703121561346957613468612ff2565b5b600061347787828801613248565b945050602085013567ffffffffffffffff81111561349857613497612ff7565b5b6134a487828801613421565b93505060406134b587828801613193565b925050606085013567ffffffffffffffff8111156134d6576134d5612ff7565b5b6134e287828801613421565b91505092959194509250565b60006020828403121561350457613503612ff2565b5b600061351284828501613248565b91505092915050565b600081519050919050565b600082825260208201905092915050565b6000819050602082019050919050565b61355081613172565b82525050565b60006135628383613547565b60208301905092915050565b6000602082019050919050565b60006135868261351b565b6135908185613526565b935061359b83613537565b8060005b838110156135cc5781516135b38882613556565b97506135be8361356e565b92505060018101905061359f565b5085935050505092915050565b600060208201905081810360008301526135f3818461357b565b905092915050565b60006020828403121561361157613610612ff2565b5b600082013567ffffffffffffffff81111561362f5761362e612ff7565b5b61363b84828501613421565b91505092915050565b61364d81613081565b811461365857600080fd5b50565b60008135905061366a81613644565b92915050565b6000806040838503121561368757613686612ff2565b5b600061369585828601613248565b92505060206136a68582860161365b565b9150509250929050565b600067ffffffffffffffff8211156136cb576136ca613324565b5b6136d482613106565b9050602081019050919050565b60006136f46136ef846136b0565b613384565b9050828152602081018484840111156137105761370f61331f565b5b61371b8482856133d0565b509392505050565b600082601f8301126137385761373761331a565b5b81356137488482602086016136e1565b91505092915050565b6000806000806080858703121561376b5761376a612ff2565b5b600061377987828801613248565b945050602061378a87828801613248565b935050604061379b87828801613193565b925050606085013567ffffffffffffffff8111156137bc576137bb612ff7565b5b6137c887828801613723565b91505092959194509250565b600080604083850312156137eb576137ea612ff2565b5b60006137f985828601613248565b925050602083013567ffffffffffffffff81111561381a57613819612ff7565b5b61382685828601613421565b9150509250929050565b6000806040838503121561384757613846612ff2565b5b600061385585828601613248565b925050602061386685828601613248565b9150509250929050565b600061387b826131d5565b9050919050565b61388b81613870565b811461389657600080fd5b50565b6000813590506138a881613882565b92915050565b6000806000606084860312156138c7576138c6612ff2565b5b60006138d586828701613899565b93505060206138e686828701613899565b925050604084013567ffffffffffffffff81111561390757613906612ff7565b5b61391386828701613421565b9150509250925092565b7f4e487b7100000000000000000000000000000000000000000000000000000000600052602260045260246000fd5b6000600282049050600182168061396457607f821691505b602082108114156139785761397761391d565b5b50919050565b7f4552433732313a20617070726f76656420717565727920666f72206e6f6e657860008201527f697374656e7420746f6b656e0000000000000000000000000000000000000000602082015250565b60006139da602c836130c2565b91506139e58261397e565b604082019050919050565b60006020820190508181036000830152613a09816139cd565b9050919050565b7f4552433732313a20617070726f76616c20746f2063757272656e74206f776e6560008201527f7200000000000000000000000000000000000000000000000000000000000000602082015250565b6000613a6c6021836130c2565b9150613a7782613a10565b604082019050919050565b60006020820190508181036000830152613a9b81613a5f565b9050919050565b7f4552433732313a20617070726f76652063616c6c6572206973206e6f74206f7760008201527f6e6572206e6f7220617070726f76656420666f7220616c6c0000000000000000602082015250565b6000613afe6038836130c2565b9150613b0982613aa2565b604082019050919050565b60006020820190508181036000830152613b2d81613af1565b9050919050565b7f4552433732313a207472616e736665722063616c6c6572206973206e6f74206f60008201527f776e6572206e6f7220617070726f766564000000000000000000000000000000602082015250565b6000613b906031836130c2565b9150613b9b82613b34565b604082019050919050565b60006020820190508181036000830152613bbf81613b83565b9050919050565b7f455243373231456e756d657261626c653a206f776e657220696e646578206f7560008201527f74206f6620626f756e6473000000000000000000000000000000000000000000602082015250565b6000613c22602b836130c2565b9150613c2d82613bc6565b604082019050919050565b60006020820190508181036000830152613c5181613c15565b9050919050565b600081905092915050565b6000613c6e826130b7565b613c788185613c58565b9350613c888185602086016130d3565b80840191505092915050565b6000613ca08284613c63565b915081905092915050565b7f4c6f74746f2067696127207574696c697a7a61746f2100000000000000000000600082015250565b6000613ce16016836130c2565b9150613cec82613cab565b602082019050919050565b60006020820190508181036000830152613d1081613cd4565b9050919050565b7f4e487b7100000000000000000000000000000000000000000000000000000000600052601160045260246000fd5b6000613d5182613172565b9150613d5c83613172565b9250827fffffffffffffffffffffffffffffffffffffffffffffffffffffffffffffffff03821115613d9157613d90613d17565b5b828201905092915050565b7f4e487b7100000000000000000000000000000000000000000000000000000000600052603260045260246000fd5b6000613dd682613172565b91507fffffffffffffffffffffffffffffffffffffffffffffffffffffffffffffffff821415613e0957613e08613d17565b5b600182019050919050565b7f455243373231456e756d657261626c653a20676c6f62616c20696e646578206f60008201527f7574206f6620626f756e64730000000000000000000000000000000000000000602082015250565b6000613e70602c836130c2565b9150613e7b82613e14565b604082019050919050565b60006020820190508181036000830152613e9f81613e63565b9050919050565b7f4552433732313a206f776e657220717565727920666f72206e6f6e657869737460008201527f656e7420746f6b656e0000000000000000000000000000000000000000000000602082015250565b6000613f026029836130c2565b9150613f0d82613ea6565b604082019050919050565b60006020820190508181036000830152613f3181613ef5565b9050919050565b7f4552433732313a2062616c616e636520717565727920666f7220746865207a6560008201527f726f206164647265737300000000000000000000000000000000000000000000602082015250565b6000613f94602a836130c2565b9150613f9f82613f38565b604082019050919050565b60006020820190508181036000830152613fc381613f87565b9050919050565b7f4f776e61626c653a2063616c6c6572206973206e6f7420746865206f776e6572600082015250565b60006140006020836130c2565b915061400b82613fca565b602082019050919050565b6000602082019050818103600083015261402f81613ff3565b9050919050565b7f505f000000000000000000000000000000000000000000000000000000000000600082015250565b600061406c600283613c58565b915061407782614036565b600282019050919050565b600061408d8261405f565b91506140998284613c63565b915081905092915050565b7f4d505f0000000000000000000000000000000000000000000000000000000000600082015250565b60006140da600383613c58565b91506140e5826140a4565b600382019050919050565b60006140fb826140cd565b91506141078284613c63565b915081905092915050565b7f4552433732314d657461646174613a2055524920717565727920666f72206e6f60008201527f6e6578697374656e7420746f6b656e0000000000000000000000000000000000602082015250565b600061416e602f836130c2565b915061417982614112565b604082019050919050565b6000602082019050818103600083015261419d81614161565b9050919050565b60006141b08285613c63565b91506141bc8284613c63565b91508190509392505050565b7f7b226e616d65223a220000000000000000000000000000000000000000000000600082015250565b60006141fe600983613c58565b9150614209826141c8565b600982019050919050565b7f222c226c6f74746f223a22000000000000000000000000000000000000000000600082015250565b600061424a600b83613c58565b915061425582614214565b600b82019050919050565b7f222c22666f6f747072696e74223a000000000000000000000000000000000000600082015250565b6000614296600e83613c58565b91506142a182614260565b600e82019050919050565b7f7d00000000000000000000000000000000000000000000000000000000000000600082015250565b60006142e2600183613c58565b91506142ed826142ac565b600182019050919050565b6000614303826141f1565b915061430f8286613c63565b915061431a8261423d565b91506143268285613c63565b915061433182614289565b915061433d8284613c63565b9150614348826142d5565b9150819050949350505050565b7f646174613a6170706c69636174696f6e2f6a736f6e3b6261736536342c000000600082015250565b600061438b601d83613c58565b915061439682614355565b601d82019050919050565b60006143ac8261437e565b91506143b88284613c63565b915081905092915050565b7f4f776e61626c653a206e6577206f776e657220697320746865207a65726f206160008201527f6464726573730000000000000000000000000000000000000000000000000000602082015250565b600061441f6026836130c2565b915061442a826143c3565b604082019050919050565b6000602082019050818103600083015261444e81614412565b9050919050565b7f4e6f6e207365692070726f70726965746172696f2064656c206c6f74746f2000600082015250565b600061448b601f83613c58565b915061449682614455565b601f82019050919050565b60006144ac8261447e565b91506144b88284613c63565b915081905092915050565b7f4552433732313a206f70657261746f7220717565727920666f72206e6f6e657860008201527f697374656e7420746f6b656e0000000000000000000000000000000000000000602082015250565b600061451f602c836130c2565b915061452a826144c3565b604082019050919050565b6000602082019050818103600083015261454e81614512565b9050919050565b7f4552433732313a207472616e73666572206f6620746f6b656e2074686174206960008201527f73206e6f74206f776e0000000000000000000000000000000000000000000000602082015250565b60006145b16029836130c2565b91506145bc82614555565b604082019050919050565b600060208201905081810360008301526145e0816145a4565b9050919050565b7f4552433732313a207472616e7366657220746f20746865207a65726f2061646460008201527f7265737300000000000000000000000000000000000000000000000000000000602082015250565b60006146436024836130c2565b915061464e826145e7565b604082019050919050565b6000602082019050818103600083015261467281614636565b9050919050565b600061468482613172565b915061468f83613172565b9250828210156146a2576146a1613d17565b5b828203905092915050565b7f4552433732313a20617070726f766520746f2063616c6c657200000000000000600082015250565b60006146e36019836130c2565b91506146ee826146ad565b602082019050919050565b60006020820190508181036000830152614712816146d6565b9050919050565b7f4552433732313a207472616e7366657220746f206e6f6e20455243373231526560008201527f63656976657220696d706c656d656e7465720000000000000000000000000000602082015250565b60006147756032836130c2565b915061478082614719565b604082019050919050565b600060208201905081810360008301526147a481614768565b9050919050565b7f4e487b7100000000000000000000000000000000000000000000000000000000600052601260045260246000fd5b60006147e582613172565b91506147f083613172565b925082614800576147ff6147ab565b5b828204905092915050565b600061481682613172565b915061482183613172565b925082614831576148306147ab565b5b828206905092915050565b600061484782613172565b915061485283613172565b9250817fffffffffffffffffffffffffffffffffffffffffffffffffffffffffffffffff048311821515161561488b5761488a613d17565b5b828202905092915050565b600060ff82169050919050565b60006148ae82614896565b91506148b983614896565b92508260ff038211156148cf576148ce613d17565b5b828201905092915050565b600081519050919050565b600082825260208201905092915050565b6000614901826148da565b61490b81856148e5565b935061491b8185602086016130d3565b61492481613106565b840191505092915050565b60006080820190506149446000830187613207565b6149516020830186613207565b61495e604083018561329d565b818103606083015261497081846148f6565b905095945050505050565b60008151905061498a81613028565b92915050565b6000602082840312156149a6576149a5612ff2565b5b60006149b48482850161497b565b91505092915050565b7f4e487b7100000000000000000000000000000000000000000000000000000000600052603160045260246000fd5b7f4552433732313a206d696e7420746f20746865207a65726f2061646472657373600082015250565b6000614a226020836130c2565b9150614a2d826149ec565b602082019050919050565b60006020820190508181036000830152614a5181614a15565b9050919050565b7f4552433732313a20746f6b656e20616c7265616479206d696e74656400000000600082015250565b6000614a8e601c836130c2565b9150614a9982614a58565b602082019050919050565b60006020820190508181036000830152614abd81614a81565b905091905056fe4142434445464748494a4b4c4d4e4f505152535455565758595a6162636465666768696a6b6c6d6e6f707172737475767778797a303132333435363738392b2fa264697066735822122073d92db5355555351b8cf9d6892a2da3b1c0ae3d2bbfc9658faa3050df74a01c64736f6c634300080b0033",
  "immutableReferences": {},
  "source": "// SPDX-License-Identifier: GPL-3.0\r\n\r\n// Created by HashLips\r\n// The Nerdy Coder Clones\r\n\r\npragma solidity ^0.8.0;\r\n\r\nimport \"@openzeppelin/contracts/token/ERC721/extensions/ERC721Enumerable.sol\";\r\nimport \"@openzeppelin/contracts/access/Ownable.sol\";\r\nimport \"./Base64.sol\";\r\n\r\ncontract CarbonFootprint is ERC721Enumerable, Ownable {\r\n  using Strings for uint256;\r\n\r\n  struct Risorsa{\r\n    uint idToken;\r\n    string lotto;\r\n    string nome;\r\n    uint footprint;\r\n  }\r\n\r\n  mapping(string=>Risorsa) getRisorsaByLotto; //mapping del prodotto in base al lotto\r\n  mapping(uint=>Risorsa) getRisorsaByTokenId;\r\n  mapping(uint=>Risorsa) listaRisorse;\r\n  mapping(string => bool) private risorsaUtilizzata;\r\n  mapping(string => bool) private risorsaExists;\r\n\r\n  constructor(\r\n    string memory _name,\r\n    string memory _symbol\r\n  ) ERC721(_name, _symbol) {\r\n  }\r\n\r\n\r\n  //metodo utilizzato per mintare l'nft\r\n  function mint(address _to, string memory _lotto, uint _footprint, string memory _nome) public  {\r\n    require(!risorsaUtilizzata[_lotto],\"Lotto gia' utilizzato!\");\r\n    uint256 supply = totalSupply();\r\n    _safeMint(_to, supply+1);\r\n    listaRisorse[supply] = Risorsa({\r\n       idToken: supply+1,\r\n       lotto: _lotto,\r\n       nome: _nome,\r\n       footprint: _footprint\r\n    });\r\n    getRisorsaByTokenId[supply+1] = listaRisorse[supply]; \r\n    getRisorsaByLotto[_lotto] = listaRisorse[supply];\r\n    risorsaExists[_lotto] = true;\r\n    risorsaUtilizzata[_lotto] = false;\r\n  }\r\n\r\n  //funzione che permette di indicare l'utilizzo della risorsa\r\n  function setRisorsaUtilizzata(string memory _lotto) public  {\r\n    risorsaUtilizzata[_lotto] = true;\r\n  }\r\n\r\n  //restituisce true se la risorsa  gi stata utilizzata\r\n  function getRisorsaUtilizzata(string memory _lotto) public view returns (bool){\r\n    return risorsaUtilizzata[_lotto];\r\n  }\r\n\r\n  //restituisce i token posseduti dall'account\r\n  function walletOfOwner(address _owner)\r\n    public\r\n    view\r\n    returns (uint256[] memory)\r\n  {\r\n    uint256 ownerTokenCount = balanceOf(_owner);\r\n    uint256[] memory tokenIds = new uint256[](ownerTokenCount);\r\n    for (uint256 i; i < ownerTokenCount; i++) {\r\n      tokenIds[i] = tokenOfOwnerByIndex(_owner, i);\r\n    }\r\n    return tokenIds;\r\n  }\r\n   \r\n   //funzione per comprare la materia prima\r\n   function trasferisciNft(address payable _fornitore, address payable _produttore, string memory lotto) public{\r\n\r\n      require(isOwner(_fornitore,lotto),string(abi.encodePacked(\"Non sei proprietario del lotto \",lotto)));\r\n\r\n      _transfer(_fornitore, _produttore,getRisorsaByLotto[lotto].idToken);\r\n      \r\n    \r\n   }\r\n\r\n   //verifica se il lotto appartiene all'account\r\n   function isOwner(address _account, string memory lotto) public view returns(bool){\r\n      return _isApprovedOrOwner(_account,getRisorsaByLotto[lotto].idToken);\r\n   }\r\n  \r\n   //codifica dei dati della risorsa in base 64\r\n   function buildMetadata(uint256 _tokenId) public view returns(string memory) {\r\n      Risorsa memory risorsa = getRisorsaByTokenId[_tokenId];\r\n      return string(abi.encodePacked(\r\n              'data:application/json;base64,', Base64.encode(bytes(abi.encodePacked(\r\n                          '{\"name\":\"', \r\n                          risorsa.nome,\r\n                          '\",\"lotto\":\"', \r\n                          risorsa.lotto,\r\n                          '\",\"footprint\":', \r\n                          uint2str(risorsa.footprint),'}')))));\r\n                          \r\n  }\r\n  \r\n  //verifica dell'esistenza del lotto\r\n  function existsLotto(string memory _lotto) public view returns (bool){\r\n    return risorsaExists[_lotto];\r\n  }\r\n\r\n  //cerca la materia prima in base al lotto\r\n  function searchMateriaPrimaByLotto(string memory lotto) public view returns(string memory) {\r\n      Risorsa memory risorsa = getRisorsaByLotto[string(abi.encodePacked(\"MP_\",lotto))];\r\n      return buildMetadata(risorsa.idToken);\r\n  }\r\n\r\n  //cerca il prodotto tramite il numero di lotto\r\n  function searchProdottoByLotto(string memory lotto) public view returns(string memory) {\r\n        Risorsa memory risorsa = getRisorsaByLotto[string(abi.encodePacked(\"P_\",lotto))];\r\n        return buildMetadata(risorsa.idToken);\r\n    }\r\n\r\n  //cerca il footprint tramite il numero di lotto\r\n  function getFootPrintByLotto(string memory lotto) public view returns (uint256){\r\n        return getRisorsaByLotto[lotto].footprint; \r\n   }\r\n\r\n  //conversione da intero a stringa\r\n  function uint2str(uint _i) internal pure returns (string memory _uintAsString) {\r\n        if (_i == 0) {\r\n            return \"0\";\r\n        }\r\n        uint j = _i;\r\n        uint len;\r\n        while (j != 0) {\r\n            len++;\r\n            j /= 10;\r\n        }\r\n        bytes memory bstr = new bytes(len);\r\n        uint k = len;\r\n        while (_i != 0) {\r\n            k = k-1;\r\n            uint8 temp = (48 + uint8(_i - _i / 10 * 10));\r\n            bytes1 b1 = bytes1(temp);\r\n            bstr[k] = b1;\r\n            _i /= 10;\r\n        }\r\n        return string(bstr);\r\n    }\r\n\r\n\r\n}",
  "sourcePath": "C:\\Users\\sam\\Desktop\\Progetto\\Truffle\\contracts\\CarbonFootprint.sol",
  "compiler": {
    "name": "solc",
    "version": "0.8.11+commit.d7f03943.Emscripten.clang"
  },
  "schemaVersion": "3.4.1",
  "updatedAt": "2022-02-15T16:54:12.369Z",
  "networkType": "quorum",
  "devdoc": {
    "kind": "dev",
    "methods": {
      "approve(address,uint256)": {
        "details": "See {IERC721-approve}."
      },
      "balanceOf(address)": {
        "details": "See {IERC721-balanceOf}."
      },
      "getApproved(uint256)": {
        "details": "See {IERC721-getApproved}."
      },
      "isApprovedForAll(address,address)": {
        "details": "See {IERC721-isApprovedForAll}."
      },
      "name()": {
        "details": "See {IERC721Metadata-name}."
      },
      "owner()": {
        "details": "Returns the address of the current owner."
      },
      "ownerOf(uint256)": {
        "details": "See {IERC721-ownerOf}."
      },
      "renounceOwnership()": {
        "details": "Leaves the contract without owner. It will not be possible to call `onlyOwner` functions anymore. Can only be called by the current owner. NOTE: Renouncing ownership will leave the contract without an owner, thereby removing any functionality that is only available to the owner."
      },
      "safeTransferFrom(address,address,uint256)": {
        "details": "See {IERC721-safeTransferFrom}."
      },
      "safeTransferFrom(address,address,uint256,bytes)": {
        "details": "See {IERC721-safeTransferFrom}."
      },
      "setApprovalForAll(address,bool)": {
        "details": "See {IERC721-setApprovalForAll}."
      },
      "supportsInterface(bytes4)": {
        "details": "See {IERC165-supportsInterface}."
      },
      "symbol()": {
        "details": "See {IERC721Metadata-symbol}."
      },
      "tokenByIndex(uint256)": {
        "details": "See {IERC721Enumerable-tokenByIndex}."
      },
      "tokenOfOwnerByIndex(address,uint256)": {
        "details": "See {IERC721Enumerable-tokenOfOwnerByIndex}."
      },
      "tokenURI(uint256)": {
        "details": "See {IERC721Metadata-tokenURI}."
      },
      "totalSupply()": {
        "details": "See {IERC721Enumerable-totalSupply}."
      },
      "transferFrom(address,address,uint256)": {
        "details": "See {IERC721-transferFrom}."
      },
      "transferOwnership(address)": {
        "details": "Transfers ownership of the contract to a new account (`newOwner`). Can only be called by the current owner."
      }
    },
    "version": 1
  },
  "userdoc": {
    "kind": "user",
    "methods": {},
    "version": 1
  }
}