{
  "contractName": "CarbonFootprint",
  "abi": [
    {
      "inputs": [
        {
          "internalType": "string",
          "name": "_name",
          "type": "string"
        },
        {
          "internalType": "string",
          "name": "_symbol",
          "type": "string"
        }
      ],
      "stateMutability": "nonpayable",
      "type": "constructor"
    },
    {
      "anonymous": false,
      "inputs": [
        {
          "indexed": true,
          "internalType": "address",
          "name": "owner",
          "type": "address"
        },
        {
          "indexed": true,
          "internalType": "address",
          "name": "approved",
          "type": "address"
        },
        {
          "indexed": true,
          "internalType": "uint256",
          "name": "tokenId",
          "type": "uint256"
        }
      ],
      "name": "Approval",
      "type": "event"
    },
    {
      "anonymous": false,
      "inputs": [
        {
          "indexed": true,
          "internalType": "address",
          "name": "owner",
          "type": "address"
        },
        {
          "indexed": true,
          "internalType": "address",
          "name": "operator",
          "type": "address"
        },
        {
          "indexed": false,
          "internalType": "bool",
          "name": "approved",
          "type": "bool"
        }
      ],
      "name": "ApprovalForAll",
      "type": "event"
    },
    {
      "anonymous": false,
      "inputs": [
        {
          "indexed": true,
          "internalType": "address",
          "name": "previousOwner",
          "type": "address"
        },
        {
          "indexed": true,
          "internalType": "address",
          "name": "newOwner",
          "type": "address"
        }
      ],
      "name": "OwnershipTransferred",
      "type": "event"
    },
    {
      "anonymous": false,
      "inputs": [
        {
          "indexed": true,
          "internalType": "address",
          "name": "from",
          "type": "address"
        },
        {
          "indexed": true,
          "internalType": "address",
          "name": "to",
          "type": "address"
        },
        {
          "indexed": true,
          "internalType": "uint256",
          "name": "tokenId",
          "type": "uint256"
        }
      ],
      "name": "Transfer",
      "type": "event"
    },
    {
      "inputs": [
        {
          "internalType": "address",
          "name": "to",
          "type": "address"
        },
        {
          "internalType": "uint256",
          "name": "tokenId",
          "type": "uint256"
        }
      ],
      "name": "approve",
      "outputs": [],
      "stateMutability": "nonpayable",
      "type": "function"
    },
    {
      "inputs": [
        {
          "internalType": "address",
          "name": "owner",
          "type": "address"
        }
      ],
      "name": "balanceOf",
      "outputs": [
        {
          "internalType": "uint256",
          "name": "",
          "type": "uint256"
        }
      ],
      "stateMutability": "view",
      "type": "function",
      "constant": true
    },
    {
      "inputs": [
        {
          "internalType": "uint256",
          "name": "tokenId",
          "type": "uint256"
        }
      ],
      "name": "getApproved",
      "outputs": [
        {
          "internalType": "address",
          "name": "",
          "type": "address"
        }
      ],
      "stateMutability": "view",
      "type": "function",
      "constant": true
    },
    {
      "inputs": [
        {
          "internalType": "address",
          "name": "owner",
          "type": "address"
        },
        {
          "internalType": "address",
          "name": "operator",
          "type": "address"
        }
      ],
      "name": "isApprovedForAll",
      "outputs": [
        {
          "internalType": "bool",
          "name": "",
          "type": "bool"
        }
      ],
      "stateMutability": "view",
      "type": "function",
      "constant": true
    },
    {
      "inputs": [],
      "name": "name",
      "outputs": [
        {
          "internalType": "string",
          "name": "",
          "type": "string"
        }
      ],
      "stateMutability": "view",
      "type": "function",
      "constant": true
    },
    {
      "inputs": [],
      "name": "owner",
      "outputs": [
        {
          "internalType": "address",
          "name": "",
          "type": "address"
        }
      ],
      "stateMutability": "view",
      "type": "function",
      "constant": true
    },
    {
      "inputs": [
        {
          "internalType": "uint256",
          "name": "tokenId",
          "type": "uint256"
        }
      ],
      "name": "ownerOf",
      "outputs": [
        {
          "internalType": "address",
          "name": "",
          "type": "address"
        }
      ],
      "stateMutability": "view",
      "type": "function",
      "constant": true
    },
    {
      "inputs": [],
      "name": "renounceOwnership",
      "outputs": [],
      "stateMutability": "nonpayable",
      "type": "function"
    },
    {
      "inputs": [
        {
          "internalType": "address",
          "name": "from",
          "type": "address"
        },
        {
          "internalType": "address",
          "name": "to",
          "type": "address"
        },
        {
          "internalType": "uint256",
          "name": "tokenId",
          "type": "uint256"
        }
      ],
      "name": "safeTransferFrom",
      "outputs": [],
      "stateMutability": "nonpayable",
      "type": "function"
    },
    {
      "inputs": [
        {
          "internalType": "address",
          "name": "from",
          "type": "address"
        },
        {
          "internalType": "address",
          "name": "to",
          "type": "address"
        },
        {
          "internalType": "uint256",
          "name": "tokenId",
          "type": "uint256"
        },
        {
          "internalType": "bytes",
          "name": "_data",
          "type": "bytes"
        }
      ],
      "name": "safeTransferFrom",
      "outputs": [],
      "stateMutability": "nonpayable",
      "type": "function"
    },
    {
      "inputs": [
        {
          "internalType": "address",
          "name": "operator",
          "type": "address"
        },
        {
          "internalType": "bool",
          "name": "approved",
          "type": "bool"
        }
      ],
      "name": "setApprovalForAll",
      "outputs": [],
      "stateMutability": "nonpayable",
      "type": "function"
    },
    {
      "inputs": [
        {
          "internalType": "bytes4",
          "name": "interfaceId",
          "type": "bytes4"
        }
      ],
      "name": "supportsInterface",
      "outputs": [
        {
          "internalType": "bool",
          "name": "",
          "type": "bool"
        }
      ],
      "stateMutability": "view",
      "type": "function",
      "constant": true
    },
    {
      "inputs": [],
      "name": "symbol",
      "outputs": [
        {
          "internalType": "string",
          "name": "",
          "type": "string"
        }
      ],
      "stateMutability": "view",
      "type": "function",
      "constant": true
    },
    {
      "inputs": [
        {
          "internalType": "uint256",
          "name": "index",
          "type": "uint256"
        }
      ],
      "name": "tokenByIndex",
      "outputs": [
        {
          "internalType": "uint256",
          "name": "",
          "type": "uint256"
        }
      ],
      "stateMutability": "view",
      "type": "function",
      "constant": true
    },
    {
      "inputs": [
        {
          "internalType": "address",
          "name": "owner",
          "type": "address"
        },
        {
          "internalType": "uint256",
          "name": "index",
          "type": "uint256"
        }
      ],
      "name": "tokenOfOwnerByIndex",
      "outputs": [
        {
          "internalType": "uint256",
          "name": "",
          "type": "uint256"
        }
      ],
      "stateMutability": "view",
      "type": "function",
      "constant": true
    },
    {
      "inputs": [
        {
          "internalType": "uint256",
          "name": "tokenId",
          "type": "uint256"
        }
      ],
      "name": "tokenURI",
      "outputs": [
        {
          "internalType": "string",
          "name": "",
          "type": "string"
        }
      ],
      "stateMutability": "view",
      "type": "function",
      "constant": true
    },
    {
      "inputs": [],
      "name": "totalSupply",
      "outputs": [
        {
          "internalType": "uint256",
          "name": "",
          "type": "uint256"
        }
      ],
      "stateMutability": "view",
      "type": "function",
      "constant": true
    },
    {
      "inputs": [
        {
          "internalType": "address",
          "name": "from",
          "type": "address"
        },
        {
          "internalType": "address",
          "name": "to",
          "type": "address"
        },
        {
          "internalType": "uint256",
          "name": "tokenId",
          "type": "uint256"
        }
      ],
      "name": "transferFrom",
      "outputs": [],
      "stateMutability": "nonpayable",
      "type": "function"
    },
    {
      "inputs": [
        {
          "internalType": "address",
          "name": "newOwner",
          "type": "address"
        }
      ],
      "name": "transferOwnership",
      "outputs": [],
      "stateMutability": "nonpayable",
      "type": "function"
    },
    {
      "inputs": [
        {
          "internalType": "address",
          "name": "_to",
          "type": "address"
        },
        {
          "internalType": "string",
          "name": "_lotto",
          "type": "string"
        },
        {
          "internalType": "uint256",
          "name": "_footprint",
          "type": "uint256"
        },
        {
          "internalType": "string",
          "name": "_nome",
          "type": "string"
        }
      ],
      "name": "mint",
      "outputs": [],
      "stateMutability": "nonpayable",
      "type": "function"
    },
    {
      "inputs": [
        {
          "internalType": "string",
          "name": "_lotto",
          "type": "string"
        }
      ],
      "name": "setRisorsaUtilizzata",
      "outputs": [],
      "stateMutability": "nonpayable",
      "type": "function"
    },
    {
      "inputs": [
        {
          "internalType": "string",
          "name": "_lotto",
          "type": "string"
        }
      ],
      "name": "getRisorsaUtilizzata",
      "outputs": [
        {
          "internalType": "bool",
          "name": "",
          "type": "bool"
        }
      ],
      "stateMutability": "view",
      "type": "function",
      "constant": true
    },
    {
      "inputs": [
        {
          "internalType": "address",
          "name": "_owner",
          "type": "address"
        }
      ],
      "name": "walletOfOwner",
      "outputs": [
        {
          "internalType": "uint256[]",
          "name": "",
          "type": "uint256[]"
        }
      ],
      "stateMutability": "view",
      "type": "function",
      "constant": true
    },
    {
      "inputs": [
        {
          "internalType": "address payable",
          "name": "_fornitore",
          "type": "address"
        },
        {
          "internalType": "address payable",
          "name": "_produttore",
          "type": "address"
        },
        {
          "internalType": "string[]",
          "name": "lotti",
          "type": "string[]"
        }
      ],
      "name": "compraNft",
      "outputs": [],
      "stateMutability": "nonpayable",
      "type": "function"
    },
    {
      "inputs": [
        {
          "internalType": "address",
          "name": "_account",
          "type": "address"
        },
        {
          "internalType": "string",
          "name": "lotto",
          "type": "string"
        }
      ],
      "name": "isOwner",
      "outputs": [
        {
          "internalType": "bool",
          "name": "",
          "type": "bool"
        }
      ],
      "stateMutability": "view",
      "type": "function",
      "constant": true
    },
    {
      "inputs": [
        {
          "internalType": "uint256",
          "name": "_tokenId",
          "type": "uint256"
        }
      ],
      "name": "buildMetadata",
      "outputs": [
        {
          "internalType": "string",
          "name": "",
          "type": "string"
        }
      ],
      "stateMutability": "view",
      "type": "function",
      "constant": true
    },
    {
      "inputs": [
        {
          "internalType": "string",
          "name": "_lotto",
          "type": "string"
        }
      ],
      "name": "existsLotto",
      "outputs": [
        {
          "internalType": "bool",
          "name": "",
          "type": "bool"
        }
      ],
      "stateMutability": "view",
      "type": "function",
      "constant": true
    },
    {
      "inputs": [
        {
          "internalType": "string",
          "name": "lotto",
          "type": "string"
        }
      ],
      "name": "searchMateriaPrimaByLotto",
      "outputs": [
        {
          "internalType": "string",
          "name": "",
          "type": "string"
        }
      ],
      "stateMutability": "view",
      "type": "function",
      "constant": true
    },
    {
      "inputs": [
        {
          "internalType": "string",
          "name": "lotto",
          "type": "string"
        }
      ],
      "name": "searchProdottoByLotto",
      "outputs": [
        {
          "internalType": "string",
          "name": "",
          "type": "string"
        }
      ],
      "stateMutability": "view",
      "type": "function",
      "constant": true
    },
    {
      "inputs": [
        {
          "internalType": "string",
          "name": "lotto",
          "type": "string"
        }
      ],
      "name": "getFootPrintByLotto",
      "outputs": [
        {
          "internalType": "uint256",
          "name": "",
          "type": "uint256"
        }
      ],
      "stateMutability": "view",
      "type": "function",
      "constant": true
    }
  ],
  "bytecode": "0x60806040523480156200001157600080fd5b506040516200513d3803806200513d8339818101604052810190620000379190620003b0565b818181600090805190602001906200005192919062000163565b5080600190805190602001906200006a92919062000163565b5050506200008d620000816200009560201b60201c565b6200009d60201b60201c565b50506200049a565b600033905090565b6000600a60009054906101000a900473ffffffffffffffffffffffffffffffffffffffff16905081600a60006101000a81548173ffffffffffffffffffffffffffffffffffffffff021916908373ffffffffffffffffffffffffffffffffffffffff1602179055508173ffffffffffffffffffffffffffffffffffffffff168173ffffffffffffffffffffffffffffffffffffffff167f8be0079c531659141344cd1fd0a4f28419497f9722a3daafe3b4186f6b6457e060405160405180910390a35050565b828054620001719062000464565b90600052602060002090601f016020900481019282620001955760008555620001e1565b82601f10620001b057805160ff1916838001178555620001e1565b82800160010185558215620001e1579182015b82811115620001e0578251825591602001919060010190620001c3565b5b509050620001f09190620001f4565b5090565b5b808211156200020f576000816000905550600101620001f5565b5090565b6000604051905090565b600080fd5b600080fd5b600080fd5b600080fd5b6000601f19601f8301169050919050565b7f4e487b7100000000000000000000000000000000000000000000000000000000600052604160045260246000fd5b6200027c8262000231565b810181811067ffffffffffffffff821117156200029e576200029d62000242565b5b80604052505050565b6000620002b362000213565b9050620002c1828262000271565b919050565b600067ffffffffffffffff821115620002e457620002e362000242565b5b620002ef8262000231565b9050602081019050919050565b60005b838110156200031c578082015181840152602081019050620002ff565b838111156200032c576000848401525b50505050565b6000620003496200034384620002c6565b620002a7565b9050828152602081018484840111156200036857620003676200022c565b5b62000375848285620002fc565b509392505050565b600082601f83011262000395576200039462000227565b5b8151620003a784826020860162000332565b91505092915050565b60008060408385031215620003ca57620003c96200021d565b5b600083015167ffffffffffffffff811115620003eb57620003ea62000222565b5b620003f9858286016200037d565b925050602083015167ffffffffffffffff8111156200041d576200041c62000222565b5b6200042b858286016200037d565b9150509250929050565b7f4e487b7100000000000000000000000000000000000000000000000000000000600052602260045260246000fd5b600060028204905060018216806200047d57607f821691505b6020821081141562000494576200049362000435565b5b50919050565b614c9380620004aa6000396000f3fe608060405234801561001057600080fd5b50600436106101da5760003560e01c8063715018a611610104578063bcd5a375116100a2578063e985e9c511610071578063e985e9c5146105b1578063eb256cef146105e1578063edf8770414610611578063f2fde38b14610641576101da565b8063bcd5a375146104f1578063c87b56dd14610521578063cd37996414610551578063dc86185214610581576101da565b806398d0e3fe116100de57806398d0e3fe1461046d578063a22cb46514610489578063b695956e146104a5578063b88d4fde146104d5576101da565b8063715018a6146104275780638da5cb5b1461043157806395d89b411461044f576101da565b80633dd904301161017c5780634f6ccce71161014b5780634f6ccce7146103675780634f94a5e9146103975780636352211e146103c757806370a08231146103f7576101da565b80633dd90430146102e357806342842e0e146102ff578063438b63001461031b5780634aa5f96b1461034b576101da565b8063095ea7b3116101b8578063095ea7b31461025d57806318160ddd1461027957806323b872dd146102975780632f745c59146102b3576101da565b806301ffc9a7146101df57806306fdde031461020f578063081812fc1461022d575b600080fd5b6101f960048036038101906101f491906130c7565b61065d565b604051610206919061310f565b60405180910390f35b6102176106d7565b60405161022491906131c3565b60405180910390f35b6102476004803603810190610242919061321b565b610769565b6040516102549190613289565b60405180910390f35b610277600480360381019061027291906132d0565b6107ee565b005b610281610906565b60405161028e919061331f565b60405180910390f35b6102b160048036038101906102ac919061333a565b610913565b005b6102cd60048036038101906102c891906132d0565b610973565b6040516102da919061331f565b60405180910390f35b6102fd60048036038101906102f891906134c2565b610a18565b005b6103196004803603810190610314919061333a565b610cbd565b005b61033560048036038101906103309190613561565b610cdd565b604051610342919061364c565b60405180910390f35b61036560048036038101906103609190613792565b610d8b565b005b610381600480360381019061037c919061321b565b610e9b565b60405161038e919061331f565b60405180910390f35b6103b160048036038101906103ac9190613801565b610f0c565b6040516103be919061310f565b60405180910390f35b6103e160048036038101906103dc919061321b565b610f41565b6040516103ee9190613289565b60405180910390f35b610411600480360381019061040c9190613561565b610ff3565b60405161041e919061331f565b60405180910390f35b61042f6110ab565b005b610439611133565b6040516104469190613289565b60405180910390f35b61045761115d565b60405161046491906131c3565b60405180910390f35b61048760048036038101906104829190613801565b6111ef565b005b6104a3600480360381019061049e9190613876565b611229565b005b6104bf60048036038101906104ba9190613801565b61123f565b6040516104cc91906131c3565b60405180910390f35b6104ef60048036038101906104ea9190613957565b6113da565b005b61050b60048036038101906105069190613801565b61143c565b60405161051891906131c3565b60405180910390f35b61053b6004803603810190610536919061321b565b6115d7565b60405161054891906131c3565b60405180910390f35b61056b600480360381019061056691906139da565b61167e565b604051610578919061310f565b60405180910390f35b61059b60048036038101906105969190613801565b6116b3565b6040516105a8919061310f565b60405180910390f35b6105cb60048036038101906105c69190613a36565b6116e8565b6040516105d8919061310f565b60405180910390f35b6105fb60048036038101906105f69190613801565b61177c565b604051610608919061331f565b60405180910390f35b61062b6004803603810190610626919061321b565b6117a7565b60405161063891906131c3565b60405180910390f35b61065b60048036038101906106569190613561565b61196a565b005b60007f780e9d63000000000000000000000000000000000000000000000000000000007bffffffffffffffffffffffffffffffffffffffffffffffffffffffff1916827bffffffffffffffffffffffffffffffffffffffffffffffffffffffff191614806106d057506106cf82611a62565b5b9050919050565b6060600080546106e690613aa5565b80601f016020809104026020016040519081016040528092919081815260200182805461071290613aa5565b801561075f5780601f106107345761010080835404028352916020019161075f565b820191906000526020600020905b81548152906001019060200180831161074257829003601f168201915b5050505050905090565b600061077482611b44565b6107b3576040517f08c379a00000000000000000000000000000000000000000000000000000000081526004016107aa90613b49565b60405180910390fd5b6004600083815260200190815260200160002060009054906101000a900473ffffffffffffffffffffffffffffffffffffffff169050919050565b60006107f982610f41565b90508073ffffffffffffffffffffffffffffffffffffffff168373ffffffffffffffffffffffffffffffffffffffff16141561086a576040517f08c379a000000000000000000000000000000000000000000000000000000000815260040161086190613bdb565b60405180910390fd5b8073ffffffffffffffffffffffffffffffffffffffff16610889611bb0565b73ffffffffffffffffffffffffffffffffffffffff1614806108b857506108b7816108b2611bb0565b6116e8565b5b6108f7576040517f08c379a00000000000000000000000000000000000000000000000000000000081526004016108ee90613c6d565b60405180910390fd5b6109018383611bb8565b505050565b6000600880549050905090565b61092461091e611bb0565b82611c71565b610963576040517f08c379a000000000000000000000000000000000000000000000000000000000815260040161095a90613cff565b60405180910390fd5b61096e838383611d4f565b505050565b600061097e83610ff3565b82106109bf576040517f08c379a00000000000000000000000000000000000000000000000000000000081526004016109b690613d91565b60405180910390fd5b600660008473ffffffffffffffffffffffffffffffffffffffff1673ffffffffffffffffffffffffffffffffffffffff168152602001908152602001600020600083815260200190815260200160002054905092915050565b600e83604051610a289190613ded565b908152602001604051809103902060009054906101000a900460ff1615610a84576040517f08c379a0000000000000000000000000000000000000000000000000000000008152600401610a7b90613e50565b60405180910390fd5b6000610a8e610906565b9050610aa685600183610aa19190613e9f565b611fab565b6040518060800160405280600183610abe9190613e9f565b815260200185815260200183815260200184815250600d6000838152602001908152602001600020600082015181600001556020820151816001019080519060200190610b0c929190612f2b565b506040820151816002019080519060200190610b29929190612f2b565b5060608201518160030155905050600d6000828152602001908152602001600020600c6000600184610b5b9190613e9f565b8152602001908152602001600020600082015481600001556001820181600101908054610b8790613aa5565b610b92929190612fb1565b506002820181600201908054610ba790613aa5565b610bb2929190612fb1565b5060038201548160030155905050600d6000828152602001908152602001600020600b85604051610be39190613ded565b9081526020016040518091039020600082015481600001556001820181600101908054610c0f90613aa5565b610c1a929190612fb1565b506002820181600201908054610c2f90613aa5565b610c3a929190612fb1565b50600382015481600301559050506001600f85604051610c5a9190613ded565b908152602001604051809103902060006101000a81548160ff0219169083151502179055506000600e85604051610c919190613ded565b908152602001604051809103902060006101000a81548160ff0219169083151502179055505050505050565b610cd8838383604051806020016040528060008152506113da565b505050565b60606000610cea83610ff3565b905060008167ffffffffffffffff811115610d0857610d07613397565b5b604051908082528060200260200182016040528015610d365781602001602082028036833780820191505090505b50905060005b82811015610d8057610d4e8582610973565b828281518110610d6157610d60613ef5565b5b6020026020010181815250508080610d7890613f24565b915050610d3c565b508092505050919050565b6000805b8251811015610e9457610dbc85848381518110610daf57610dae613ef5565b5b602002602001015161167e565b838281518110610dcf57610dce613ef5565b5b6020026020010151604051602001610de79190613fb9565b60405160208183030381529060405290610e37576040517f08c379a0000000000000000000000000000000000000000000000000000000008152600401610e2e91906131c3565b60405180910390fd5b50600b838281518110610e4d57610e4c613ef5565b5b6020026020010151604051610e629190613ded565b9081526020016040518091039020600001549150610e81858584611d4f565b8080610e8c90613f24565b915050610d8f565b5050505050565b6000610ea5610906565b8210610ee6576040517f08c379a0000000000000000000000000000000000000000000000000000000008152600401610edd9061404d565b60405180910390fd5b60088281548110610efa57610ef9613ef5565b5b90600052602060002001549050919050565b6000600e82604051610f1e9190613ded565b908152602001604051809103902060009054906101000a900460ff169050919050565b6000806002600084815260200190815260200160002060009054906101000a900473ffffffffffffffffffffffffffffffffffffffff169050600073ffffffffffffffffffffffffffffffffffffffff168173ffffffffffffffffffffffffffffffffffffffff161415610fea576040517f08c379a0000000000000000000000000000000000000000000000000000000008152600401610fe1906140df565b60405180910390fd5b80915050919050565b60008073ffffffffffffffffffffffffffffffffffffffff168273ffffffffffffffffffffffffffffffffffffffff161415611064576040517f08c379a000000000000000000000000000000000000000000000000000000000815260040161105b90614171565b60405180910390fd5b600360008373ffffffffffffffffffffffffffffffffffffffff1673ffffffffffffffffffffffffffffffffffffffff168152602001908152602001600020549050919050565b6110b3611bb0565b73ffffffffffffffffffffffffffffffffffffffff166110d1611133565b73ffffffffffffffffffffffffffffffffffffffff1614611127576040517f08c379a000000000000000000000000000000000000000000000000000000000815260040161111e906141dd565b60405180910390fd5b6111316000611fc9565b565b6000600a60009054906101000a900473ffffffffffffffffffffffffffffffffffffffff16905090565b60606001805461116c90613aa5565b80601f016020809104026020016040519081016040528092919081815260200182805461119890613aa5565b80156111e55780601f106111ba576101008083540402835291602001916111e5565b820191906000526020600020905b8154815290600101906020018083116111c857829003601f168201915b5050505050905090565b6001600e826040516112019190613ded565b908152602001604051809103902060006101000a81548160ff02191690831515021790555050565b61123b611234611bb0565b838361208f565b5050565b60606000600b836040516020016112569190614249565b6040516020818303038152906040526040516112729190613ded565b9081526020016040518091039020604051806080016040529081600082015481526020016001820180546112a590613aa5565b80601f01602080910402602001604051908101604052809291908181526020018280546112d190613aa5565b801561131e5780601f106112f35761010080835404028352916020019161131e565b820191906000526020600020905b81548152906001019060200180831161130157829003601f168201915b5050505050815260200160028201805461133790613aa5565b80601f016020809104026020016040519081016040528092919081815260200182805461136390613aa5565b80156113b05780601f10611385576101008083540402835291602001916113b0565b820191906000526020600020905b81548152906001019060200180831161139357829003601f168201915b5050505050815260200160038201548152505090506113d281600001516117a7565b915050919050565b6113eb6113e5611bb0565b83611c71565b61142a576040517f08c379a000000000000000000000000000000000000000000000000000000000815260040161142190613cff565b60405180910390fd5b611436848484846121fc565b50505050565b60606000600b8360405160200161145391906142b7565b60405160208183030381529060405260405161146f9190613ded565b9081526020016040518091039020604051806080016040529081600082015481526020016001820180546114a290613aa5565b80601f01602080910402602001604051908101604052809291908181526020018280546114ce90613aa5565b801561151b5780601f106114f05761010080835404028352916020019161151b565b820191906000526020600020905b8154815290600101906020018083116114fe57829003601f168201915b5050505050815260200160028201805461153490613aa5565b80601f016020809104026020016040519081016040528092919081815260200182805461156090613aa5565b80156115ad5780601f10611582576101008083540402835291602001916115ad565b820191906000526020600020905b81548152906001019060200180831161159057829003601f168201915b5050505050815260200160038201548152505090506115cf81600001516117a7565b915050919050565b60606115e282611b44565b611621576040517f08c379a00000000000000000000000000000000000000000000000000000000081526004016116189061434b565b60405180910390fd5b600061162b612258565b9050600081511161164b5760405180602001604052806000815250611676565b806116558461226f565b60405160200161166692919061436b565b6040516020818303038152906040525b915050919050565b60006116ab83600b846040516116949190613ded565b908152602001604051809103902060000154611c71565b905092915050565b6000600f826040516116c59190613ded565b908152602001604051809103902060009054906101000a900460ff169050919050565b6000600560008473ffffffffffffffffffffffffffffffffffffffff1673ffffffffffffffffffffffffffffffffffffffff16815260200190815260200160002060008373ffffffffffffffffffffffffffffffffffffffff1673ffffffffffffffffffffffffffffffffffffffff16815260200190815260200160002060009054906101000a900460ff16905092915050565b6000600b8260405161178e9190613ded565b9081526020016040518091039020600301549050919050565b60606000600c6000848152602001908152602001600020604051806080016040529081600082015481526020016001820180546117e390613aa5565b80601f016020809104026020016040519081016040528092919081815260200182805461180f90613aa5565b801561185c5780601f106118315761010080835404028352916020019161185c565b820191906000526020600020905b81548152906001019060200180831161183f57829003601f168201915b5050505050815260200160028201805461187590613aa5565b80601f01602080910402602001604051908101604052809291908181526020018280546118a190613aa5565b80156118ee5780601f106118c3576101008083540402835291602001916118ee565b820191906000526020600020905b8154815290600101906020018083116118d157829003601f168201915b5050505050815260200160038201548152505090506119438160400151826020015161191d84606001516123d0565b60405160200161192f939291906144bf565b604051602081830303815290604052612559565b6040516020016119539190614568565b604051602081830303815290604052915050919050565b611972611bb0565b73ffffffffffffffffffffffffffffffffffffffff16611990611133565b73ffffffffffffffffffffffffffffffffffffffff16146119e6576040517f08c379a00000000000000000000000000000000000000000000000000000000081526004016119dd906141dd565b60405180910390fd5b600073ffffffffffffffffffffffffffffffffffffffff168173ffffffffffffffffffffffffffffffffffffffff161415611a56576040517f08c379a0000000000000000000000000000000000000000000000000000000008152600401611a4d906145fc565b60405180910390fd5b611a5f81611fc9565b50565b60007f80ac58cd000000000000000000000000000000000000000000000000000000007bffffffffffffffffffffffffffffffffffffffffffffffffffffffff1916827bffffffffffffffffffffffffffffffffffffffffffffffffffffffff19161480611b2d57507f5b5e139f000000000000000000000000000000000000000000000000000000007bffffffffffffffffffffffffffffffffffffffffffffffffffffffff1916827bffffffffffffffffffffffffffffffffffffffffffffffffffffffff1916145b80611b3d5750611b3c826126de565b5b9050919050565b60008073ffffffffffffffffffffffffffffffffffffffff166002600084815260200190815260200160002060009054906101000a900473ffffffffffffffffffffffffffffffffffffffff1673ffffffffffffffffffffffffffffffffffffffff1614159050919050565b600033905090565b816004600083815260200190815260200160002060006101000a81548173ffffffffffffffffffffffffffffffffffffffff021916908373ffffffffffffffffffffffffffffffffffffffff160217905550808273ffffffffffffffffffffffffffffffffffffffff16611c2b83610f41565b73ffffffffffffffffffffffffffffffffffffffff167f8c5be1e5ebec7d5bd14f71427d1e84f3dd0314c0f7b2291e5b200ac8c7c3b92560405160405180910390a45050565b6000611c7c82611b44565b611cbb576040517f08c379a0000000000000000000000000000000000000000000000000000000008152600401611cb29061468e565b60405180910390fd5b6000611cc683610f41565b90508073ffffffffffffffffffffffffffffffffffffffff168473ffffffffffffffffffffffffffffffffffffffff161480611d3557508373ffffffffffffffffffffffffffffffffffffffff16611d1d84610769565b73ffffffffffffffffffffffffffffffffffffffff16145b80611d465750611d4581856116e8565b5b91505092915050565b8273ffffffffffffffffffffffffffffffffffffffff16611d6f82610f41565b73ffffffffffffffffffffffffffffffffffffffff1614611dc5576040517f08c379a0000000000000000000000000000000000000000000000000000000008152600401611dbc90614720565b60405180910390fd5b600073ffffffffffffffffffffffffffffffffffffffff168273ffffffffffffffffffffffffffffffffffffffff161415611e35576040517f08c379a0000000000000000000000000000000000000000000000000000000008152600401611e2c906147b2565b60405180910390fd5b611e40838383612748565b611e4b600082611bb8565b6001600360008573ffffffffffffffffffffffffffffffffffffffff1673ffffffffffffffffffffffffffffffffffffffff1681526020019081526020016000206000828254611e9b91906147d2565b925050819055506001600360008473ffffffffffffffffffffffffffffffffffffffff1673ffffffffffffffffffffffffffffffffffffffff1681526020019081526020016000206000828254611ef29190613e9f565b92505081905550816002600083815260200190815260200160002060006101000a81548173ffffffffffffffffffffffffffffffffffffffff021916908373ffffffffffffffffffffffffffffffffffffffff160217905550808273ffffffffffffffffffffffffffffffffffffffff168473ffffffffffffffffffffffffffffffffffffffff167fddf252ad1be2c89b69c2b068fc378daa952ba7f163c4a11628f55a4df523b3ef60405160405180910390a4505050565b611fc582826040518060200160405280600081525061285c565b5050565b6000600a60009054906101000a900473ffffffffffffffffffffffffffffffffffffffff16905081600a60006101000a81548173ffffffffffffffffffffffffffffffffffffffff021916908373ffffffffffffffffffffffffffffffffffffffff1602179055508173ffffffffffffffffffffffffffffffffffffffff168173ffffffffffffffffffffffffffffffffffffffff167f8be0079c531659141344cd1fd0a4f28419497f9722a3daafe3b4186f6b6457e060405160405180910390a35050565b8173ffffffffffffffffffffffffffffffffffffffff168373ffffffffffffffffffffffffffffffffffffffff1614156120fe576040517f08c379a00000000000000000000000000000000000000000000000000000000081526004016120f590614852565b60405180910390fd5b80600560008573ffffffffffffffffffffffffffffffffffffffff1673ffffffffffffffffffffffffffffffffffffffff16815260200190815260200160002060008473ffffffffffffffffffffffffffffffffffffffff1673ffffffffffffffffffffffffffffffffffffffff16815260200190815260200160002060006101000a81548160ff0219169083151502179055508173ffffffffffffffffffffffffffffffffffffffff168373ffffffffffffffffffffffffffffffffffffffff167f17307eab39ab6107e8899845ad3d59bd9653f200f220920489ca2b5937696c31836040516121ef919061310f565b60405180910390a3505050565b612207848484611d4f565b612213848484846128b7565b612252576040517f08c379a0000000000000000000000000000000000000000000000000000000008152600401612249906148e4565b60405180910390fd5b50505050565b606060405180602001604052806000815250905090565b606060008214156122b7576040518060400160405280600181526020017f300000000000000000000000000000000000000000000000000000000000000081525090506123cb565b600082905060005b600082146122e95780806122d290613f24565b915050600a826122e29190614933565b91506122bf565b60008167ffffffffffffffff81111561230557612304613397565b5b6040519080825280601f01601f1916602001820160405280156123375781602001600182028036833780820191505090505b5090505b600085146123c45760018261235091906147d2565b9150600a8561235f9190614964565b603061236b9190613e9f565b60f81b81838151811061238157612380613ef5565b5b60200101907effffffffffffffffffffffffffffffffffffffffffffffffffffffffffffff1916908160001a905350600a856123bd9190614933565b945061233b565b8093505050505b919050565b60606000821415612418576040518060400160405280600181526020017f30000000000000000000000000000000000000000000000000000000000000008152509050612554565b600082905060005b6000821461244a57808061243390613f24565b915050600a826124439190614933565b9150612420565b60008167ffffffffffffffff81111561246657612465613397565b5b6040519080825280601f01601f1916602001820160405280156124985781602001600182028036833780820191505090505b50905060008290505b6000861461254c576001816124b691906147d2565b90506000600a80886124c89190614933565b6124d29190614995565b876124dd91906147d2565b60306124e991906149fc565b905060008160f81b90508084848151811061250757612506613ef5565b5b60200101907effffffffffffffffffffffffffffffffffffffffffffffffffffffffffffff1916908160001a905350600a886125439190614933565b975050506124a1565b819450505050505b919050565b606060008251141561257c576040518060200160405280600081525090506126d9565b6000604051806060016040528060408152602001614c1e60409139905060006003600285516125ab9190613e9f565b6125b59190614933565b60046125c19190614995565b905060006020826125d29190613e9f565b67ffffffffffffffff8111156125eb576125ea613397565b5b6040519080825280601f01601f19166020018201604052801561261d5781602001600182028036833780820191505090505b509050818152600183018586518101602084015b81831015612698576003830192508251603f8160121c1685015160f81b8252600182019150603f81600c1c1685015160f81b8252600182019150603f8160061c1685015160f81b8252600182019150603f811685015160f81b825260018201915050612631565b6003895106600181146126b257600281146126c2576126cd565b613d3d60f01b60028303526126cd565b603d60f81b60018303525b50505050508093505050505b919050565b60007f01ffc9a7000000000000000000000000000000000000000000000000000000007bffffffffffffffffffffffffffffffffffffffffffffffffffffffff1916827bffffffffffffffffffffffffffffffffffffffffffffffffffffffff1916149050919050565b612753838383612a3f565b600073ffffffffffffffffffffffffffffffffffffffff168373ffffffffffffffffffffffffffffffffffffffff1614156127965761279181612a44565b6127d5565b8173ffffffffffffffffffffffffffffffffffffffff168373ffffffffffffffffffffffffffffffffffffffff16146127d4576127d38382612a8d565b5b5b600073ffffffffffffffffffffffffffffffffffffffff168273ffffffffffffffffffffffffffffffffffffffff1614156128185761281381612bfa565b612857565b8273ffffffffffffffffffffffffffffffffffffffff168273ffffffffffffffffffffffffffffffffffffffff1614612856576128558282612ccb565b5b5b505050565b6128668383612d4a565b61287360008484846128b7565b6128b2576040517f08c379a00000000000000000000000000000000000000000000000000000000081526004016128a9906148e4565b60405180910390fd5b505050565b60006128d88473ffffffffffffffffffffffffffffffffffffffff16612f18565b15612a32578373ffffffffffffffffffffffffffffffffffffffff1663150b7a02612901611bb0565b8786866040518563ffffffff1660e01b81526004016129239493929190614a88565b6020604051808303816000875af192505050801561295f57506040513d601f19601f8201168201806040525081019061295c9190614ae9565b60015b6129e2573d806000811461298f576040519150601f19603f3d011682016040523d82523d6000602084013e612994565b606091505b506000815114156129da576040517f08c379a00000000000000000000000000000000000000000000000000000000081526004016129d1906148e4565b60405180910390fd5b805181602001fd5b63150b7a0260e01b7bffffffffffffffffffffffffffffffffffffffffffffffffffffffff1916817bffffffffffffffffffffffffffffffffffffffffffffffffffffffff191614915050612a37565b600190505b949350505050565b505050565b6008805490506009600083815260200190815260200160002081905550600881908060018154018082558091505060019003906000526020600020016000909190919091505550565b60006001612a9a84610ff3565b612aa491906147d2565b9050600060076000848152602001908152602001600020549050818114612b89576000600660008673ffffffffffffffffffffffffffffffffffffffff1673ffffffffffffffffffffffffffffffffffffffff168152602001908152602001600020600084815260200190815260200160002054905080600660008773ffffffffffffffffffffffffffffffffffffffff1673ffffffffffffffffffffffffffffffffffffffff168152602001908152602001600020600084815260200190815260200160002081905550816007600083815260200190815260200160002081905550505b6007600084815260200190815260200160002060009055600660008573ffffffffffffffffffffffffffffffffffffffff1673ffffffffffffffffffffffffffffffffffffffff16815260200190815260200160002060008381526020019081526020016000206000905550505050565b60006001600880549050612c0e91906147d2565b9050600060096000848152602001908152602001600020549050600060088381548110612c3e57612c3d613ef5565b5b906000526020600020015490508060088381548110612c6057612c5f613ef5565b5b906000526020600020018190555081600960008381526020019081526020016000208190555060096000858152602001908152602001600020600090556008805480612caf57612cae614b16565b5b6001900381819060005260206000200160009055905550505050565b6000612cd683610ff3565b905081600660008573ffffffffffffffffffffffffffffffffffffffff1673ffffffffffffffffffffffffffffffffffffffff168152602001908152602001600020600083815260200190815260200160002081905550806007600084815260200190815260200160002081905550505050565b600073ffffffffffffffffffffffffffffffffffffffff168273ffffffffffffffffffffffffffffffffffffffff161415612dba576040517f08c379a0000000000000000000000000000000000000000000000000000000008152600401612db190614b91565b60405180910390fd5b612dc381611b44565b15612e03576040517f08c379a0000000000000000000000000000000000000000000000000000000008152600401612dfa90614bfd565b60405180910390fd5b612e0f60008383612748565b6001600360008473ffffffffffffffffffffffffffffffffffffffff1673ffffffffffffffffffffffffffffffffffffffff1681526020019081526020016000206000828254612e5f9190613e9f565b92505081905550816002600083815260200190815260200160002060006101000a81548173ffffffffffffffffffffffffffffffffffffffff021916908373ffffffffffffffffffffffffffffffffffffffff160217905550808273ffffffffffffffffffffffffffffffffffffffff16600073ffffffffffffffffffffffffffffffffffffffff167fddf252ad1be2c89b69c2b068fc378daa952ba7f163c4a11628f55a4df523b3ef60405160405180910390a45050565b600080823b905060008111915050919050565b828054612f3790613aa5565b90600052602060002090601f016020900481019282612f595760008555612fa0565b82601f10612f7257805160ff1916838001178555612fa0565b82800160010185558215612fa0579182015b82811115612f9f578251825591602001919060010190612f84565b5b509050612fad919061303e565b5090565b828054612fbd90613aa5565b90600052602060002090601f016020900481019282612fdf576000855561302d565b82601f10612ff0578054855561302d565b8280016001018555821561302d57600052602060002091601f016020900482015b8281111561302c578254825591600101919060010190613011565b5b50905061303a919061303e565b5090565b5b8082111561305757600081600090555060010161303f565b5090565b6000604051905090565b600080fd5b600080fd5b60007fffffffff0000000000000000000000000000000000000000000000000000000082169050919050565b6130a48161306f565b81146130af57600080fd5b50565b6000813590506130c18161309b565b92915050565b6000602082840312156130dd576130dc613065565b5b60006130eb848285016130b2565b91505092915050565b60008115159050919050565b613109816130f4565b82525050565b60006020820190506131246000830184613100565b92915050565b600081519050919050565b600082825260208201905092915050565b60005b83811015613164578082015181840152602081019050613149565b83811115613173576000848401525b50505050565b6000601f19601f8301169050919050565b60006131958261312a565b61319f8185613135565b93506131af818560208601613146565b6131b881613179565b840191505092915050565b600060208201905081810360008301526131dd818461318a565b905092915050565b6000819050919050565b6131f8816131e5565b811461320357600080fd5b50565b600081359050613215816131ef565b92915050565b60006020828403121561323157613230613065565b5b600061323f84828501613206565b91505092915050565b600073ffffffffffffffffffffffffffffffffffffffff82169050919050565b600061327382613248565b9050919050565b61328381613268565b82525050565b600060208201905061329e600083018461327a565b92915050565b6132ad81613268565b81146132b857600080fd5b50565b6000813590506132ca816132a4565b92915050565b600080604083850312156132e7576132e6613065565b5b60006132f5858286016132bb565b925050602061330685828601613206565b9150509250929050565b613319816131e5565b82525050565b60006020820190506133346000830184613310565b92915050565b60008060006060848603121561335357613352613065565b5b6000613361868287016132bb565b9350506020613372868287016132bb565b925050604061338386828701613206565b9150509250925092565b600080fd5b600080fd5b7f4e487b7100000000000000000000000000000000000000000000000000000000600052604160045260246000fd5b6133cf82613179565b810181811067ffffffffffffffff821117156133ee576133ed613397565b5b80604052505050565b600061340161305b565b905061340d82826133c6565b919050565b600067ffffffffffffffff82111561342d5761342c613397565b5b61343682613179565b9050602081019050919050565b82818337600083830152505050565b600061346561346084613412565b6133f7565b90508281526020810184848401111561348157613480613392565b5b61348c848285613443565b509392505050565b600082601f8301126134a9576134a861338d565b5b81356134b9848260208601613452565b91505092915050565b600080600080608085870312156134dc576134db613065565b5b60006134ea878288016132bb565b945050602085013567ffffffffffffffff81111561350b5761350a61306a565b5b61351787828801613494565b935050604061352887828801613206565b925050606085013567ffffffffffffffff8111156135495761354861306a565b5b61355587828801613494565b91505092959194509250565b60006020828403121561357757613576613065565b5b6000613585848285016132bb565b91505092915050565b600081519050919050565b600082825260208201905092915050565b6000819050602082019050919050565b6135c3816131e5565b82525050565b60006135d583836135ba565b60208301905092915050565b6000602082019050919050565b60006135f98261358e565b6136038185613599565b935061360e836135aa565b8060005b8381101561363f57815161362688826135c9565b9750613631836135e1565b925050600181019050613612565b5085935050505092915050565b6000602082019050818103600083015261366681846135ee565b905092915050565b600061367982613248565b9050919050565b6136898161366e565b811461369457600080fd5b50565b6000813590506136a681613680565b92915050565b600067ffffffffffffffff8211156136c7576136c6613397565b5b602082029050602081019050919050565b600080fd5b60006136f06136eb846136ac565b6133f7565b90508083825260208201905060208402830185811115613713576137126136d8565b5b835b8181101561375a57803567ffffffffffffffff8111156137385761373761338d565b5b8086016137458982613494565b85526020850194505050602081019050613715565b5050509392505050565b600082601f8301126137795761377861338d565b5b81356137898482602086016136dd565b91505092915050565b6000806000606084860312156137ab576137aa613065565b5b60006137b986828701613697565b93505060206137ca86828701613697565b925050604084013567ffffffffffffffff8111156137eb576137ea61306a565b5b6137f786828701613764565b9150509250925092565b60006020828403121561381757613816613065565b5b600082013567ffffffffffffffff8111156138355761383461306a565b5b61384184828501613494565b91505092915050565b613853816130f4565b811461385e57600080fd5b50565b6000813590506138708161384a565b92915050565b6000806040838503121561388d5761388c613065565b5b600061389b858286016132bb565b92505060206138ac85828601613861565b9150509250929050565b600067ffffffffffffffff8211156138d1576138d0613397565b5b6138da82613179565b9050602081019050919050565b60006138fa6138f5846138b6565b6133f7565b90508281526020810184848401111561391657613915613392565b5b613921848285613443565b509392505050565b600082601f83011261393e5761393d61338d565b5b813561394e8482602086016138e7565b91505092915050565b6000806000806080858703121561397157613970613065565b5b600061397f878288016132bb565b9450506020613990878288016132bb565b93505060406139a187828801613206565b925050606085013567ffffffffffffffff8111156139c2576139c161306a565b5b6139ce87828801613929565b91505092959194509250565b600080604083850312156139f1576139f0613065565b5b60006139ff858286016132bb565b925050602083013567ffffffffffffffff811115613a2057613a1f61306a565b5b613a2c85828601613494565b9150509250929050565b60008060408385031215613a4d57613a4c613065565b5b6000613a5b858286016132bb565b9250506020613a6c858286016132bb565b9150509250929050565b7f4e487b7100000000000000000000000000000000000000000000000000000000600052602260045260246000fd5b60006002820490506001821680613abd57607f821691505b60208210811415613ad157613ad0613a76565b5b50919050565b7f4552433732313a20617070726f76656420717565727920666f72206e6f6e657860008201527f697374656e7420746f6b656e0000000000000000000000000000000000000000602082015250565b6000613b33602c83613135565b9150613b3e82613ad7565b604082019050919050565b60006020820190508181036000830152613b6281613b26565b9050919050565b7f4552433732313a20617070726f76616c20746f2063757272656e74206f776e6560008201527f7200000000000000000000000000000000000000000000000000000000000000602082015250565b6000613bc5602183613135565b9150613bd082613b69565b604082019050919050565b60006020820190508181036000830152613bf481613bb8565b9050919050565b7f4552433732313a20617070726f76652063616c6c6572206973206e6f74206f7760008201527f6e6572206e6f7220617070726f76656420666f7220616c6c0000000000000000602082015250565b6000613c57603883613135565b9150613c6282613bfb565b604082019050919050565b60006020820190508181036000830152613c8681613c4a565b9050919050565b7f4552433732313a207472616e736665722063616c6c6572206973206e6f74206f60008201527f776e6572206e6f7220617070726f766564000000000000000000000000000000602082015250565b6000613ce9603183613135565b9150613cf482613c8d565b604082019050919050565b60006020820190508181036000830152613d1881613cdc565b9050919050565b7f455243373231456e756d657261626c653a206f776e657220696e646578206f7560008201527f74206f6620626f756e6473000000000000000000000000000000000000000000602082015250565b6000613d7b602b83613135565b9150613d8682613d1f565b604082019050919050565b60006020820190508181036000830152613daa81613d6e565b9050919050565b600081905092915050565b6000613dc78261312a565b613dd18185613db1565b9350613de1818560208601613146565b80840191505092915050565b6000613df98284613dbc565b915081905092915050565b7f4c6f74746f2067696127207574696c697a7a61746f2100000000000000000000600082015250565b6000613e3a601683613135565b9150613e4582613e04565b602082019050919050565b60006020820190508181036000830152613e6981613e2d565b9050919050565b7f4e487b7100000000000000000000000000000000000000000000000000000000600052601160045260246000fd5b6000613eaa826131e5565b9150613eb5836131e5565b9250827fffffffffffffffffffffffffffffffffffffffffffffffffffffffffffffffff03821115613eea57613ee9613e70565b5b828201905092915050565b7f4e487b7100000000000000000000000000000000000000000000000000000000600052603260045260246000fd5b6000613f2f826131e5565b91507fffffffffffffffffffffffffffffffffffffffffffffffffffffffffffffffff821415613f6257613f61613e70565b5b600182019050919050565b7f4e6f6e207365692070726f70726965746172696f2064656c206c6f74746f2000600082015250565b6000613fa3601f83613db1565b9150613fae82613f6d565b601f82019050919050565b6000613fc482613f96565b9150613fd08284613dbc565b915081905092915050565b7f455243373231456e756d657261626c653a20676c6f62616c20696e646578206f60008201527f7574206f6620626f756e64730000000000000000000000000000000000000000602082015250565b6000614037602c83613135565b915061404282613fdb565b604082019050919050565b600060208201905081810360008301526140668161402a565b9050919050565b7f4552433732313a206f776e657220717565727920666f72206e6f6e657869737460008201527f656e7420746f6b656e0000000000000000000000000000000000000000000000602082015250565b60006140c9602983613135565b91506140d48261406d565b604082019050919050565b600060208201905081810360008301526140f8816140bc565b9050919050565b7f4552433732313a2062616c616e636520717565727920666f7220746865207a6560008201527f726f206164647265737300000000000000000000000000000000000000000000602082015250565b600061415b602a83613135565b9150614166826140ff565b604082019050919050565b6000602082019050818103600083015261418a8161414e565b9050919050565b7f4f776e61626c653a2063616c6c6572206973206e6f7420746865206f776e6572600082015250565b60006141c7602083613135565b91506141d282614191565b602082019050919050565b600060208201905081810360008301526141f6816141ba565b9050919050565b7f505f000000000000000000000000000000000000000000000000000000000000600082015250565b6000614233600283613db1565b915061423e826141fd565b600282019050919050565b600061425482614226565b91506142608284613dbc565b915081905092915050565b7f4d505f0000000000000000000000000000000000000000000000000000000000600082015250565b60006142a1600383613db1565b91506142ac8261426b565b600382019050919050565b60006142c282614294565b91506142ce8284613dbc565b915081905092915050565b7f4552433732314d657461646174613a2055524920717565727920666f72206e6f60008201527f6e6578697374656e7420746f6b656e0000000000000000000000000000000000602082015250565b6000614335602f83613135565b9150614340826142d9565b604082019050919050565b6000602082019050818103600083015261436481614328565b9050919050565b60006143778285613dbc565b91506143838284613dbc565b91508190509392505050565b7f7b226e616d65223a220000000000000000000000000000000000000000000000600082015250565b60006143c5600983613db1565b91506143d08261438f565b600982019050919050565b7f222c226c6f74746f223a22000000000000000000000000000000000000000000600082015250565b6000614411600b83613db1565b915061441c826143db565b600b82019050919050565b7f222c22666f6f747072696e74223a000000000000000000000000000000000000600082015250565b600061445d600e83613db1565b915061446882614427565b600e82019050919050565b7f7d00000000000000000000000000000000000000000000000000000000000000600082015250565b60006144a9600183613db1565b91506144b482614473565b600182019050919050565b60006144ca826143b8565b91506144d68286613dbc565b91506144e182614404565b91506144ed8285613dbc565b91506144f882614450565b91506145048284613dbc565b915061450f8261449c565b9150819050949350505050565b7f646174613a6170706c69636174696f6e2f6a736f6e3b6261736536342c000000600082015250565b6000614552601d83613db1565b915061455d8261451c565b601d82019050919050565b600061457382614545565b915061457f8284613dbc565b915081905092915050565b7f4f776e61626c653a206e6577206f776e657220697320746865207a65726f206160008201527f6464726573730000000000000000000000000000000000000000000000000000602082015250565b60006145e6602683613135565b91506145f18261458a565b604082019050919050565b60006020820190508181036000830152614615816145d9565b9050919050565b7f4552433732313a206f70657261746f7220717565727920666f72206e6f6e657860008201527f697374656e7420746f6b656e0000000000000000000000000000000000000000602082015250565b6000614678602c83613135565b91506146838261461c565b604082019050919050565b600060208201905081810360008301526146a78161466b565b9050919050565b7f4552433732313a207472616e73666572206f6620746f6b656e2074686174206960008201527f73206e6f74206f776e0000000000000000000000000000000000000000000000602082015250565b600061470a602983613135565b9150614715826146ae565b604082019050919050565b60006020820190508181036000830152614739816146fd565b9050919050565b7f4552433732313a207472616e7366657220746f20746865207a65726f2061646460008201527f7265737300000000000000000000000000000000000000000000000000000000602082015250565b600061479c602483613135565b91506147a782614740565b604082019050919050565b600060208201905081810360008301526147cb8161478f565b9050919050565b60006147dd826131e5565b91506147e8836131e5565b9250828210156147fb576147fa613e70565b5b828203905092915050565b7f4552433732313a20617070726f766520746f2063616c6c657200000000000000600082015250565b600061483c601983613135565b915061484782614806565b602082019050919050565b6000602082019050818103600083015261486b8161482f565b9050919050565b7f4552433732313a207472616e7366657220746f206e6f6e20455243373231526560008201527f63656976657220696d706c656d656e7465720000000000000000000000000000602082015250565b60006148ce603283613135565b91506148d982614872565b604082019050919050565b600060208201905081810360008301526148fd816148c1565b9050919050565b7f4e487b7100000000000000000000000000000000000000000000000000000000600052601260045260246000fd5b600061493e826131e5565b9150614949836131e5565b92508261495957614958614904565b5b828204905092915050565b600061496f826131e5565b915061497a836131e5565b92508261498a57614989614904565b5b828206905092915050565b60006149a0826131e5565b91506149ab836131e5565b9250817fffffffffffffffffffffffffffffffffffffffffffffffffffffffffffffffff04831182151516156149e4576149e3613e70565b5b828202905092915050565b600060ff82169050919050565b6000614a07826149ef565b9150614a12836149ef565b92508260ff03821115614a2857614a27613e70565b5b828201905092915050565b600081519050919050565b600082825260208201905092915050565b6000614a5a82614a33565b614a648185614a3e565b9350614a74818560208601613146565b614a7d81613179565b840191505092915050565b6000608082019050614a9d600083018761327a565b614aaa602083018661327a565b614ab76040830185613310565b8181036060830152614ac98184614a4f565b905095945050505050565b600081519050614ae38161309b565b92915050565b600060208284031215614aff57614afe613065565b5b6000614b0d84828501614ad4565b91505092915050565b7f4e487b7100000000000000000000000000000000000000000000000000000000600052603160045260246000fd5b7f4552433732313a206d696e7420746f20746865207a65726f2061646472657373600082015250565b6000614b7b602083613135565b9150614b8682614b45565b602082019050919050565b60006020820190508181036000830152614baa81614b6e565b9050919050565b7f4552433732313a20746f6b656e20616c7265616479206d696e74656400000000600082015250565b6000614be7601c83613135565b9150614bf282614bb1565b602082019050919050565b60006020820190508181036000830152614c1681614bda565b905091905056fe4142434445464748494a4b4c4d4e4f505152535455565758595a6162636465666768696a6b6c6d6e6f707172737475767778797a303132333435363738392b2fa264697066735822122054a0253a0b7cf0a4d2e801d7b976e0456ba6e1d2909d593dc7bfab579d50cd6e64736f6c634300080b0033",
  "immutableReferences": {},
  "source": "// SPDX-License-Identifier: GPL-3.0\r\n\r\n// Created by HashLips\r\n// The Nerdy Coder Clones\r\n\r\npragma solidity ^0.8.0;\r\n\r\nimport \"@openzeppelin/contracts/token/ERC721/extensions/ERC721Enumerable.sol\";\r\nimport \"@openzeppelin/contracts/access/Ownable.sol\";\r\nimport \"./Base64.sol\";\r\n\r\ncontract CarbonFootprint is ERC721Enumerable, Ownable {\r\n  using Strings for uint256;\r\n\r\n  struct Risorsa{\r\n    uint idToken;\r\n    string lotto;\r\n    string nome;\r\n    uint footprint;\r\n  }\r\n\r\n  mapping(string=>Risorsa) getRisorsaByLotto; //mapping del prodotto in base al lotto\r\n  mapping(uint=>Risorsa) getRisorsaByTokenId;\r\n  mapping(uint=>Risorsa) listaRisorse;\r\n  mapping(string => bool) private risorsaUtilizzata;\r\n  mapping(string => bool) private risorsaExists;\r\n\r\n  constructor(\r\n    string memory _name,\r\n    string memory _symbol\r\n  ) ERC721(_name, _symbol) {\r\n  }\r\n\r\n\r\n  // public\r\n  function mint(address _to, string memory _lotto, uint _footprint, string memory _nome) public  {\r\n    require(!risorsaUtilizzata[_lotto],\"Lotto gia' utilizzato!\");\r\n    uint256 supply = totalSupply();\r\n    _safeMint(_to, supply+1);\r\n    listaRisorse[supply] = Risorsa({\r\n       idToken: supply+1,\r\n       lotto: _lotto,\r\n       nome: _nome,\r\n       footprint: _footprint\r\n    });\r\n    getRisorsaByTokenId[supply+1] = listaRisorse[supply]; \r\n    getRisorsaByLotto[_lotto] = listaRisorse[supply];\r\n    risorsaExists[_lotto] = true;\r\n    risorsaUtilizzata[_lotto] = false;\r\n  }\r\n\r\n  function setRisorsaUtilizzata(string memory _lotto) public  {\r\n    risorsaUtilizzata[_lotto] = true;\r\n  }\r\n\r\n  function getRisorsaUtilizzata(string memory _lotto) public view returns (bool){\r\n    return risorsaUtilizzata[_lotto];\r\n  }\r\n\r\n  function walletOfOwner(address _owner)\r\n    public\r\n    view\r\n    returns (uint256[] memory)\r\n  {\r\n    uint256 ownerTokenCount = balanceOf(_owner);\r\n    uint256[] memory tokenIds = new uint256[](ownerTokenCount);\r\n    for (uint256 i; i < ownerTokenCount; i++) {\r\n      tokenIds[i] = tokenOfOwnerByIndex(_owner, i);\r\n    }\r\n    return tokenIds;\r\n  }\r\n   \r\n   function compraNft(address payable _fornitore, address payable _produttore, string[] memory lotti) public{\r\n      uint tokenId = 0;\r\n      for(uint i=0;i<lotti.length;i++){\r\n         require(isOwner(_fornitore,lotti[i]),string(abi.encodePacked(\"Non sei proprietario del lotto \",lotti[i])));\r\n          tokenId = getRisorsaByLotto[lotti[i]].idToken;\r\n         _transfer(_fornitore, _produttore,tokenId);\r\n      }\r\n    \r\n   }\r\n\r\n   function isOwner(address _account, string memory lotto) public view returns(bool){\r\n      return _isApprovedOrOwner(_account,getRisorsaByLotto[lotto].idToken);\r\n   }\r\n  \r\n   function buildMetadata(uint256 _tokenId) public view returns(string memory) {\r\n      Risorsa memory risorsa = getRisorsaByTokenId[_tokenId];\r\n      return string(abi.encodePacked(\r\n              'data:application/json;base64,', Base64.encode(bytes(abi.encodePacked(\r\n                          '{\"name\":\"', \r\n                          risorsa.nome,\r\n                          '\",\"lotto\":\"', \r\n                          risorsa.lotto,\r\n                          '\",\"footprint\":', \r\n                          uint2str(risorsa.footprint),'}')))));\r\n                          \r\n  }\r\n  \r\n  function existsLotto(string memory _lotto) public view returns (bool){\r\n    return risorsaExists[_lotto];\r\n  }\r\n\r\n  //cerca la materia prima in base al lotto\r\n  function searchMateriaPrimaByLotto(string memory lotto) public view returns(string memory) {\r\n      Risorsa memory risorsa = getRisorsaByLotto[string(abi.encodePacked(\"MP_\",lotto))];\r\n      return buildMetadata(risorsa.idToken);\r\n  }\r\n\r\n  function searchProdottoByLotto(string memory lotto) public view returns(string memory) {\r\n        Risorsa memory risorsa = getRisorsaByLotto[string(abi.encodePacked(\"P_\",lotto))];\r\n        return buildMetadata(risorsa.idToken);\r\n    }\r\n\r\n  function getFootPrintByLotto(string memory lotto) public view returns (uint256){\r\n        return getRisorsaByLotto[lotto].footprint; \r\n   }\r\n\r\n\r\n  function uint2str(uint _i) internal pure returns (string memory _uintAsString) {\r\n        if (_i == 0) {\r\n            return \"0\";\r\n        }\r\n        uint j = _i;\r\n        uint len;\r\n        while (j != 0) {\r\n            len++;\r\n            j /= 10;\r\n        }\r\n        bytes memory bstr = new bytes(len);\r\n        uint k = len;\r\n        while (_i != 0) {\r\n            k = k-1;\r\n            uint8 temp = (48 + uint8(_i - _i / 10 * 10));\r\n            bytes1 b1 = bytes1(temp);\r\n            bstr[k] = b1;\r\n            _i /= 10;\r\n        }\r\n        return string(bstr);\r\n    }\r\n\r\n\r\n}",
  "sourcePath": "C:\\Users\\sam\\Desktop\\Progetto\\Truffle\\contracts\\CarbonFootprint.sol",
  "compiler": {
    "name": "solc",
    "version": "0.8.11+commit.d7f03943.Emscripten.clang"
  },
  "schemaVersion": "3.4.1",
  "updatedAt": "2022-02-14T10:15:03.527Z",
  "networkType": "quorum",
  "devdoc": {
    "kind": "dev",
    "methods": {
      "approve(address,uint256)": {
        "details": "See {IERC721-approve}."
      },
      "balanceOf(address)": {
        "details": "See {IERC721-balanceOf}."
      },
      "getApproved(uint256)": {
        "details": "See {IERC721-getApproved}."
      },
      "isApprovedForAll(address,address)": {
        "details": "See {IERC721-isApprovedForAll}."
      },
      "name()": {
        "details": "See {IERC721Metadata-name}."
      },
      "owner()": {
        "details": "Returns the address of the current owner."
      },
      "ownerOf(uint256)": {
        "details": "See {IERC721-ownerOf}."
      },
      "renounceOwnership()": {
        "details": "Leaves the contract without owner. It will not be possible to call `onlyOwner` functions anymore. Can only be called by the current owner. NOTE: Renouncing ownership will leave the contract without an owner, thereby removing any functionality that is only available to the owner."
      },
      "safeTransferFrom(address,address,uint256)": {
        "details": "See {IERC721-safeTransferFrom}."
      },
      "safeTransferFrom(address,address,uint256,bytes)": {
        "details": "See {IERC721-safeTransferFrom}."
      },
      "setApprovalForAll(address,bool)": {
        "details": "See {IERC721-setApprovalForAll}."
      },
      "supportsInterface(bytes4)": {
        "details": "See {IERC165-supportsInterface}."
      },
      "symbol()": {
        "details": "See {IERC721Metadata-symbol}."
      },
      "tokenByIndex(uint256)": {
        "details": "See {IERC721Enumerable-tokenByIndex}."
      },
      "tokenOfOwnerByIndex(address,uint256)": {
        "details": "See {IERC721Enumerable-tokenOfOwnerByIndex}."
      },
      "tokenURI(uint256)": {
        "details": "See {IERC721Metadata-tokenURI}."
      },
      "totalSupply()": {
        "details": "See {IERC721Enumerable-totalSupply}."
      },
      "transferFrom(address,address,uint256)": {
        "details": "See {IERC721-transferFrom}."
      },
      "transferOwnership(address)": {
        "details": "Transfers ownership of the contract to a new account (`newOwner`). Can only be called by the current owner."
      }
    },
    "version": 1
  },
  "userdoc": {
    "kind": "user",
    "methods": {},
    "version": 1
  }
}