{
  "contractName": "CarbonFootprint",
  "abi": [
    {
      "inputs": [
        {
          "internalType": "string",
          "name": "_name",
          "type": "string"
        },
        {
          "internalType": "string",
          "name": "_symbol",
          "type": "string"
        }
      ],
      "stateMutability": "nonpayable",
      "type": "constructor"
    },
    {
      "anonymous": false,
      "inputs": [
        {
          "indexed": true,
          "internalType": "address",
          "name": "owner",
          "type": "address"
        },
        {
          "indexed": true,
          "internalType": "address",
          "name": "approved",
          "type": "address"
        },
        {
          "indexed": true,
          "internalType": "uint256",
          "name": "tokenId",
          "type": "uint256"
        }
      ],
      "name": "Approval",
      "type": "event"
    },
    {
      "anonymous": false,
      "inputs": [
        {
          "indexed": true,
          "internalType": "address",
          "name": "owner",
          "type": "address"
        },
        {
          "indexed": true,
          "internalType": "address",
          "name": "operator",
          "type": "address"
        },
        {
          "indexed": false,
          "internalType": "bool",
          "name": "approved",
          "type": "bool"
        }
      ],
      "name": "ApprovalForAll",
      "type": "event"
    },
    {
      "anonymous": false,
      "inputs": [
        {
          "indexed": true,
          "internalType": "address",
          "name": "previousOwner",
          "type": "address"
        },
        {
          "indexed": true,
          "internalType": "address",
          "name": "newOwner",
          "type": "address"
        }
      ],
      "name": "OwnershipTransferred",
      "type": "event"
    },
    {
      "anonymous": false,
      "inputs": [
        {
          "indexed": true,
          "internalType": "address",
          "name": "from",
          "type": "address"
        },
        {
          "indexed": true,
          "internalType": "address",
          "name": "to",
          "type": "address"
        },
        {
          "indexed": true,
          "internalType": "uint256",
          "name": "tokenId",
          "type": "uint256"
        }
      ],
      "name": "Transfer",
      "type": "event"
    },
    {
      "inputs": [
        {
          "internalType": "address",
          "name": "to",
          "type": "address"
        },
        {
          "internalType": "uint256",
          "name": "tokenId",
          "type": "uint256"
        }
      ],
      "name": "approve",
      "outputs": [],
      "stateMutability": "nonpayable",
      "type": "function"
    },
    {
      "inputs": [
        {
          "internalType": "address",
          "name": "owner",
          "type": "address"
        }
      ],
      "name": "balanceOf",
      "outputs": [
        {
          "internalType": "uint256",
          "name": "",
          "type": "uint256"
        }
      ],
      "stateMutability": "view",
      "type": "function",
      "constant": true
    },
    {
      "inputs": [
        {
          "internalType": "uint256",
          "name": "tokenId",
          "type": "uint256"
        }
      ],
      "name": "getApproved",
      "outputs": [
        {
          "internalType": "address",
          "name": "",
          "type": "address"
        }
      ],
      "stateMutability": "view",
      "type": "function",
      "constant": true
    },
    {
      "inputs": [
        {
          "internalType": "address",
          "name": "owner",
          "type": "address"
        },
        {
          "internalType": "address",
          "name": "operator",
          "type": "address"
        }
      ],
      "name": "isApprovedForAll",
      "outputs": [
        {
          "internalType": "bool",
          "name": "",
          "type": "bool"
        }
      ],
      "stateMutability": "view",
      "type": "function",
      "constant": true
    },
    {
      "inputs": [],
      "name": "name",
      "outputs": [
        {
          "internalType": "string",
          "name": "",
          "type": "string"
        }
      ],
      "stateMutability": "view",
      "type": "function",
      "constant": true
    },
    {
      "inputs": [],
      "name": "owner",
      "outputs": [
        {
          "internalType": "address",
          "name": "",
          "type": "address"
        }
      ],
      "stateMutability": "view",
      "type": "function",
      "constant": true
    },
    {
      "inputs": [
        {
          "internalType": "uint256",
          "name": "tokenId",
          "type": "uint256"
        }
      ],
      "name": "ownerOf",
      "outputs": [
        {
          "internalType": "address",
          "name": "",
          "type": "address"
        }
      ],
      "stateMutability": "view",
      "type": "function",
      "constant": true
    },
    {
      "inputs": [],
      "name": "renounceOwnership",
      "outputs": [],
      "stateMutability": "nonpayable",
      "type": "function"
    },
    {
      "inputs": [
        {
          "internalType": "address",
          "name": "from",
          "type": "address"
        },
        {
          "internalType": "address",
          "name": "to",
          "type": "address"
        },
        {
          "internalType": "uint256",
          "name": "tokenId",
          "type": "uint256"
        }
      ],
      "name": "safeTransferFrom",
      "outputs": [],
      "stateMutability": "nonpayable",
      "type": "function"
    },
    {
      "inputs": [
        {
          "internalType": "address",
          "name": "from",
          "type": "address"
        },
        {
          "internalType": "address",
          "name": "to",
          "type": "address"
        },
        {
          "internalType": "uint256",
          "name": "tokenId",
          "type": "uint256"
        },
        {
          "internalType": "bytes",
          "name": "_data",
          "type": "bytes"
        }
      ],
      "name": "safeTransferFrom",
      "outputs": [],
      "stateMutability": "nonpayable",
      "type": "function"
    },
    {
      "inputs": [
        {
          "internalType": "address",
          "name": "operator",
          "type": "address"
        },
        {
          "internalType": "bool",
          "name": "approved",
          "type": "bool"
        }
      ],
      "name": "setApprovalForAll",
      "outputs": [],
      "stateMutability": "nonpayable",
      "type": "function"
    },
    {
      "inputs": [
        {
          "internalType": "bytes4",
          "name": "interfaceId",
          "type": "bytes4"
        }
      ],
      "name": "supportsInterface",
      "outputs": [
        {
          "internalType": "bool",
          "name": "",
          "type": "bool"
        }
      ],
      "stateMutability": "view",
      "type": "function",
      "constant": true
    },
    {
      "inputs": [],
      "name": "symbol",
      "outputs": [
        {
          "internalType": "string",
          "name": "",
          "type": "string"
        }
      ],
      "stateMutability": "view",
      "type": "function",
      "constant": true
    },
    {
      "inputs": [
        {
          "internalType": "uint256",
          "name": "index",
          "type": "uint256"
        }
      ],
      "name": "tokenByIndex",
      "outputs": [
        {
          "internalType": "uint256",
          "name": "",
          "type": "uint256"
        }
      ],
      "stateMutability": "view",
      "type": "function",
      "constant": true
    },
    {
      "inputs": [
        {
          "internalType": "address",
          "name": "owner",
          "type": "address"
        },
        {
          "internalType": "uint256",
          "name": "index",
          "type": "uint256"
        }
      ],
      "name": "tokenOfOwnerByIndex",
      "outputs": [
        {
          "internalType": "uint256",
          "name": "",
          "type": "uint256"
        }
      ],
      "stateMutability": "view",
      "type": "function",
      "constant": true
    },
    {
      "inputs": [
        {
          "internalType": "uint256",
          "name": "tokenId",
          "type": "uint256"
        }
      ],
      "name": "tokenURI",
      "outputs": [
        {
          "internalType": "string",
          "name": "",
          "type": "string"
        }
      ],
      "stateMutability": "view",
      "type": "function",
      "constant": true
    },
    {
      "inputs": [],
      "name": "totalSupply",
      "outputs": [
        {
          "internalType": "uint256",
          "name": "",
          "type": "uint256"
        }
      ],
      "stateMutability": "view",
      "type": "function",
      "constant": true
    },
    {
      "inputs": [
        {
          "internalType": "address",
          "name": "from",
          "type": "address"
        },
        {
          "internalType": "address",
          "name": "to",
          "type": "address"
        },
        {
          "internalType": "uint256",
          "name": "tokenId",
          "type": "uint256"
        }
      ],
      "name": "transferFrom",
      "outputs": [],
      "stateMutability": "nonpayable",
      "type": "function"
    },
    {
      "inputs": [
        {
          "internalType": "address",
          "name": "newOwner",
          "type": "address"
        }
      ],
      "name": "transferOwnership",
      "outputs": [],
      "stateMutability": "nonpayable",
      "type": "function"
    },
    {
      "inputs": [
        {
          "internalType": "address",
          "name": "_to",
          "type": "address"
        },
        {
          "internalType": "string",
          "name": "_lotto",
          "type": "string"
        },
        {
          "internalType": "uint256",
          "name": "_footprint",
          "type": "uint256"
        },
        {
          "internalType": "string",
          "name": "_nome",
          "type": "string"
        }
      ],
      "name": "mint",
      "outputs": [],
      "stateMutability": "nonpayable",
      "type": "function"
    },
    {
      "inputs": [
        {
          "internalType": "string",
          "name": "_lotto",
          "type": "string"
        }
      ],
      "name": "setRisorsaUtilizzata",
      "outputs": [],
      "stateMutability": "nonpayable",
      "type": "function"
    },
    {
      "inputs": [
        {
          "internalType": "string",
          "name": "_lotto",
          "type": "string"
        }
      ],
      "name": "getRisorsaUtilizzata",
      "outputs": [
        {
          "internalType": "bool",
          "name": "",
          "type": "bool"
        }
      ],
      "stateMutability": "view",
      "type": "function",
      "constant": true
    },
    {
      "inputs": [
        {
          "internalType": "address",
          "name": "_owner",
          "type": "address"
        }
      ],
      "name": "walletOfOwner",
      "outputs": [
        {
          "internalType": "uint256[]",
          "name": "",
          "type": "uint256[]"
        }
      ],
      "stateMutability": "view",
      "type": "function",
      "constant": true
    },
    {
      "inputs": [
        {
          "internalType": "address payable",
          "name": "_fornitore",
          "type": "address"
        },
        {
          "internalType": "address payable",
          "name": "_produttore",
          "type": "address"
        },
        {
          "internalType": "string[]",
          "name": "lotti",
          "type": "string[]"
        }
      ],
      "name": "compraNft",
      "outputs": [],
      "stateMutability": "nonpayable",
      "type": "function"
    },
    {
      "inputs": [
        {
          "internalType": "address",
          "name": "_account",
          "type": "address"
        },
        {
          "internalType": "string",
          "name": "lotto",
          "type": "string"
        }
      ],
      "name": "isOwner",
      "outputs": [
        {
          "internalType": "bool",
          "name": "",
          "type": "bool"
        }
      ],
      "stateMutability": "view",
      "type": "function",
      "constant": true
    },
    {
      "inputs": [
        {
          "internalType": "uint256",
          "name": "_tokenId",
          "type": "uint256"
        }
      ],
      "name": "buildMetadata",
      "outputs": [
        {
          "internalType": "string",
          "name": "",
          "type": "string"
        }
      ],
      "stateMutability": "view",
      "type": "function",
      "constant": true
    },
    {
      "inputs": [
        {
          "internalType": "string",
          "name": "_lotto",
          "type": "string"
        }
      ],
      "name": "existsLotto",
      "outputs": [
        {
          "internalType": "bool",
          "name": "",
          "type": "bool"
        }
      ],
      "stateMutability": "view",
      "type": "function",
      "constant": true
    },
    {
      "inputs": [
        {
          "internalType": "string",
          "name": "lotto",
          "type": "string"
        }
      ],
      "name": "searchMateriaPrimaByLotto",
      "outputs": [
        {
          "internalType": "string",
          "name": "",
          "type": "string"
        }
      ],
      "stateMutability": "view",
      "type": "function",
      "constant": true
    },
    {
      "inputs": [
        {
          "internalType": "string",
          "name": "lotto",
          "type": "string"
        }
      ],
      "name": "searchProdottoByLotto",
      "outputs": [
        {
          "internalType": "string",
          "name": "",
          "type": "string"
        }
      ],
      "stateMutability": "view",
      "type": "function",
      "constant": true
    },
    {
      "inputs": [
        {
          "internalType": "string",
          "name": "lotto",
          "type": "string"
        }
      ],
      "name": "getFootPrintByLotto",
      "outputs": [
        {
          "internalType": "uint256",
          "name": "",
          "type": "uint256"
        }
      ],
      "stateMutability": "view",
      "type": "function",
      "constant": true
    }
  ],
  "bytecode": "0x60806040523480156200001157600080fd5b5060405162004fba38038062004fba8339818101604052810190620000379190620003b0565b818181600090805190602001906200005192919062000163565b5080600190805190602001906200006a92919062000163565b5050506200008d620000816200009560201b60201c565b6200009d60201b60201c565b50506200049a565b600033905090565b6000600a60009054906101000a900473ffffffffffffffffffffffffffffffffffffffff16905081600a60006101000a81548173ffffffffffffffffffffffffffffffffffffffff021916908373ffffffffffffffffffffffffffffffffffffffff1602179055508173ffffffffffffffffffffffffffffffffffffffff168173ffffffffffffffffffffffffffffffffffffffff167f8be0079c531659141344cd1fd0a4f28419497f9722a3daafe3b4186f6b6457e060405160405180910390a35050565b828054620001719062000464565b90600052602060002090601f016020900481019282620001955760008555620001e1565b82601f10620001b057805160ff1916838001178555620001e1565b82800160010185558215620001e1579182015b82811115620001e0578251825591602001919060010190620001c3565b5b509050620001f09190620001f4565b5090565b5b808211156200020f576000816000905550600101620001f5565b5090565b6000604051905090565b600080fd5b600080fd5b600080fd5b600080fd5b6000601f19601f8301169050919050565b7f4e487b7100000000000000000000000000000000000000000000000000000000600052604160045260246000fd5b6200027c8262000231565b810181811067ffffffffffffffff821117156200029e576200029d62000242565b5b80604052505050565b6000620002b362000213565b9050620002c1828262000271565b919050565b600067ffffffffffffffff821115620002e457620002e362000242565b5b620002ef8262000231565b9050602081019050919050565b60005b838110156200031c578082015181840152602081019050620002ff565b838111156200032c576000848401525b50505050565b6000620003496200034384620002c6565b620002a7565b9050828152602081018484840111156200036857620003676200022c565b5b62000375848285620002fc565b509392505050565b600082601f83011262000395576200039462000227565b5b8151620003a784826020860162000332565b91505092915050565b60008060408385031215620003ca57620003c96200021d565b5b600083015167ffffffffffffffff811115620003eb57620003ea62000222565b5b620003f9858286016200037d565b925050602083015167ffffffffffffffff8111156200041d576200041c62000222565b5b6200042b858286016200037d565b9150509250929050565b7f4e487b7100000000000000000000000000000000000000000000000000000000600052602260045260246000fd5b600060028204905060018216806200047d57607f821691505b6020821081141562000494576200049362000435565b5b50919050565b614b1080620004aa6000396000f3fe608060405234801561001057600080fd5b50600436106101da5760003560e01c8063715018a611610104578063bcd5a375116100a2578063e985e9c511610071578063e985e9c5146105b1578063eb256cef146105e1578063edf8770414610611578063f2fde38b14610641576101da565b8063bcd5a375146104f1578063c87b56dd14610521578063cd37996414610551578063dc86185214610581576101da565b806398d0e3fe116100de57806398d0e3fe1461046d578063a22cb46514610489578063b695956e146104a5578063b88d4fde146104d5576101da565b8063715018a6146104275780638da5cb5b1461043157806395d89b411461044f576101da565b80633dd904301161017c5780634f6ccce71161014b5780634f6ccce7146103675780634f94a5e9146103975780636352211e146103c757806370a08231146103f7576101da565b80633dd90430146102e357806342842e0e146102ff578063438b63001461031b5780634aa5f96b1461034b576101da565b8063095ea7b3116101b8578063095ea7b31461025d57806318160ddd1461027957806323b872dd146102975780632f745c59146102b3576101da565b806301ffc9a7146101df57806306fdde031461020f578063081812fc1461022d575b600080fd5b6101f960048036038101906101f4919061301e565b61065d565b6040516102069190613066565b60405180910390f35b6102176106d7565b604051610224919061311a565b60405180910390f35b61024760048036038101906102429190613172565b610769565b60405161025491906131e0565b60405180910390f35b61027760048036038101906102729190613227565b6107ee565b005b610281610906565b60405161028e9190613276565b60405180910390f35b6102b160048036038101906102ac9190613291565b610913565b005b6102cd60048036038101906102c89190613227565b610973565b6040516102da9190613276565b60405180910390f35b6102fd60048036038101906102f89190613419565b610a18565b005b61031960048036038101906103149190613291565b610c87565b005b610335600480360381019061033091906134b8565b610ca7565b60405161034291906135a3565b60405180910390f35b610365600480360381019061036091906136e9565b610d55565b005b610381600480360381019061037c9190613172565b610df2565b60405161038e9190613276565b60405180910390f35b6103b160048036038101906103ac9190613758565b610e63565b6040516103be9190613066565b60405180910390f35b6103e160048036038101906103dc9190613172565b610e98565b6040516103ee91906131e0565b60405180910390f35b610411600480360381019061040c91906134b8565b610f4a565b60405161041e9190613276565b60405180910390f35b61042f611002565b005b61043961108a565b60405161044691906131e0565b60405180910390f35b6104576110b4565b604051610464919061311a565b60405180910390f35b61048760048036038101906104829190613758565b611146565b005b6104a3600480360381019061049e91906137cd565b611180565b005b6104bf60048036038101906104ba9190613758565b611196565b6040516104cc919061311a565b60405180910390f35b6104ef60048036038101906104ea91906138ae565b611331565b005b61050b60048036038101906105069190613758565b611393565b604051610518919061311a565b60405180910390f35b61053b60048036038101906105369190613172565b61152e565b604051610548919061311a565b60405180910390f35b61056b60048036038101906105669190613931565b6115d5565b6040516105789190613066565b60405180910390f35b61059b60048036038101906105969190613758565b61160a565b6040516105a89190613066565b60405180910390f35b6105cb60048036038101906105c6919061398d565b61163f565b6040516105d89190613066565b60405180910390f35b6105fb60048036038101906105f69190613758565b6116d3565b6040516106089190613276565b60405180910390f35b61062b60048036038101906106269190613172565b6116fe565b604051610638919061311a565b60405180910390f35b61065b600480360381019061065691906134b8565b6118c1565b005b60007f780e9d63000000000000000000000000000000000000000000000000000000007bffffffffffffffffffffffffffffffffffffffffffffffffffffffff1916827bffffffffffffffffffffffffffffffffffffffffffffffffffffffff191614806106d057506106cf826119b9565b5b9050919050565b6060600080546106e6906139fc565b80601f0160208091040260200160405190810160405280929190818152602001828054610712906139fc565b801561075f5780601f106107345761010080835404028352916020019161075f565b820191906000526020600020905b81548152906001019060200180831161074257829003601f168201915b5050505050905090565b600061077482611a9b565b6107b3576040517f08c379a00000000000000000000000000000000000000000000000000000000081526004016107aa90613aa0565b60405180910390fd5b6004600083815260200190815260200160002060009054906101000a900473ffffffffffffffffffffffffffffffffffffffff169050919050565b60006107f982610e98565b90508073ffffffffffffffffffffffffffffffffffffffff168373ffffffffffffffffffffffffffffffffffffffff16141561086a576040517f08c379a000000000000000000000000000000000000000000000000000000000815260040161086190613b32565b60405180910390fd5b8073ffffffffffffffffffffffffffffffffffffffff16610889611b07565b73ffffffffffffffffffffffffffffffffffffffff1614806108b857506108b7816108b2611b07565b61163f565b5b6108f7576040517f08c379a00000000000000000000000000000000000000000000000000000000081526004016108ee90613bc4565b60405180910390fd5b6109018383611b0f565b505050565b6000600880549050905090565b61092461091e611b07565b82611bc8565b610963576040517f08c379a000000000000000000000000000000000000000000000000000000000815260040161095a90613c56565b60405180910390fd5b61096e838383611ca6565b505050565b600061097e83610f4a565b82106109bf576040517f08c379a00000000000000000000000000000000000000000000000000000000081526004016109b690613ce8565b60405180910390fd5b600660008473ffffffffffffffffffffffffffffffffffffffff1673ffffffffffffffffffffffffffffffffffffffff168152602001908152602001600020600083815260200190815260200160002054905092915050565b600e83604051610a289190613d44565b908152602001604051809103902060009054906101000a900460ff1615610a4e57600080fd5b6000610a58610906565b9050610a7085600183610a6b9190613d8a565b611f02565b6040518060800160405280600183610a889190613d8a565b815260200185815260200183815260200184815250600d6000838152602001908152602001600020600082015181600001556020820151816001019080519060200190610ad6929190612e82565b506040820151816002019080519060200190610af3929190612e82565b5060608201518160030155905050600d6000828152602001908152602001600020600c6000600184610b259190613d8a565b8152602001908152602001600020600082015481600001556001820181600101908054610b51906139fc565b610b5c929190612f08565b506002820181600201908054610b71906139fc565b610b7c929190612f08565b5060038201548160030155905050600d6000828152602001908152602001600020600b85604051610bad9190613d44565b9081526020016040518091039020600082015481600001556001820181600101908054610bd9906139fc565b610be4929190612f08565b506002820181600201908054610bf9906139fc565b610c04929190612f08565b50600382015481600301559050506001600f85604051610c249190613d44565b908152602001604051809103902060006101000a81548160ff0219169083151502179055506000600e85604051610c5b9190613d44565b908152602001604051809103902060006101000a81548160ff0219169083151502179055505050505050565b610ca283838360405180602001604052806000815250611331565b505050565b60606000610cb483610f4a565b905060008167ffffffffffffffff811115610cd257610cd16132ee565b5b604051908082528060200260200182016040528015610d005781602001602082028036833780820191505090505b50905060005b82811015610d4a57610d188582610973565b828281518110610d2b57610d2a613de0565b5b6020026020010181815250508080610d4290613e0f565b915050610d06565b508092505050919050565b6000805b8251811015610deb57610d8685848381518110610d7957610d78613de0565b5b60200260200101516115d5565b610d8f57600080fd5b600b838281518110610da457610da3613de0565b5b6020026020010151604051610db99190613d44565b9081526020016040518091039020600001549150610dd8858584611ca6565b8080610de390613e0f565b915050610d59565b5050505050565b6000610dfc610906565b8210610e3d576040517f08c379a0000000000000000000000000000000000000000000000000000000008152600401610e3490613eca565b60405180910390fd5b60088281548110610e5157610e50613de0565b5b90600052602060002001549050919050565b6000600e82604051610e759190613d44565b908152602001604051809103902060009054906101000a900460ff169050919050565b6000806002600084815260200190815260200160002060009054906101000a900473ffffffffffffffffffffffffffffffffffffffff169050600073ffffffffffffffffffffffffffffffffffffffff168173ffffffffffffffffffffffffffffffffffffffff161415610f41576040517f08c379a0000000000000000000000000000000000000000000000000000000008152600401610f3890613f5c565b60405180910390fd5b80915050919050565b60008073ffffffffffffffffffffffffffffffffffffffff168273ffffffffffffffffffffffffffffffffffffffff161415610fbb576040517f08c379a0000000000000000000000000000000000000000000000000000000008152600401610fb290613fee565b60405180910390fd5b600360008373ffffffffffffffffffffffffffffffffffffffff1673ffffffffffffffffffffffffffffffffffffffff168152602001908152602001600020549050919050565b61100a611b07565b73ffffffffffffffffffffffffffffffffffffffff1661102861108a565b73ffffffffffffffffffffffffffffffffffffffff161461107e576040517f08c379a00000000000000000000000000000000000000000000000000000000081526004016110759061405a565b60405180910390fd5b6110886000611f20565b565b6000600a60009054906101000a900473ffffffffffffffffffffffffffffffffffffffff16905090565b6060600180546110c3906139fc565b80601f01602080910402602001604051908101604052809291908181526020018280546110ef906139fc565b801561113c5780601f106111115761010080835404028352916020019161113c565b820191906000526020600020905b81548152906001019060200180831161111f57829003601f168201915b5050505050905090565b6001600e826040516111589190613d44565b908152602001604051809103902060006101000a81548160ff02191690831515021790555050565b61119261118b611b07565b8383611fe6565b5050565b60606000600b836040516020016111ad91906140c6565b6040516020818303038152906040526040516111c99190613d44565b9081526020016040518091039020604051806080016040529081600082015481526020016001820180546111fc906139fc565b80601f0160208091040260200160405190810160405280929190818152602001828054611228906139fc565b80156112755780601f1061124a57610100808354040283529160200191611275565b820191906000526020600020905b81548152906001019060200180831161125857829003601f168201915b5050505050815260200160028201805461128e906139fc565b80601f01602080910402602001604051908101604052809291908181526020018280546112ba906139fc565b80156113075780601f106112dc57610100808354040283529160200191611307565b820191906000526020600020905b8154815290600101906020018083116112ea57829003601f168201915b50505050508152602001600382015481525050905061132981600001516116fe565b915050919050565b61134261133c611b07565b83611bc8565b611381576040517f08c379a000000000000000000000000000000000000000000000000000000000815260040161137890613c56565b60405180910390fd5b61138d84848484612153565b50505050565b60606000600b836040516020016113aa9190614134565b6040516020818303038152906040526040516113c69190613d44565b9081526020016040518091039020604051806080016040529081600082015481526020016001820180546113f9906139fc565b80601f0160208091040260200160405190810160405280929190818152602001828054611425906139fc565b80156114725780601f1061144757610100808354040283529160200191611472565b820191906000526020600020905b81548152906001019060200180831161145557829003601f168201915b5050505050815260200160028201805461148b906139fc565b80601f01602080910402602001604051908101604052809291908181526020018280546114b7906139fc565b80156115045780601f106114d957610100808354040283529160200191611504565b820191906000526020600020905b8154815290600101906020018083116114e757829003601f168201915b50505050508152602001600382015481525050905061152681600001516116fe565b915050919050565b606061153982611a9b565b611578576040517f08c379a000000000000000000000000000000000000000000000000000000000815260040161156f906141c8565b60405180910390fd5b60006115826121af565b905060008151116115a257604051806020016040528060008152506115cd565b806115ac846121c6565b6040516020016115bd9291906141e8565b6040516020818303038152906040525b915050919050565b600061160283600b846040516115eb9190613d44565b908152602001604051809103902060000154611bc8565b905092915050565b6000600f8260405161161c9190613d44565b908152602001604051809103902060009054906101000a900460ff169050919050565b6000600560008473ffffffffffffffffffffffffffffffffffffffff1673ffffffffffffffffffffffffffffffffffffffff16815260200190815260200160002060008373ffffffffffffffffffffffffffffffffffffffff1673ffffffffffffffffffffffffffffffffffffffff16815260200190815260200160002060009054906101000a900460ff16905092915050565b6000600b826040516116e59190613d44565b9081526020016040518091039020600301549050919050565b60606000600c60008481526020019081526020016000206040518060800160405290816000820154815260200160018201805461173a906139fc565b80601f0160208091040260200160405190810160405280929190818152602001828054611766906139fc565b80156117b35780601f10611788576101008083540402835291602001916117b3565b820191906000526020600020905b81548152906001019060200180831161179657829003601f168201915b505050505081526020016002820180546117cc906139fc565b80601f01602080910402602001604051908101604052809291908181526020018280546117f8906139fc565b80156118455780601f1061181a57610100808354040283529160200191611845565b820191906000526020600020905b81548152906001019060200180831161182857829003601f168201915b50505050508152602001600382015481525050905061189a816040015182602001516118748460600151612327565b6040516020016118869392919061433c565b6040516020818303038152906040526124b0565b6040516020016118aa91906143e5565b604051602081830303815290604052915050919050565b6118c9611b07565b73ffffffffffffffffffffffffffffffffffffffff166118e761108a565b73ffffffffffffffffffffffffffffffffffffffff161461193d576040517f08c379a00000000000000000000000000000000000000000000000000000000081526004016119349061405a565b60405180910390fd5b600073ffffffffffffffffffffffffffffffffffffffff168173ffffffffffffffffffffffffffffffffffffffff1614156119ad576040517f08c379a00000000000000000000000000000000000000000000000000000000081526004016119a490614479565b60405180910390fd5b6119b681611f20565b50565b60007f80ac58cd000000000000000000000000000000000000000000000000000000007bffffffffffffffffffffffffffffffffffffffffffffffffffffffff1916827bffffffffffffffffffffffffffffffffffffffffffffffffffffffff19161480611a8457507f5b5e139f000000000000000000000000000000000000000000000000000000007bffffffffffffffffffffffffffffffffffffffffffffffffffffffff1916827bffffffffffffffffffffffffffffffffffffffffffffffffffffffff1916145b80611a945750611a9382612635565b5b9050919050565b60008073ffffffffffffffffffffffffffffffffffffffff166002600084815260200190815260200160002060009054906101000a900473ffffffffffffffffffffffffffffffffffffffff1673ffffffffffffffffffffffffffffffffffffffff1614159050919050565b600033905090565b816004600083815260200190815260200160002060006101000a81548173ffffffffffffffffffffffffffffffffffffffff021916908373ffffffffffffffffffffffffffffffffffffffff160217905550808273ffffffffffffffffffffffffffffffffffffffff16611b8283610e98565b73ffffffffffffffffffffffffffffffffffffffff167f8c5be1e5ebec7d5bd14f71427d1e84f3dd0314c0f7b2291e5b200ac8c7c3b92560405160405180910390a45050565b6000611bd382611a9b565b611c12576040517f08c379a0000000000000000000000000000000000000000000000000000000008152600401611c099061450b565b60405180910390fd5b6000611c1d83610e98565b90508073ffffffffffffffffffffffffffffffffffffffff168473ffffffffffffffffffffffffffffffffffffffff161480611c8c57508373ffffffffffffffffffffffffffffffffffffffff16611c7484610769565b73ffffffffffffffffffffffffffffffffffffffff16145b80611c9d5750611c9c818561163f565b5b91505092915050565b8273ffffffffffffffffffffffffffffffffffffffff16611cc682610e98565b73ffffffffffffffffffffffffffffffffffffffff1614611d1c576040517f08c379a0000000000000000000000000000000000000000000000000000000008152600401611d139061459d565b60405180910390fd5b600073ffffffffffffffffffffffffffffffffffffffff168273ffffffffffffffffffffffffffffffffffffffff161415611d8c576040517f08c379a0000000000000000000000000000000000000000000000000000000008152600401611d839061462f565b60405180910390fd5b611d9783838361269f565b611da2600082611b0f565b6001600360008573ffffffffffffffffffffffffffffffffffffffff1673ffffffffffffffffffffffffffffffffffffffff1681526020019081526020016000206000828254611df2919061464f565b925050819055506001600360008473ffffffffffffffffffffffffffffffffffffffff1673ffffffffffffffffffffffffffffffffffffffff1681526020019081526020016000206000828254611e499190613d8a565b92505081905550816002600083815260200190815260200160002060006101000a81548173ffffffffffffffffffffffffffffffffffffffff021916908373ffffffffffffffffffffffffffffffffffffffff160217905550808273ffffffffffffffffffffffffffffffffffffffff168473ffffffffffffffffffffffffffffffffffffffff167fddf252ad1be2c89b69c2b068fc378daa952ba7f163c4a11628f55a4df523b3ef60405160405180910390a4505050565b611f1c8282604051806020016040528060008152506127b3565b5050565b6000600a60009054906101000a900473ffffffffffffffffffffffffffffffffffffffff16905081600a60006101000a81548173ffffffffffffffffffffffffffffffffffffffff021916908373ffffffffffffffffffffffffffffffffffffffff1602179055508173ffffffffffffffffffffffffffffffffffffffff168173ffffffffffffffffffffffffffffffffffffffff167f8be0079c531659141344cd1fd0a4f28419497f9722a3daafe3b4186f6b6457e060405160405180910390a35050565b8173ffffffffffffffffffffffffffffffffffffffff168373ffffffffffffffffffffffffffffffffffffffff161415612055576040517f08c379a000000000000000000000000000000000000000000000000000000000815260040161204c906146cf565b60405180910390fd5b80600560008573ffffffffffffffffffffffffffffffffffffffff1673ffffffffffffffffffffffffffffffffffffffff16815260200190815260200160002060008473ffffffffffffffffffffffffffffffffffffffff1673ffffffffffffffffffffffffffffffffffffffff16815260200190815260200160002060006101000a81548160ff0219169083151502179055508173ffffffffffffffffffffffffffffffffffffffff168373ffffffffffffffffffffffffffffffffffffffff167f17307eab39ab6107e8899845ad3d59bd9653f200f220920489ca2b5937696c31836040516121469190613066565b60405180910390a3505050565b61215e848484611ca6565b61216a8484848461280e565b6121a9576040517f08c379a00000000000000000000000000000000000000000000000000000000081526004016121a090614761565b60405180910390fd5b50505050565b606060405180602001604052806000815250905090565b6060600082141561220e576040518060400160405280600181526020017f30000000000000000000000000000000000000000000000000000000000000008152509050612322565b600082905060005b6000821461224057808061222990613e0f565b915050600a8261223991906147b0565b9150612216565b60008167ffffffffffffffff81111561225c5761225b6132ee565b5b6040519080825280601f01601f19166020018201604052801561228e5781602001600182028036833780820191505090505b5090505b6000851461231b576001826122a7919061464f565b9150600a856122b691906147e1565b60306122c29190613d8a565b60f81b8183815181106122d8576122d7613de0565b5b60200101907effffffffffffffffffffffffffffffffffffffffffffffffffffffffffffff1916908160001a905350600a8561231491906147b0565b9450612292565b8093505050505b919050565b6060600082141561236f576040518060400160405280600181526020017f300000000000000000000000000000000000000000000000000000000000000081525090506124ab565b600082905060005b600082146123a157808061238a90613e0f565b915050600a8261239a91906147b0565b9150612377565b60008167ffffffffffffffff8111156123bd576123bc6132ee565b5b6040519080825280601f01601f1916602001820160405280156123ef5781602001600182028036833780820191505090505b50905060008290505b600086146124a35760018161240d919061464f565b90506000600a808861241f91906147b0565b6124299190614812565b87612434919061464f565b60306124409190614879565b905060008160f81b90508084848151811061245e5761245d613de0565b5b60200101907effffffffffffffffffffffffffffffffffffffffffffffffffffffffffffff1916908160001a905350600a8861249a91906147b0565b975050506123f8565b819450505050505b919050565b60606000825114156124d357604051806020016040528060008152509050612630565b6000604051806060016040528060408152602001614a9b60409139905060006003600285516125029190613d8a565b61250c91906147b0565b60046125189190614812565b905060006020826125299190613d8a565b67ffffffffffffffff811115612542576125416132ee565b5b6040519080825280601f01601f1916602001820160405280156125745781602001600182028036833780820191505090505b509050818152600183018586518101602084015b818310156125ef576003830192508251603f8160121c1685015160f81b8252600182019150603f81600c1c1685015160f81b8252600182019150603f8160061c1685015160f81b8252600182019150603f811685015160f81b825260018201915050612588565b600389510660018114612609576002811461261957612624565b613d3d60f01b6002830352612624565b603d60f81b60018303525b50505050508093505050505b919050565b60007f01ffc9a7000000000000000000000000000000000000000000000000000000007bffffffffffffffffffffffffffffffffffffffffffffffffffffffff1916827bffffffffffffffffffffffffffffffffffffffffffffffffffffffff1916149050919050565b6126aa838383612996565b600073ffffffffffffffffffffffffffffffffffffffff168373ffffffffffffffffffffffffffffffffffffffff1614156126ed576126e88161299b565b61272c565b8173ffffffffffffffffffffffffffffffffffffffff168373ffffffffffffffffffffffffffffffffffffffff161461272b5761272a83826129e4565b5b5b600073ffffffffffffffffffffffffffffffffffffffff168273ffffffffffffffffffffffffffffffffffffffff16141561276f5761276a81612b51565b6127ae565b8273ffffffffffffffffffffffffffffffffffffffff168273ffffffffffffffffffffffffffffffffffffffff16146127ad576127ac8282612c22565b5b5b505050565b6127bd8383612ca1565b6127ca600084848461280e565b612809576040517f08c379a000000000000000000000000000000000000000000000000000000000815260040161280090614761565b60405180910390fd5b505050565b600061282f8473ffffffffffffffffffffffffffffffffffffffff16612e6f565b15612989578373ffffffffffffffffffffffffffffffffffffffff1663150b7a02612858611b07565b8786866040518563ffffffff1660e01b815260040161287a9493929190614905565b6020604051808303816000875af19250505080156128b657506040513d601f19601f820116820180604052508101906128b39190614966565b60015b612939573d80600081146128e6576040519150601f19603f3d011682016040523d82523d6000602084013e6128eb565b606091505b50600081511415612931576040517f08c379a000000000000000000000000000000000000000000000000000000000815260040161292890614761565b60405180910390fd5b805181602001fd5b63150b7a0260e01b7bffffffffffffffffffffffffffffffffffffffffffffffffffffffff1916817bffffffffffffffffffffffffffffffffffffffffffffffffffffffff19161491505061298e565b600190505b949350505050565b505050565b6008805490506009600083815260200190815260200160002081905550600881908060018154018082558091505060019003906000526020600020016000909190919091505550565b600060016129f184610f4a565b6129fb919061464f565b9050600060076000848152602001908152602001600020549050818114612ae0576000600660008673ffffffffffffffffffffffffffffffffffffffff1673ffffffffffffffffffffffffffffffffffffffff168152602001908152602001600020600084815260200190815260200160002054905080600660008773ffffffffffffffffffffffffffffffffffffffff1673ffffffffffffffffffffffffffffffffffffffff168152602001908152602001600020600084815260200190815260200160002081905550816007600083815260200190815260200160002081905550505b6007600084815260200190815260200160002060009055600660008573ffffffffffffffffffffffffffffffffffffffff1673ffffffffffffffffffffffffffffffffffffffff16815260200190815260200160002060008381526020019081526020016000206000905550505050565b60006001600880549050612b65919061464f565b9050600060096000848152602001908152602001600020549050600060088381548110612b9557612b94613de0565b5b906000526020600020015490508060088381548110612bb757612bb6613de0565b5b906000526020600020018190555081600960008381526020019081526020016000208190555060096000858152602001908152602001600020600090556008805480612c0657612c05614993565b5b6001900381819060005260206000200160009055905550505050565b6000612c2d83610f4a565b905081600660008573ffffffffffffffffffffffffffffffffffffffff1673ffffffffffffffffffffffffffffffffffffffff168152602001908152602001600020600083815260200190815260200160002081905550806007600084815260200190815260200160002081905550505050565b600073ffffffffffffffffffffffffffffffffffffffff168273ffffffffffffffffffffffffffffffffffffffff161415612d11576040517f08c379a0000000000000000000000000000000000000000000000000000000008152600401612d0890614a0e565b60405180910390fd5b612d1a81611a9b565b15612d5a576040517f08c379a0000000000000000000000000000000000000000000000000000000008152600401612d5190614a7a565b60405180910390fd5b612d666000838361269f565b6001600360008473ffffffffffffffffffffffffffffffffffffffff1673ffffffffffffffffffffffffffffffffffffffff1681526020019081526020016000206000828254612db69190613d8a565b92505081905550816002600083815260200190815260200160002060006101000a81548173ffffffffffffffffffffffffffffffffffffffff021916908373ffffffffffffffffffffffffffffffffffffffff160217905550808273ffffffffffffffffffffffffffffffffffffffff16600073ffffffffffffffffffffffffffffffffffffffff167fddf252ad1be2c89b69c2b068fc378daa952ba7f163c4a11628f55a4df523b3ef60405160405180910390a45050565b600080823b905060008111915050919050565b828054612e8e906139fc565b90600052602060002090601f016020900481019282612eb05760008555612ef7565b82601f10612ec957805160ff1916838001178555612ef7565b82800160010185558215612ef7579182015b82811115612ef6578251825591602001919060010190612edb565b5b509050612f049190612f95565b5090565b828054612f14906139fc565b90600052602060002090601f016020900481019282612f365760008555612f84565b82601f10612f475780548555612f84565b82800160010185558215612f8457600052602060002091601f016020900482015b82811115612f83578254825591600101919060010190612f68565b5b509050612f919190612f95565b5090565b5b80821115612fae576000816000905550600101612f96565b5090565b6000604051905090565b600080fd5b600080fd5b60007fffffffff0000000000000000000000000000000000000000000000000000000082169050919050565b612ffb81612fc6565b811461300657600080fd5b50565b60008135905061301881612ff2565b92915050565b60006020828403121561303457613033612fbc565b5b600061304284828501613009565b91505092915050565b60008115159050919050565b6130608161304b565b82525050565b600060208201905061307b6000830184613057565b92915050565b600081519050919050565b600082825260208201905092915050565b60005b838110156130bb5780820151818401526020810190506130a0565b838111156130ca576000848401525b50505050565b6000601f19601f8301169050919050565b60006130ec82613081565b6130f6818561308c565b935061310681856020860161309d565b61310f816130d0565b840191505092915050565b6000602082019050818103600083015261313481846130e1565b905092915050565b6000819050919050565b61314f8161313c565b811461315a57600080fd5b50565b60008135905061316c81613146565b92915050565b60006020828403121561318857613187612fbc565b5b60006131968482850161315d565b91505092915050565b600073ffffffffffffffffffffffffffffffffffffffff82169050919050565b60006131ca8261319f565b9050919050565b6131da816131bf565b82525050565b60006020820190506131f560008301846131d1565b92915050565b613204816131bf565b811461320f57600080fd5b50565b600081359050613221816131fb565b92915050565b6000806040838503121561323e5761323d612fbc565b5b600061324c85828601613212565b925050602061325d8582860161315d565b9150509250929050565b6132708161313c565b82525050565b600060208201905061328b6000830184613267565b92915050565b6000806000606084860312156132aa576132a9612fbc565b5b60006132b886828701613212565b93505060206132c986828701613212565b92505060406132da8682870161315d565b9150509250925092565b600080fd5b600080fd5b7f4e487b7100000000000000000000000000000000000000000000000000000000600052604160045260246000fd5b613326826130d0565b810181811067ffffffffffffffff82111715613345576133446132ee565b5b80604052505050565b6000613358612fb2565b9050613364828261331d565b919050565b600067ffffffffffffffff821115613384576133836132ee565b5b61338d826130d0565b9050602081019050919050565b82818337600083830152505050565b60006133bc6133b784613369565b61334e565b9050828152602081018484840111156133d8576133d76132e9565b5b6133e384828561339a565b509392505050565b600082601f830112613400576133ff6132e4565b5b81356134108482602086016133a9565b91505092915050565b6000806000806080858703121561343357613432612fbc565b5b600061344187828801613212565b945050602085013567ffffffffffffffff81111561346257613461612fc1565b5b61346e878288016133eb565b935050604061347f8782880161315d565b925050606085013567ffffffffffffffff8111156134a05761349f612fc1565b5b6134ac878288016133eb565b91505092959194509250565b6000602082840312156134ce576134cd612fbc565b5b60006134dc84828501613212565b91505092915050565b600081519050919050565b600082825260208201905092915050565b6000819050602082019050919050565b61351a8161313c565b82525050565b600061352c8383613511565b60208301905092915050565b6000602082019050919050565b6000613550826134e5565b61355a81856134f0565b935061356583613501565b8060005b8381101561359657815161357d8882613520565b975061358883613538565b925050600181019050613569565b5085935050505092915050565b600060208201905081810360008301526135bd8184613545565b905092915050565b60006135d08261319f565b9050919050565b6135e0816135c5565b81146135eb57600080fd5b50565b6000813590506135fd816135d7565b92915050565b600067ffffffffffffffff82111561361e5761361d6132ee565b5b602082029050602081019050919050565b600080fd5b600061364761364284613603565b61334e565b9050808382526020820190506020840283018581111561366a5761366961362f565b5b835b818110156136b157803567ffffffffffffffff81111561368f5761368e6132e4565b5b80860161369c89826133eb565b8552602085019450505060208101905061366c565b5050509392505050565b600082601f8301126136d0576136cf6132e4565b5b81356136e0848260208601613634565b91505092915050565b60008060006060848603121561370257613701612fbc565b5b6000613710868287016135ee565b9350506020613721868287016135ee565b925050604084013567ffffffffffffffff81111561374257613741612fc1565b5b61374e868287016136bb565b9150509250925092565b60006020828403121561376e5761376d612fbc565b5b600082013567ffffffffffffffff81111561378c5761378b612fc1565b5b613798848285016133eb565b91505092915050565b6137aa8161304b565b81146137b557600080fd5b50565b6000813590506137c7816137a1565b92915050565b600080604083850312156137e4576137e3612fbc565b5b60006137f285828601613212565b9250506020613803858286016137b8565b9150509250929050565b600067ffffffffffffffff821115613828576138276132ee565b5b613831826130d0565b9050602081019050919050565b600061385161384c8461380d565b61334e565b90508281526020810184848401111561386d5761386c6132e9565b5b61387884828561339a565b509392505050565b600082601f830112613895576138946132e4565b5b81356138a584826020860161383e565b91505092915050565b600080600080608085870312156138c8576138c7612fbc565b5b60006138d687828801613212565b94505060206138e787828801613212565b93505060406138f88782880161315d565b925050606085013567ffffffffffffffff81111561391957613918612fc1565b5b61392587828801613880565b91505092959194509250565b6000806040838503121561394857613947612fbc565b5b600061395685828601613212565b925050602083013567ffffffffffffffff81111561397757613976612fc1565b5b613983858286016133eb565b9150509250929050565b600080604083850312156139a4576139a3612fbc565b5b60006139b285828601613212565b92505060206139c385828601613212565b9150509250929050565b7f4e487b7100000000000000000000000000000000000000000000000000000000600052602260045260246000fd5b60006002820490506001821680613a1457607f821691505b60208210811415613a2857613a276139cd565b5b50919050565b7f4552433732313a20617070726f76656420717565727920666f72206e6f6e657860008201527f697374656e7420746f6b656e0000000000000000000000000000000000000000602082015250565b6000613a8a602c8361308c565b9150613a9582613a2e565b604082019050919050565b60006020820190508181036000830152613ab981613a7d565b9050919050565b7f4552433732313a20617070726f76616c20746f2063757272656e74206f776e6560008201527f7200000000000000000000000000000000000000000000000000000000000000602082015250565b6000613b1c60218361308c565b9150613b2782613ac0565b604082019050919050565b60006020820190508181036000830152613b4b81613b0f565b9050919050565b7f4552433732313a20617070726f76652063616c6c6572206973206e6f74206f7760008201527f6e6572206e6f7220617070726f76656420666f7220616c6c0000000000000000602082015250565b6000613bae60388361308c565b9150613bb982613b52565b604082019050919050565b60006020820190508181036000830152613bdd81613ba1565b9050919050565b7f4552433732313a207472616e736665722063616c6c6572206973206e6f74206f60008201527f776e6572206e6f7220617070726f766564000000000000000000000000000000602082015250565b6000613c4060318361308c565b9150613c4b82613be4565b604082019050919050565b60006020820190508181036000830152613c6f81613c33565b9050919050565b7f455243373231456e756d657261626c653a206f776e657220696e646578206f7560008201527f74206f6620626f756e6473000000000000000000000000000000000000000000602082015250565b6000613cd2602b8361308c565b9150613cdd82613c76565b604082019050919050565b60006020820190508181036000830152613d0181613cc5565b9050919050565b600081905092915050565b6000613d1e82613081565b613d288185613d08565b9350613d3881856020860161309d565b80840191505092915050565b6000613d508284613d13565b915081905092915050565b7f4e487b7100000000000000000000000000000000000000000000000000000000600052601160045260246000fd5b6000613d958261313c565b9150613da08361313c565b9250827fffffffffffffffffffffffffffffffffffffffffffffffffffffffffffffffff03821115613dd557613dd4613d5b565b5b828201905092915050565b7f4e487b7100000000000000000000000000000000000000000000000000000000600052603260045260246000fd5b6000613e1a8261313c565b91507fffffffffffffffffffffffffffffffffffffffffffffffffffffffffffffffff821415613e4d57613e4c613d5b565b5b600182019050919050565b7f455243373231456e756d657261626c653a20676c6f62616c20696e646578206f60008201527f7574206f6620626f756e64730000000000000000000000000000000000000000602082015250565b6000613eb4602c8361308c565b9150613ebf82613e58565b604082019050919050565b60006020820190508181036000830152613ee381613ea7565b9050919050565b7f4552433732313a206f776e657220717565727920666f72206e6f6e657869737460008201527f656e7420746f6b656e0000000000000000000000000000000000000000000000602082015250565b6000613f4660298361308c565b9150613f5182613eea565b604082019050919050565b60006020820190508181036000830152613f7581613f39565b9050919050565b7f4552433732313a2062616c616e636520717565727920666f7220746865207a6560008201527f726f206164647265737300000000000000000000000000000000000000000000602082015250565b6000613fd8602a8361308c565b9150613fe382613f7c565b604082019050919050565b6000602082019050818103600083015261400781613fcb565b9050919050565b7f4f776e61626c653a2063616c6c6572206973206e6f7420746865206f776e6572600082015250565b600061404460208361308c565b915061404f8261400e565b602082019050919050565b6000602082019050818103600083015261407381614037565b9050919050565b7f505f000000000000000000000000000000000000000000000000000000000000600082015250565b60006140b0600283613d08565b91506140bb8261407a565b600282019050919050565b60006140d1826140a3565b91506140dd8284613d13565b915081905092915050565b7f4d505f0000000000000000000000000000000000000000000000000000000000600082015250565b600061411e600383613d08565b9150614129826140e8565b600382019050919050565b600061413f82614111565b915061414b8284613d13565b915081905092915050565b7f4552433732314d657461646174613a2055524920717565727920666f72206e6f60008201527f6e6578697374656e7420746f6b656e0000000000000000000000000000000000602082015250565b60006141b2602f8361308c565b91506141bd82614156565b604082019050919050565b600060208201905081810360008301526141e1816141a5565b9050919050565b60006141f48285613d13565b91506142008284613d13565b91508190509392505050565b7f7b226e616d65223a220000000000000000000000000000000000000000000000600082015250565b6000614242600983613d08565b915061424d8261420c565b600982019050919050565b7f222c226c6f74746f223a22000000000000000000000000000000000000000000600082015250565b600061428e600b83613d08565b915061429982614258565b600b82019050919050565b7f222c22666f6f747072696e74223a000000000000000000000000000000000000600082015250565b60006142da600e83613d08565b91506142e5826142a4565b600e82019050919050565b7f7d00000000000000000000000000000000000000000000000000000000000000600082015250565b6000614326600183613d08565b9150614331826142f0565b600182019050919050565b600061434782614235565b91506143538286613d13565b915061435e82614281565b915061436a8285613d13565b9150614375826142cd565b91506143818284613d13565b915061438c82614319565b9150819050949350505050565b7f646174613a6170706c69636174696f6e2f6a736f6e3b6261736536342c000000600082015250565b60006143cf601d83613d08565b91506143da82614399565b601d82019050919050565b60006143f0826143c2565b91506143fc8284613d13565b915081905092915050565b7f4f776e61626c653a206e6577206f776e657220697320746865207a65726f206160008201527f6464726573730000000000000000000000000000000000000000000000000000602082015250565b600061446360268361308c565b915061446e82614407565b604082019050919050565b6000602082019050818103600083015261449281614456565b9050919050565b7f4552433732313a206f70657261746f7220717565727920666f72206e6f6e657860008201527f697374656e7420746f6b656e0000000000000000000000000000000000000000602082015250565b60006144f5602c8361308c565b915061450082614499565b604082019050919050565b60006020820190508181036000830152614524816144e8565b9050919050565b7f4552433732313a207472616e73666572206f6620746f6b656e2074686174206960008201527f73206e6f74206f776e0000000000000000000000000000000000000000000000602082015250565b600061458760298361308c565b91506145928261452b565b604082019050919050565b600060208201905081810360008301526145b68161457a565b9050919050565b7f4552433732313a207472616e7366657220746f20746865207a65726f2061646460008201527f7265737300000000000000000000000000000000000000000000000000000000602082015250565b600061461960248361308c565b9150614624826145bd565b604082019050919050565b600060208201905081810360008301526146488161460c565b9050919050565b600061465a8261313c565b91506146658361313c565b92508282101561467857614677613d5b565b5b828203905092915050565b7f4552433732313a20617070726f766520746f2063616c6c657200000000000000600082015250565b60006146b960198361308c565b91506146c482614683565b602082019050919050565b600060208201905081810360008301526146e8816146ac565b9050919050565b7f4552433732313a207472616e7366657220746f206e6f6e20455243373231526560008201527f63656976657220696d706c656d656e7465720000000000000000000000000000602082015250565b600061474b60328361308c565b9150614756826146ef565b604082019050919050565b6000602082019050818103600083015261477a8161473e565b9050919050565b7f4e487b7100000000000000000000000000000000000000000000000000000000600052601260045260246000fd5b60006147bb8261313c565b91506147c68361313c565b9250826147d6576147d5614781565b5b828204905092915050565b60006147ec8261313c565b91506147f78361313c565b92508261480757614806614781565b5b828206905092915050565b600061481d8261313c565b91506148288361313c565b9250817fffffffffffffffffffffffffffffffffffffffffffffffffffffffffffffffff048311821515161561486157614860613d5b565b5b828202905092915050565b600060ff82169050919050565b60006148848261486c565b915061488f8361486c565b92508260ff038211156148a5576148a4613d5b565b5b828201905092915050565b600081519050919050565b600082825260208201905092915050565b60006148d7826148b0565b6148e181856148bb565b93506148f181856020860161309d565b6148fa816130d0565b840191505092915050565b600060808201905061491a60008301876131d1565b61492760208301866131d1565b6149346040830185613267565b818103606083015261494681846148cc565b905095945050505050565b60008151905061496081612ff2565b92915050565b60006020828403121561497c5761497b612fbc565b5b600061498a84828501614951565b91505092915050565b7f4e487b7100000000000000000000000000000000000000000000000000000000600052603160045260246000fd5b7f4552433732313a206d696e7420746f20746865207a65726f2061646472657373600082015250565b60006149f860208361308c565b9150614a03826149c2565b602082019050919050565b60006020820190508181036000830152614a27816149eb565b9050919050565b7f4552433732313a20746f6b656e20616c7265616479206d696e74656400000000600082015250565b6000614a64601c8361308c565b9150614a6f82614a2e565b602082019050919050565b60006020820190508181036000830152614a9381614a57565b905091905056fe4142434445464748494a4b4c4d4e4f505152535455565758595a6162636465666768696a6b6c6d6e6f707172737475767778797a303132333435363738392b2fa2646970667358221220a07acaed776780c18e101eb6d5bbb2a34e373e83b2570e21acbdbf475204c0d964736f6c634300080b0033",
  "immutableReferences": {},
  "source": "// SPDX-License-Identifier: GPL-3.0\r\n\r\n// Created by HashLips\r\n// The Nerdy Coder Clones\r\n\r\npragma solidity ^0.8.0;\r\n\r\nimport \"@openzeppelin/contracts/token/ERC721/extensions/ERC721Enumerable.sol\";\r\nimport \"@openzeppelin/contracts/access/Ownable.sol\";\r\nimport \"./Base64.sol\";\r\n\r\ncontract CarbonFootprint is ERC721Enumerable, Ownable {\r\n  using Strings for uint256;\r\n\r\n  struct Risorsa{\r\n    uint idToken;\r\n    string lotto;\r\n    string nome;\r\n    uint footprint;\r\n  }\r\n\r\n  mapping(string=>Risorsa) getRisorsaByLotto; //mapping del prodotto in base al lotto\r\n  mapping(uint=>Risorsa) getRisorsaByTokenId;\r\n  mapping(uint=>Risorsa) listaRisorse;\r\n  mapping(string => bool) private risorsaUtilizzata;\r\n  mapping(string => bool) private risorsaExists;\r\n\r\n  constructor(\r\n    string memory _name,\r\n    string memory _symbol\r\n  ) ERC721(_name, _symbol) {\r\n  }\r\n\r\n\r\n  // public\r\n  function mint(address _to, string memory _lotto, uint _footprint, string memory _nome) public  {\r\n    require(!risorsaUtilizzata[_lotto]);\r\n    uint256 supply = totalSupply();\r\n    _safeMint(_to, supply+1);\r\n    listaRisorse[supply] = Risorsa({\r\n       idToken: supply+1,\r\n       lotto: _lotto,\r\n       nome: _nome,\r\n       footprint: _footprint\r\n    });\r\n    getRisorsaByTokenId[supply+1] = listaRisorse[supply]; \r\n    getRisorsaByLotto[_lotto] = listaRisorse[supply];\r\n    risorsaExists[_lotto] = true;\r\n    risorsaUtilizzata[_lotto] = false;\r\n  }\r\n\r\n  function setRisorsaUtilizzata(string memory _lotto) public  {\r\n    risorsaUtilizzata[_lotto] = true;\r\n  }\r\n\r\n  function getRisorsaUtilizzata(string memory _lotto) public view returns (bool){\r\n    return risorsaUtilizzata[_lotto];\r\n  }\r\n\r\n  function walletOfOwner(address _owner)\r\n    public\r\n    view\r\n    returns (uint256[] memory)\r\n  {\r\n    uint256 ownerTokenCount = balanceOf(_owner);\r\n    uint256[] memory tokenIds = new uint256[](ownerTokenCount);\r\n    for (uint256 i; i < ownerTokenCount; i++) {\r\n      tokenIds[i] = tokenOfOwnerByIndex(_owner, i);\r\n    }\r\n    return tokenIds;\r\n  }\r\n   \r\n   function compraNft(address payable _fornitore, address payable _produttore, string[] memory lotti) public{\r\n      uint tokenId = 0;\r\n      for(uint i=0;i<lotti.length;i++){\r\n         require(isOwner(_fornitore,lotti[i]));\r\n          tokenId = getRisorsaByLotto[lotti[i]].idToken;\r\n         _transfer(_fornitore, _produttore,tokenId);\r\n      }\r\n    \r\n   }\r\n\r\n   function isOwner(address _account, string memory lotto) public view returns(bool){\r\n      return _isApprovedOrOwner(_account,getRisorsaByLotto[lotto].idToken);\r\n   }\r\n  \r\n   function buildMetadata(uint256 _tokenId) public view returns(string memory) {\r\n      Risorsa memory risorsa = getRisorsaByTokenId[_tokenId];\r\n      return string(abi.encodePacked(\r\n              'data:application/json;base64,', Base64.encode(bytes(abi.encodePacked(\r\n                          '{\"name\":\"', \r\n                          risorsa.nome,\r\n                          '\",\"lotto\":\"', \r\n                          risorsa.lotto,\r\n                          '\",\"footprint\":', \r\n                          uint2str(risorsa.footprint),'}')))));\r\n                          \r\n  }\r\n  \r\n  function existsLotto(string memory _lotto) public view returns (bool){\r\n    return risorsaExists[_lotto];\r\n  }\r\n\r\n  //cerca la materia prima in base al lotto\r\n  function searchMateriaPrimaByLotto(string memory lotto) public view returns(string memory) {\r\n      Risorsa memory risorsa = getRisorsaByLotto[string(abi.encodePacked(\"MP_\",lotto))];\r\n      return buildMetadata(risorsa.idToken);\r\n  }\r\n\r\n  function searchProdottoByLotto(string memory lotto) public view returns(string memory) {\r\n        Risorsa memory risorsa = getRisorsaByLotto[string(abi.encodePacked(\"P_\",lotto))];\r\n        return buildMetadata(risorsa.idToken);\r\n    }\r\n\r\n  function getFootPrintByLotto(string memory lotto) public view returns (uint256){\r\n        return getRisorsaByLotto[lotto].footprint; \r\n   }\r\n\r\n\r\n  function uint2str(uint _i) internal pure returns (string memory _uintAsString) {\r\n        if (_i == 0) {\r\n            return \"0\";\r\n        }\r\n        uint j = _i;\r\n        uint len;\r\n        while (j != 0) {\r\n            len++;\r\n            j /= 10;\r\n        }\r\n        bytes memory bstr = new bytes(len);\r\n        uint k = len;\r\n        while (_i != 0) {\r\n            k = k-1;\r\n            uint8 temp = (48 + uint8(_i - _i / 10 * 10));\r\n            bytes1 b1 = bytes1(temp);\r\n            bstr[k] = b1;\r\n            _i /= 10;\r\n        }\r\n        return string(bstr);\r\n    }\r\n\r\n\r\n}",
  "sourcePath": "C:/Users/sam/Desktop/Progetto/Truffle/contracts/CarbonFootprint.sol",
  "compiler": {
    "name": "solc",
    "version": "0.8.11+commit.d7f03943.Emscripten.clang"
  },
  "schemaVersion": "3.4.1",
  "updatedAt": "2022-02-13T20:10:09.870Z",
  "networkType": "quorum",
  "devdoc": {
    "kind": "dev",
    "methods": {
      "approve(address,uint256)": {
        "details": "See {IERC721-approve}."
      },
      "balanceOf(address)": {
        "details": "See {IERC721-balanceOf}."
      },
      "getApproved(uint256)": {
        "details": "See {IERC721-getApproved}."
      },
      "isApprovedForAll(address,address)": {
        "details": "See {IERC721-isApprovedForAll}."
      },
      "name()": {
        "details": "See {IERC721Metadata-name}."
      },
      "owner()": {
        "details": "Returns the address of the current owner."
      },
      "ownerOf(uint256)": {
        "details": "See {IERC721-ownerOf}."
      },
      "renounceOwnership()": {
        "details": "Leaves the contract without owner. It will not be possible to call `onlyOwner` functions anymore. Can only be called by the current owner. NOTE: Renouncing ownership will leave the contract without an owner, thereby removing any functionality that is only available to the owner."
      },
      "safeTransferFrom(address,address,uint256)": {
        "details": "See {IERC721-safeTransferFrom}."
      },
      "safeTransferFrom(address,address,uint256,bytes)": {
        "details": "See {IERC721-safeTransferFrom}."
      },
      "setApprovalForAll(address,bool)": {
        "details": "See {IERC721-setApprovalForAll}."
      },
      "supportsInterface(bytes4)": {
        "details": "See {IERC165-supportsInterface}."
      },
      "symbol()": {
        "details": "See {IERC721Metadata-symbol}."
      },
      "tokenByIndex(uint256)": {
        "details": "See {IERC721Enumerable-tokenByIndex}."
      },
      "tokenOfOwnerByIndex(address,uint256)": {
        "details": "See {IERC721Enumerable-tokenOfOwnerByIndex}."
      },
      "tokenURI(uint256)": {
        "details": "See {IERC721Metadata-tokenURI}."
      },
      "totalSupply()": {
        "details": "See {IERC721Enumerable-totalSupply}."
      },
      "transferFrom(address,address,uint256)": {
        "details": "See {IERC721-transferFrom}."
      },
      "transferOwnership(address)": {
        "details": "Transfers ownership of the contract to a new account (`newOwner`). Can only be called by the current owner."
      }
    },
    "version": 1
  },
  "userdoc": {
    "kind": "user",
    "methods": {},
    "version": 1
  }
}