{
  "contractName": "ProductFactory",
  "abi": [
    {
      "inputs": [
        {
          "internalType": "address payable",
          "name": "_produttore",
          "type": "address"
        },
        {
          "internalType": "address payable",
          "name": "_fornitore",
          "type": "address"
        },
        {
          "internalType": "address payable",
          "name": "_consumatore",
          "type": "address"
        },
        {
          "internalType": "address payable",
          "name": "_nftContractAddress",
          "type": "address"
        }
      ],
      "stateMutability": "nonpayable",
      "type": "constructor"
    },
    {
      "inputs": [
        {
          "internalType": "string",
          "name": "_lotto",
          "type": "string"
        },
        {
          "internalType": "string",
          "name": "_nomeMateriaPrima",
          "type": "string"
        },
        {
          "internalType": "uint256",
          "name": "footprint",
          "type": "uint256"
        }
      ],
      "name": "inserisciMateriaPrima",
      "outputs": [],
      "stateMutability": "nonpayable",
      "type": "function"
    },
    {
      "inputs": [
        {
          "internalType": "string[]",
          "name": "_lotti",
          "type": "string[]"
        }
      ],
      "name": "compraMateriePrima",
      "outputs": [
        {
          "internalType": "bool",
          "name": "",
          "type": "bool"
        }
      ],
      "stateMutability": "nonpayable",
      "type": "function"
    },
    {
      "inputs": [
        {
          "internalType": "string",
          "name": "_lotto",
          "type": "string"
        },
        {
          "internalType": "string",
          "name": "_nomeProdotto",
          "type": "string"
        },
        {
          "internalType": "string[]",
          "name": "_lotto_materiePrime",
          "type": "string[]"
        },
        {
          "internalType": "string[]",
          "name": "_nomiAttivita",
          "type": "string[]"
        },
        {
          "internalType": "uint256[]",
          "name": "_footprintAttivita",
          "type": "uint256[]"
        }
      ],
      "name": "inserisciProdotto",
      "outputs": [],
      "stateMutability": "nonpayable",
      "type": "function"
    },
    {
      "inputs": [
        {
          "internalType": "string",
          "name": "lotto",
          "type": "string"
        }
      ],
      "name": "searchProdottoByLotto",
      "outputs": [
        {
          "internalType": "string",
          "name": "",
          "type": "string"
        }
      ],
      "stateMutability": "view",
      "type": "function",
      "constant": true
    },
    {
      "inputs": [
        {
          "internalType": "string",
          "name": "lotto",
          "type": "string"
        }
      ],
      "name": "searchMateriaPrimaByLotto",
      "outputs": [
        {
          "internalType": "string",
          "name": "",
          "type": "string"
        }
      ],
      "stateMutability": "view",
      "type": "function",
      "constant": true
    },
    {
      "inputs": [
        {
          "internalType": "address",
          "name": "owner",
          "type": "address"
        }
      ],
      "name": "getWallet",
      "outputs": [
        {
          "internalType": "string[]",
          "name": "",
          "type": "string[]"
        }
      ],
      "stateMutability": "view",
      "type": "function",
      "constant": true
    },
    {
      "inputs": [
        {
          "internalType": "uint256",
          "name": "idToken",
          "type": "uint256"
        }
      ],
      "name": "getNft",
      "outputs": [
        {
          "internalType": "string",
          "name": "",
          "type": "string"
        }
      ],
      "stateMutability": "view",
      "type": "function",
      "constant": true
    }
  ],
  "bytecode": "0x60806040523480156200001157600080fd5b5060405162002294380380620022948339818101604052810190620000379190620001c7565b83600160006101000a81548173ffffffffffffffffffffffffffffffffffffffff021916908373ffffffffffffffffffffffffffffffffffffffff16021790555082600260006101000a81548173ffffffffffffffffffffffffffffffffffffffff021916908373ffffffffffffffffffffffffffffffffffffffff16021790555081600360006101000a81548173ffffffffffffffffffffffffffffffffffffffff021916908373ffffffffffffffffffffffffffffffffffffffff16021790555060006005819055506000600681905550600060078190555080600460006101000a81548173ffffffffffffffffffffffffffffffffffffffff021916908373ffffffffffffffffffffffffffffffffffffffff1602179055505050505062000239565b600080fd5b600073ffffffffffffffffffffffffffffffffffffffff82169050919050565b60006200018f8262000162565b9050919050565b620001a18162000182565b8114620001ad57600080fd5b50565b600081519050620001c18162000196565b92915050565b60008060008060808587031215620001e457620001e36200015d565b5b6000620001f487828801620001b0565b94505060206200020787828801620001b0565b93505060406200021a87828801620001b0565b92505060606200022d87828801620001b0565b91505092959194509250565b61204b80620002496000396000f3fe608060405234801561001057600080fd5b506004361061007d5760003560e01c8063994e42971161005b578063994e4297146100fe578063b695956e1461012e578063bcd5a3751461015e578063e4fbd0201461018e5761007d565b806304d0a6471461008257806341f63bfd146100b2578063925d7795146100e2575b600080fd5b61009c60048036038101906100979190611193565b6101aa565b6040516100a9919061131b565b60405180910390f35b6100cc60048036038101906100c79190611373565b61030f565b6040516100d991906113ea565b60405180910390f35b6100fc60048036038101906100f791906116ea565b6103b9565b005b610118600480360381019061011391906117f1565b610ad7565b6040516101259190611855565b60405180910390f35b61014860048036038101906101439190611870565b610cf0565b60405161015591906113ea565b60405180910390f35b61017860048036038101906101739190611870565b610d9a565b60405161018591906113ea565b60405180910390f35b6101a860048036038101906101a391906118b9565b610e44565b005b60606000600460009054906101000a900473ffffffffffffffffffffffffffffffffffffffff1673ffffffffffffffffffffffffffffffffffffffff1663438b6300846040518263ffffffff1660e01b81526004016102099190611953565b600060405180830381865afa158015610226573d6000803e3d6000fd5b505050506040513d6000823e3d601f19601f8201168201806040525081019061024f9190611a1a565b90506000815167ffffffffffffffff81111561026e5761026d611416565b5b6040519080825280602002602001820160405280156102a157816020015b606081526020019060019003908161028c5790505b50905060005b8251811015610304576102d38382815181106102c6576102c5611a63565b5b602002602001015161030f565b8282815181106102e6576102e5611a63565b5b602002602001018190525080806102fc90611ac1565b9150506102a7565b508092505050919050565b6060600460009054906101000a900473ffffffffffffffffffffffffffffffffffffffff1673ffffffffffffffffffffffffffffffffffffffff1663edf87704836040518263ffffffff1660e01b815260040161036c9190611b19565b600060405180830381865afa158015610389573d6000803e3d6000fd5b505050506040513d6000823e3d601f19601f820116820180604052508101906103b29190611ba4565b9050919050565b600160009054906101000a900473ffffffffffffffffffffffffffffffffffffffff1673ffffffffffffffffffffffffffffffffffffffff163373ffffffffffffffffffffffffffffffffffffffff161461041357600080fd5b6000856040516020016104269190611c75565b6040516020818303038152906040529050600460009054906101000a900473ffffffffffffffffffffffffffffffffffffffff1673ffffffffffffffffffffffffffffffffffffffff1663dc861852826040518263ffffffff1660e01b815260040161049291906113ea565b602060405180830381865afa1580156104af573d6000803e3d6000fd5b505050506040513d601f19601f820116820180604052508101906104d39190611cc3565b156104dd57600080fd5b60005b845181101561075e57600460009054906101000a900473ffffffffffffffffffffffffffffffffffffffff1673ffffffffffffffffffffffffffffffffffffffff1663dc86185286838151811061053a57610539611a63565b5b60200260200101516040518263ffffffff1660e01b815260040161055e91906113ea565b602060405180830381865afa15801561057b573d6000803e3d6000fd5b505050506040513d601f19601f8201168201806040525081019061059f9190611cc3565b6105a857600080fd5b600460009054906101000a900473ffffffffffffffffffffffffffffffffffffffff1673ffffffffffffffffffffffffffffffffffffffff1663cd379964600160009054906101000a900473ffffffffffffffffffffffffffffffffffffffff1687848151811061061c5761061b611a63565b5b60200260200101516040518363ffffffff1660e01b8152600401610641929190611d4f565b602060405180830381865afa15801561065e573d6000803e3d6000fd5b505050506040513d601f19601f820116820180604052508101906106829190611cc3565b61068b57600080fd5b600460009054906101000a900473ffffffffffffffffffffffffffffffffffffffff1673ffffffffffffffffffffffffffffffffffffffff16634f94a5e98683815181106106dc576106db611a63565b5b60200260200101516040518263ffffffff1660e01b815260040161070091906113ea565b602060405180830381865afa15801561071d573d6000803e3d6000fd5b505050506040513d601f19601f820116820180604052508101906107419190611cc3565b1561074b57600080fd5b808061075690611ac1565b9150506104e0565b506000805b845181101561086957604051806060016040528086838151811061078a57610789611a63565b5b602002602001015181526020018583815181106107aa576107a9611a63565b5b6020026020010151815260200184815250600080600754815260200190815260200160002060008201518160000190805190602001906107eb92919061107e565b5060208201518160010155604082015181600201908051906020019061081292919061107e565b509050506007600081548092919061082990611ac1565b919050555083818151811061084157610840611a63565b5b6020026020010151826108549190611d7f565b9150808061086190611ac1565b915050610763565b5060005b85518110156109f357600460009054906101000a900473ffffffffffffffffffffffffffffffffffffffff1673ffffffffffffffffffffffffffffffffffffffff166398d0e3fe8783815181106108c7576108c6611a63565b5b60200260200101516040518263ffffffff1660e01b81526004016108eb91906113ea565b600060405180830381600087803b15801561090557600080fd5b505af1158015610919573d6000803e3d6000fd5b50505050600460009054906101000a900473ffffffffffffffffffffffffffffffffffffffff1673ffffffffffffffffffffffffffffffffffffffff1663eb256cef87838151811061096e5761096d611a63565b5b60200260200101516040518263ffffffff1660e01b815260040161099291906113ea565b602060405180830381865afa1580156109af573d6000803e3d6000fd5b505050506040513d601f19601f820116820180604052508101906109d39190611dd5565b826109de9190611d7f565b915080806109eb90611ac1565b91505061086d565b5060648110610a0157600080fd5b600460009054906101000a900473ffffffffffffffffffffffffffffffffffffffff1673ffffffffffffffffffffffffffffffffffffffff16633dd90430600160009054906101000a900473ffffffffffffffffffffffffffffffffffffffff1684848a6040518563ffffffff1660e01b8152600401610a849493929190611e02565b600060405180830381600087803b158015610a9e57600080fd5b505af1158015610ab2573d6000803e3d6000fd5b5050505060066000815480929190610ac990611ac1565b919050555050505050505050565b6000600160009054906101000a900473ffffffffffffffffffffffffffffffffffffffff1673ffffffffffffffffffffffffffffffffffffffff163373ffffffffffffffffffffffffffffffffffffffff1614610b3357600080fd5b60005b8251811015610c1157600460009054906101000a900473ffffffffffffffffffffffffffffffffffffffff1673ffffffffffffffffffffffffffffffffffffffff1663dc861852848381518110610b9057610b8f611a63565b5b60200260200101516040518263ffffffff1660e01b8152600401610bb491906113ea565b602060405180830381865afa158015610bd1573d6000803e3d6000fd5b505050506040513d601f19601f82011682018060405250810190610bf59190611cc3565b610bfe57600080fd5b8080610c0990611ac1565b915050610b36565b50600460009054906101000a900473ffffffffffffffffffffffffffffffffffffffff1673ffffffffffffffffffffffffffffffffffffffff16634aa5f96b600260009054906101000a900473ffffffffffffffffffffffffffffffffffffffff16600160009054906101000a900473ffffffffffffffffffffffffffffffffffffffff16856040518463ffffffff1660e01b8152600401610cb593929190611e76565b600060405180830381600087803b158015610ccf57600080fd5b505af1158015610ce3573d6000803e3d6000fd5b5050505060019050919050565b6060600460009054906101000a900473ffffffffffffffffffffffffffffffffffffffff1673ffffffffffffffffffffffffffffffffffffffff1663b695956e836040518263ffffffff1660e01b8152600401610d4d91906113ea565b600060405180830381865afa158015610d6a573d6000803e3d6000fd5b505050506040513d6000823e3d601f19601f82011682018060405250810190610d939190611ba4565b9050919050565b6060600460009054906101000a900473ffffffffffffffffffffffffffffffffffffffff1673ffffffffffffffffffffffffffffffffffffffff1663bcd5a375836040518263ffffffff1660e01b8152600401610df791906113ea565b600060405180830381865afa158015610e14573d6000803e3d6000fd5b505050506040513d6000823e3d601f19601f82011682018060405250810190610e3d9190611ba4565b9050919050565b600260009054906101000a900473ffffffffffffffffffffffffffffffffffffffff1673ffffffffffffffffffffffffffffffffffffffff163373ffffffffffffffffffffffffffffffffffffffff1614610e9e57600080fd5b60648110610ee1576040517f08c379a0000000000000000000000000000000000000000000000000000000008152600401610ed890611f26565b60405180910390fd5b600083604051602001610ef49190611f92565b6040516020818303038152906040529050600460009054906101000a900473ffffffffffffffffffffffffffffffffffffffff1673ffffffffffffffffffffffffffffffffffffffff1663dc861852826040518263ffffffff1660e01b8152600401610f6091906113ea565b602060405180830381865afa158015610f7d573d6000803e3d6000fd5b505050506040513d601f19601f82011682018060405250810190610fa19190611cc3565b15610fab57600080fd5b600460009054906101000a900473ffffffffffffffffffffffffffffffffffffffff1673ffffffffffffffffffffffffffffffffffffffff16633dd90430600260009054906101000a900473ffffffffffffffffffffffffffffffffffffffff168385876040518563ffffffff1660e01b815260040161102e9493929190611e02565b600060405180830381600087803b15801561104857600080fd5b505af115801561105c573d6000803e3d6000fd5b505050506005600081548092919061107390611ac1565b919050555050505050565b82805461108a90611fe3565b90600052602060002090601f0160209004810192826110ac57600085556110f3565b82601f106110c557805160ff19168380011785556110f3565b828001600101855582156110f3579182015b828111156110f25782518255916020019190600101906110d7565b5b5090506111009190611104565b5090565b5b8082111561111d576000816000905550600101611105565b5090565b6000604051905090565b600080fd5b600080fd5b600073ffffffffffffffffffffffffffffffffffffffff82169050919050565b600061116082611135565b9050919050565b61117081611155565b811461117b57600080fd5b50565b60008135905061118d81611167565b92915050565b6000602082840312156111a9576111a861112b565b5b60006111b78482850161117e565b91505092915050565b600081519050919050565b600082825260208201905092915050565b6000819050602082019050919050565b600081519050919050565b600082825260208201905092915050565b60005b8381101561122657808201518184015260208101905061120b565b83811115611235576000848401525b50505050565b6000601f19601f8301169050919050565b6000611257826111ec565b61126181856111f7565b9350611271818560208601611208565b61127a8161123b565b840191505092915050565b6000611291838361124c565b905092915050565b6000602082019050919050565b60006112b1826111c0565b6112bb81856111cb565b9350836020820285016112cd856111dc565b8060005b8581101561130957848403895281516112ea8582611285565b94506112f583611299565b925060208a019950506001810190506112d1565b50829750879550505050505092915050565b6000602082019050818103600083015261133581846112a6565b905092915050565b6000819050919050565b6113508161133d565b811461135b57600080fd5b50565b60008135905061136d81611347565b92915050565b6000602082840312156113895761138861112b565b5b60006113978482850161135e565b91505092915050565b600082825260208201905092915050565b60006113bc826111ec565b6113c681856113a0565b93506113d6818560208601611208565b6113df8161123b565b840191505092915050565b6000602082019050818103600083015261140481846113b1565b905092915050565b600080fd5b600080fd5b7f4e487b7100000000000000000000000000000000000000000000000000000000600052604160045260246000fd5b61144e8261123b565b810181811067ffffffffffffffff8211171561146d5761146c611416565b5b80604052505050565b6000611480611121565b905061148c8282611445565b919050565b600067ffffffffffffffff8211156114ac576114ab611416565b5b6114b58261123b565b9050602081019050919050565b82818337600083830152505050565b60006114e46114df84611491565b611476565b905082815260208101848484011115611500576114ff611411565b5b61150b8482856114c2565b509392505050565b600082601f8301126115285761152761140c565b5b81356115388482602086016114d1565b91505092915050565b600067ffffffffffffffff82111561155c5761155b611416565b5b602082029050602081019050919050565b600080fd5b600061158561158084611541565b611476565b905080838252602082019050602084028301858111156115a8576115a761156d565b5b835b818110156115ef57803567ffffffffffffffff8111156115cd576115cc61140c565b5b8086016115da8982611513565b855260208501945050506020810190506115aa565b5050509392505050565b600082601f83011261160e5761160d61140c565b5b813561161e848260208601611572565b91505092915050565b600067ffffffffffffffff82111561164257611641611416565b5b602082029050602081019050919050565b600061166661166184611627565b611476565b905080838252602082019050602084028301858111156116895761168861156d565b5b835b818110156116b2578061169e888261135e565b84526020840193505060208101905061168b565b5050509392505050565b600082601f8301126116d1576116d061140c565b5b81356116e1848260208601611653565b91505092915050565b600080600080600060a086880312156117065761170561112b565b5b600086013567ffffffffffffffff81111561172457611723611130565b5b61173088828901611513565b955050602086013567ffffffffffffffff81111561175157611750611130565b5b61175d88828901611513565b945050604086013567ffffffffffffffff81111561177e5761177d611130565b5b61178a888289016115f9565b935050606086013567ffffffffffffffff8111156117ab576117aa611130565b5b6117b7888289016115f9565b925050608086013567ffffffffffffffff8111156117d8576117d7611130565b5b6117e4888289016116bc565b9150509295509295909350565b6000602082840312156118075761180661112b565b5b600082013567ffffffffffffffff81111561182557611824611130565b5b611831848285016115f9565b91505092915050565b60008115159050919050565b61184f8161183a565b82525050565b600060208201905061186a6000830184611846565b92915050565b6000602082840312156118865761188561112b565b5b600082013567ffffffffffffffff8111156118a4576118a3611130565b5b6118b084828501611513565b91505092915050565b6000806000606084860312156118d2576118d161112b565b5b600084013567ffffffffffffffff8111156118f0576118ef611130565b5b6118fc86828701611513565b935050602084013567ffffffffffffffff81111561191d5761191c611130565b5b61192986828701611513565b925050604061193a8682870161135e565b9150509250925092565b61194d81611155565b82525050565b60006020820190506119686000830184611944565b92915050565b60008151905061197d81611347565b92915050565b600061199661199184611627565b611476565b905080838252602082019050602084028301858111156119b9576119b861156d565b5b835b818110156119e257806119ce888261196e565b8452602084019350506020810190506119bb565b5050509392505050565b600082601f830112611a0157611a0061140c565b5b8151611a11848260208601611983565b91505092915050565b600060208284031215611a3057611a2f61112b565b5b600082015167ffffffffffffffff811115611a4e57611a4d611130565b5b611a5a848285016119ec565b91505092915050565b7f4e487b7100000000000000000000000000000000000000000000000000000000600052603260045260246000fd5b7f4e487b7100000000000000000000000000000000000000000000000000000000600052601160045260246000fd5b6000611acc8261133d565b91507fffffffffffffffffffffffffffffffffffffffffffffffffffffffffffffffff821415611aff57611afe611a92565b5b600182019050919050565b611b138161133d565b82525050565b6000602082019050611b2e6000830184611b0a565b92915050565b6000611b47611b4284611491565b611476565b905082815260208101848484011115611b6357611b62611411565b5b611b6e848285611208565b509392505050565b600082601f830112611b8b57611b8a61140c565b5b8151611b9b848260208601611b34565b91505092915050565b600060208284031215611bba57611bb961112b565b5b600082015167ffffffffffffffff811115611bd857611bd7611130565b5b611be484828501611b76565b91505092915050565b600081905092915050565b7f505f000000000000000000000000000000000000000000000000000000000000600082015250565b6000611c2e600283611bed565b9150611c3982611bf8565b600282019050919050565b6000611c4f826111ec565b611c598185611bed565b9350611c69818560208601611208565b80840191505092915050565b6000611c8082611c21565b9150611c8c8284611c44565b915081905092915050565b611ca08161183a565b8114611cab57600080fd5b50565b600081519050611cbd81611c97565b92915050565b600060208284031215611cd957611cd861112b565b5b6000611ce784828501611cae565b91505092915050565b6000819050919050565b6000611d15611d10611d0b84611135565b611cf0565b611135565b9050919050565b6000611d2782611cfa565b9050919050565b6000611d3982611d1c565b9050919050565b611d4981611d2e565b82525050565b6000604082019050611d646000830185611d40565b8181036020830152611d7681846113b1565b90509392505050565b6000611d8a8261133d565b9150611d958361133d565b9250827fffffffffffffffffffffffffffffffffffffffffffffffffffffffffffffffff03821115611dca57611dc9611a92565b5b828201905092915050565b600060208284031215611deb57611dea61112b565b5b6000611df98482850161196e565b91505092915050565b6000608082019050611e176000830187611d40565b8181036020830152611e2981866113b1565b9050611e386040830185611b0a565b8181036060830152611e4a81846113b1565b905095945050505050565b6000611e6082611135565b9050919050565b611e7081611e55565b82525050565b6000606082019050611e8b6000830186611e67565b611e986020830185611e67565b8181036040830152611eaa81846112a6565b9050949350505050565b7f466f6f747072696e74206e6f6e2072697370657474612069207265717569736960008201527f7469206d696e696d690000000000000000000000000000000000000000000000602082015250565b6000611f106029836113a0565b9150611f1b82611eb4565b604082019050919050565b60006020820190508181036000830152611f3f81611f03565b9050919050565b7f4d505f0000000000000000000000000000000000000000000000000000000000600082015250565b6000611f7c600383611bed565b9150611f8782611f46565b600382019050919050565b6000611f9d82611f6f565b9150611fa98284611c44565b915081905092915050565b7f4e487b7100000000000000000000000000000000000000000000000000000000600052602260045260246000fd5b60006002820490506001821680611ffb57607f821691505b6020821081141561200f5761200e611fb4565b5b5091905056fea26469706673582212208408a5e45ef51a047a23e6e6ef30101fa67c9cce714cc3e0d1c77287346a63cb64736f6c634300080b0033",
  "immutableReferences": {},
  "source": "// SPDX-License-Identifier: GPL-3.0\r\n\r\npragma solidity >=0.7.0 <0.9.0;\r\nimport \"./CarbonFootprint.sol\";\r\n\r\n/**\r\n * @title GestioneProdotti\r\n * @dev SmartContract utilizzato per gestire i prodotti della filiera agroalimentare\r\n */\r\ncontract ProductFactory{\r\n\r\n    struct Attivita{\r\n        string nomeAttivita;\r\n        uint256 footprint;\r\n        string lotto;\r\n    }\r\n\r\n    mapping(uint=>Attivita) listaAttivita;\r\n    \r\n    //indirizzi\r\n    address payable produttore;\r\n    address payable fornitore;\r\n    address payable consumatore;\r\n    address payable nftContractAddress;\r\n\r\n    //contatori\r\n    uint256 counterMateriePrime;\r\n    uint256 counterProdotti;\r\n    uint256 counterAttivita;\r\n\r\n    //INIT\r\n    constructor (address payable _produttore, address payable _fornitore, address payable _consumatore,address payable _nftContractAddress){\r\n        produttore = _produttore;\r\n        fornitore = _fornitore;\r\n        consumatore = _consumatore;\r\n        counterMateriePrime = 0;\r\n        counterProdotti = 0;\r\n        counterAttivita = 0;\r\n        nftContractAddress = _nftContractAddress;\r\n    }\r\n    \r\n    //bisogna anche inserire le attivit\r\n\r\n\r\n    //metodo per inserire la materia prima\r\n    function inserisciMateriaPrima(string memory _lotto, string memory _nomeMateriaPrima, uint256 footprint) public{\r\n        require(msg.sender == fornitore);\r\n        //condizioni di accettazione della materia prima in termini di footprint\r\n        require(footprint<100,\"Footprint non rispetta i requisiti minimi\");        \r\n        \r\n        string memory lotto = string(abi.encodePacked(\"MP_\",_lotto));\r\n        require(! CarbonFootprint(nftContractAddress).existsLotto(lotto)); //nuovo lotto non deve esistere\r\n\r\n        CarbonFootprint(nftContractAddress).mint(fornitore,lotto,footprint,_nomeMateriaPrima);\r\n        counterMateriePrime ++;  //incremento del numero delle materie prime\r\n    }\r\n\r\n    //metodo per comprare le materie prime da parte del produttore\r\n    function compraMateriePrima(string[] memory _lotti) public returns(bool) {\r\n        require(msg.sender == produttore);\r\n        //verifica dell'esistenza dei lotti\r\n        for(uint i=0;i<_lotti.length;i++){\r\n            require(CarbonFootprint(nftContractAddress).existsLotto(_lotti[i]));\r\n        }\r\n        //passaggio di propriet\r\n\r\n        CarbonFootprint(nftContractAddress).compraNft(fornitore,produttore,_lotti);\r\n        return true;\r\n    }\r\n\r\n\r\n    //metodo per inserire il prodotto\r\n    function inserisciProdotto(string memory _lotto, string memory _nomeProdotto, string[] memory _lotto_materiePrime, string[] memory _nomiAttivita, uint[] memory _footprintAttivita) public {\r\n        \r\n        // _nomiAttivita = [\"A\",\"B\",\"C\"]\r\n        // _footprintAttivita = [10, 20, 30]\r\n        \r\n        require(msg.sender == produttore);\r\n        string memory lotto = string(abi.encodePacked(\"P_\",_lotto));\r\n        require(!CarbonFootprint(nftContractAddress).existsLotto(lotto));\r\n\r\n        //controllo dell'esistenza delle materie prime\r\n        for(uint i=0;i< _lotto_materiePrime.length;i++){\r\n            require(CarbonFootprint(nftContractAddress).existsLotto(_lotto_materiePrime[i]));\r\n            require(CarbonFootprint(nftContractAddress).isOwner(produttore,_lotto_materiePrime[i])); //controlla se il produttore pu usare quella risorsa\r\n            require(!(CarbonFootprint(nftContractAddress).getRisorsaUtilizzata(_lotto_materiePrime[i])));\r\n        }\r\n        uint footprint = 0;\r\n\r\n        //salvaAttivita\r\n        for(uint i=0; i<_nomiAttivita.length; i++){\r\n            listaAttivita[counterAttivita] = Attivita({\r\n                nomeAttivita: _nomiAttivita[i],\r\n                footprint: _footprintAttivita[i],\r\n                lotto: lotto\r\n            });\r\n            counterAttivita++;\r\n            footprint = footprint + _footprintAttivita[i];\r\n        }\r\n\r\n        //calcolo del footprint totale\r\n        for(uint i=0;i< _lotto_materiePrime.length;i++){\r\n            CarbonFootprint(nftContractAddress).setRisorsaUtilizzata(_lotto_materiePrime[i]);\r\n            footprint = footprint + CarbonFootprint(nftContractAddress).getFootPrintByLotto(_lotto_materiePrime[i]);\r\n        }\r\n \r\n\r\n        require(footprint<100);\r\n        \r\n        CarbonFootprint(nftContractAddress).mint(produttore,lotto,footprint,_nomeProdotto);\r\n\r\n        counterProdotti ++; //incremento del numero dei prodotti inseriti\r\n    }\r\n\r\n    //cerca il prodotto in base al numero di lotto\r\n    function searchProdottoByLotto(string memory lotto) public view returns (string memory){\r\n        return CarbonFootprint(nftContractAddress).searchProdottoByLotto(lotto);\r\n    }\r\n\r\n    //cerca la materia prima in base al lotto\r\n    function searchMateriaPrimaByLotto(string memory lotto) public view returns (string memory){\r\n        return CarbonFootprint(nftContractAddress).searchMateriaPrimaByLotto(lotto);\r\n    }\r\n\r\n      function getWallet(address owner) public view returns (string[] memory){\r\n        uint[] memory nftTokens = CarbonFootprint(nftContractAddress).walletOfOwner(owner);\r\n        string[] memory nftList = new string[](nftTokens.length);\r\n        for(uint i=0;i< nftTokens.length;i++){\r\n            nftList[i] = getNft(nftTokens[i]);\r\n        }\r\n        return nftList;\r\n    }\r\n\r\n    function getNft(uint idToken) public view returns (string memory){\r\n        return CarbonFootprint(nftContractAddress).buildMetadata(idToken);\r\n    }\r\n\r\n}",
  "sourcePath": "C:/Users/sam/Desktop/Progetto/Truffle/contracts/ProductFactory.sol",
  "compiler": {
    "name": "solc",
    "version": "0.8.11+commit.d7f03943.Emscripten.clang"
  },
  "schemaVersion": "3.4.1",
  "updatedAt": "2022-02-12T11:09:52.033Z",
  "networkType": "quorum",
  "devdoc": {
    "details": "SmartContract utilizzato per gestire i prodotti della filiera agroalimentare",
    "kind": "dev",
    "methods": {},
    "title": "GestioneProdotti",
    "version": 1
  },
  "userdoc": {
    "kind": "user",
    "methods": {},
    "version": 1
  }
}