{
  "contractName": "ProductFactory",
  "abi": [
    {
      "inputs": [
        {
          "internalType": "address payable",
          "name": "_produttore",
          "type": "address"
        },
        {
          "internalType": "address payable",
          "name": "_fornitore",
          "type": "address"
        },
        {
          "internalType": "address payable",
          "name": "_consumatore",
          "type": "address"
        },
        {
          "internalType": "address payable",
          "name": "_nftContractAddress",
          "type": "address"
        }
      ],
      "stateMutability": "nonpayable",
      "type": "constructor"
    },
    {
      "inputs": [
        {
          "internalType": "string",
          "name": "_lotto",
          "type": "string"
        },
        {
          "internalType": "string",
          "name": "_nomeMateriaPrima",
          "type": "string"
        },
        {
          "internalType": "uint256",
          "name": "footprint",
          "type": "uint256"
        }
      ],
      "name": "inserisciMateriaPrima",
      "outputs": [],
      "stateMutability": "nonpayable",
      "type": "function"
    },
    {
      "inputs": [
        {
          "internalType": "string[]",
          "name": "_lotti",
          "type": "string[]"
        }
      ],
      "name": "compraMateriePrima",
      "outputs": [
        {
          "internalType": "bool",
          "name": "",
          "type": "bool"
        }
      ],
      "stateMutability": "nonpayable",
      "type": "function"
    },
    {
      "inputs": [
        {
          "internalType": "string",
          "name": "_lotto",
          "type": "string"
        },
        {
          "internalType": "string",
          "name": "_nomeProdotto",
          "type": "string"
        },
        {
          "internalType": "string[]",
          "name": "_lotto_materiePrime",
          "type": "string[]"
        },
        {
          "internalType": "string[]",
          "name": "_nomiAttivita",
          "type": "string[]"
        },
        {
          "internalType": "uint256[]",
          "name": "_footprintAttivita",
          "type": "uint256[]"
        }
      ],
      "name": "inserisciProdotto",
      "outputs": [],
      "stateMutability": "nonpayable",
      "type": "function"
    },
    {
      "inputs": [
        {
          "internalType": "string",
          "name": "lotto",
          "type": "string"
        }
      ],
      "name": "searchProdottoByLotto",
      "outputs": [
        {
          "internalType": "string",
          "name": "",
          "type": "string"
        }
      ],
      "stateMutability": "view",
      "type": "function",
      "constant": true
    },
    {
      "inputs": [
        {
          "internalType": "string",
          "name": "lotto",
          "type": "string"
        }
      ],
      "name": "searchMateriaPrimaByLotto",
      "outputs": [
        {
          "internalType": "string",
          "name": "",
          "type": "string"
        }
      ],
      "stateMutability": "view",
      "type": "function",
      "constant": true
    },
    {
      "inputs": [
        {
          "internalType": "address",
          "name": "owner",
          "type": "address"
        }
      ],
      "name": "getWallet",
      "outputs": [
        {
          "internalType": "uint256[]",
          "name": "",
          "type": "uint256[]"
        }
      ],
      "stateMutability": "view",
      "type": "function",
      "constant": true
    },
    {
      "inputs": [
        {
          "internalType": "uint256",
          "name": "idToken",
          "type": "uint256"
        }
      ],
      "name": "getNft",
      "outputs": [
        {
          "internalType": "string",
          "name": "",
          "type": "string"
        }
      ],
      "stateMutability": "view",
      "type": "function",
      "constant": true
    }
  ],
  "bytecode": "0x60806040523480156200001157600080fd5b5060405162002130380380620021308339818101604052810190620000379190620001c7565b83600160006101000a81548173ffffffffffffffffffffffffffffffffffffffff021916908373ffffffffffffffffffffffffffffffffffffffff16021790555082600260006101000a81548173ffffffffffffffffffffffffffffffffffffffff021916908373ffffffffffffffffffffffffffffffffffffffff16021790555081600360006101000a81548173ffffffffffffffffffffffffffffffffffffffff021916908373ffffffffffffffffffffffffffffffffffffffff16021790555060006005819055506000600681905550600060078190555080600460006101000a81548173ffffffffffffffffffffffffffffffffffffffff021916908373ffffffffffffffffffffffffffffffffffffffff1602179055505050505062000239565b600080fd5b600073ffffffffffffffffffffffffffffffffffffffff82169050919050565b60006200018f8262000162565b9050919050565b620001a18162000182565b8114620001ad57600080fd5b50565b600081519050620001c18162000196565b92915050565b60008060008060808587031215620001e457620001e36200015d565b5b6000620001f487828801620001b0565b94505060206200020787828801620001b0565b93505060406200021a87828801620001b0565b92505060606200022d87828801620001b0565b91505092959194509250565b611ee780620002496000396000f3fe608060405234801561001057600080fd5b506004361061007d5760003560e01c8063994e42971161005b578063994e4297146100fe578063b695956e1461012e578063bcd5a3751461015e578063e4fbd0201461018e5761007d565b806304d0a6471461008257806341f63bfd146100b2578063925d7795146100e2575b600080fd5b61009c60048036038101906100979190610f71565b6101aa565b6040516100a99190611066565b60405180910390f35b6100cc60048036038101906100c791906110b4565b610254565b6040516100d9919061117a565b60405180910390f35b6100fc60048036038101906100f7919061147a565b6102fe565b005b61011860048036038101906101139190611581565b6108b5565b60405161012591906115e5565b60405180910390f35b61014860048036038101906101439190611600565b610ace565b604051610155919061117a565b60405180910390f35b61017860048036038101906101739190611600565b610b78565b604051610185919061117a565b60405180910390f35b6101a860048036038101906101a39190611649565b610c22565b005b6060600460009054906101000a900473ffffffffffffffffffffffffffffffffffffffff1673ffffffffffffffffffffffffffffffffffffffff1663438b6300836040518263ffffffff1660e01b815260040161020791906116e3565b600060405180830381865afa158015610224573d6000803e3d6000fd5b505050506040513d6000823e3d601f19601f8201168201806040525081019061024d91906117aa565b9050919050565b6060600460009054906101000a900473ffffffffffffffffffffffffffffffffffffffff1673ffffffffffffffffffffffffffffffffffffffff1663edf87704836040518263ffffffff1660e01b81526004016102b19190611802565b600060405180830381865afa1580156102ce573d6000803e3d6000fd5b505050506040513d6000823e3d601f19601f820116820180604052508101906102f7919061188d565b9050919050565b600160009054906101000a900473ffffffffffffffffffffffffffffffffffffffff1673ffffffffffffffffffffffffffffffffffffffff163373ffffffffffffffffffffffffffffffffffffffff161461035857600080fd5b60008560405160200161036b919061195e565b6040516020818303038152906040529050600460009054906101000a900473ffffffffffffffffffffffffffffffffffffffff1673ffffffffffffffffffffffffffffffffffffffff1663dc861852826040518263ffffffff1660e01b81526004016103d7919061117a565b602060405180830381865afa1580156103f4573d6000803e3d6000fd5b505050506040513d601f19601f8201168201806040525081019061041891906119ac565b1561042257600080fd5b60005b84518110156105e357600460009054906101000a900473ffffffffffffffffffffffffffffffffffffffff1673ffffffffffffffffffffffffffffffffffffffff1663dc86185286838151811061047f5761047e6119d9565b5b60200260200101516040518263ffffffff1660e01b81526004016104a3919061117a565b602060405180830381865afa1580156104c0573d6000803e3d6000fd5b505050506040513d601f19601f820116820180604052508101906104e491906119ac565b6104ed57600080fd5b600460009054906101000a900473ffffffffffffffffffffffffffffffffffffffff1673ffffffffffffffffffffffffffffffffffffffff1663cd379964600160009054906101000a900473ffffffffffffffffffffffffffffffffffffffff16878481518110610561576105606119d9565b5b60200260200101516040518363ffffffff1660e01b8152600401610586929190611a67565b602060405180830381865afa1580156105a3573d6000803e3d6000fd5b505050506040513d601f19601f820116820180604052508101906105c791906119ac565b6105d057600080fd5b80806105db90611ac6565b915050610425565b506000805b84518110156106ee57604051806060016040528086838151811061060f5761060e6119d9565b5b6020026020010151815260200185838151811061062f5761062e6119d9565b5b602002602001015181526020018481525060008060075481526020019081526020016000206000820151816000019080519060200190610670929190610e5c565b50602082015181600101556040820151816002019080519060200190610697929190610e5c565b50905050600760008154809291906106ae90611ac6565b91905055508381815181106106c6576106c56119d9565b5b6020026020010151826106d99190611b0f565b915080806106e690611ac6565b9150506105e8565b5060005b85518110156107d157600460009054906101000a900473ffffffffffffffffffffffffffffffffffffffff1673ffffffffffffffffffffffffffffffffffffffff1663eb256cef87838151811061074c5761074b6119d9565b5b60200260200101516040518263ffffffff1660e01b8152600401610770919061117a565b602060405180830381865afa15801561078d573d6000803e3d6000fd5b505050506040513d601f19601f820116820180604052508101906107b19190611b65565b826107bc9190611b0f565b915080806107c990611ac6565b9150506106f2565b50606481106107df57600080fd5b600460009054906101000a900473ffffffffffffffffffffffffffffffffffffffff1673ffffffffffffffffffffffffffffffffffffffff16633dd90430600160009054906101000a900473ffffffffffffffffffffffffffffffffffffffff1684848a6040518563ffffffff1660e01b81526004016108629493929190611b92565b600060405180830381600087803b15801561087c57600080fd5b505af1158015610890573d6000803e3d6000fd5b50505050600660008154809291906108a790611ac6565b919050555050505050505050565b6000600160009054906101000a900473ffffffffffffffffffffffffffffffffffffffff1673ffffffffffffffffffffffffffffffffffffffff163373ffffffffffffffffffffffffffffffffffffffff161461091157600080fd5b60005b82518110156109ef57600460009054906101000a900473ffffffffffffffffffffffffffffffffffffffff1673ffffffffffffffffffffffffffffffffffffffff1663dc86185284838151811061096e5761096d6119d9565b5b60200260200101516040518263ffffffff1660e01b8152600401610992919061117a565b602060405180830381865afa1580156109af573d6000803e3d6000fd5b505050506040513d601f19601f820116820180604052508101906109d391906119ac565b6109dc57600080fd5b80806109e790611ac6565b915050610914565b50600460009054906101000a900473ffffffffffffffffffffffffffffffffffffffff1673ffffffffffffffffffffffffffffffffffffffff16634aa5f96b600260009054906101000a900473ffffffffffffffffffffffffffffffffffffffff16600160009054906101000a900473ffffffffffffffffffffffffffffffffffffffff16856040518463ffffffff1660e01b8152600401610a9393929190611d12565b600060405180830381600087803b158015610aad57600080fd5b505af1158015610ac1573d6000803e3d6000fd5b5050505060019050919050565b6060600460009054906101000a900473ffffffffffffffffffffffffffffffffffffffff1673ffffffffffffffffffffffffffffffffffffffff1663b695956e836040518263ffffffff1660e01b8152600401610b2b919061117a565b600060405180830381865afa158015610b48573d6000803e3d6000fd5b505050506040513d6000823e3d601f19601f82011682018060405250810190610b71919061188d565b9050919050565b6060600460009054906101000a900473ffffffffffffffffffffffffffffffffffffffff1673ffffffffffffffffffffffffffffffffffffffff1663bcd5a375836040518263ffffffff1660e01b8152600401610bd5919061117a565b600060405180830381865afa158015610bf2573d6000803e3d6000fd5b505050506040513d6000823e3d601f19601f82011682018060405250810190610c1b919061188d565b9050919050565b600260009054906101000a900473ffffffffffffffffffffffffffffffffffffffff1673ffffffffffffffffffffffffffffffffffffffff163373ffffffffffffffffffffffffffffffffffffffff1614610c7c57600080fd5b60648110610cbf576040517f08c379a0000000000000000000000000000000000000000000000000000000008152600401610cb690611dc2565b60405180910390fd5b600083604051602001610cd29190611e2e565b6040516020818303038152906040529050600460009054906101000a900473ffffffffffffffffffffffffffffffffffffffff1673ffffffffffffffffffffffffffffffffffffffff1663dc861852826040518263ffffffff1660e01b8152600401610d3e919061117a565b602060405180830381865afa158015610d5b573d6000803e3d6000fd5b505050506040513d601f19601f82011682018060405250810190610d7f91906119ac565b15610d8957600080fd5b600460009054906101000a900473ffffffffffffffffffffffffffffffffffffffff1673ffffffffffffffffffffffffffffffffffffffff16633dd90430600260009054906101000a900473ffffffffffffffffffffffffffffffffffffffff168385876040518563ffffffff1660e01b8152600401610e0c9493929190611b92565b600060405180830381600087803b158015610e2657600080fd5b505af1158015610e3a573d6000803e3d6000fd5b5050505060056000815480929190610e5190611ac6565b919050555050505050565b828054610e6890611e7f565b90600052602060002090601f016020900481019282610e8a5760008555610ed1565b82601f10610ea357805160ff1916838001178555610ed1565b82800160010185558215610ed1579182015b82811115610ed0578251825591602001919060010190610eb5565b5b509050610ede9190610ee2565b5090565b5b80821115610efb576000816000905550600101610ee3565b5090565b6000604051905090565b600080fd5b600080fd5b600073ffffffffffffffffffffffffffffffffffffffff82169050919050565b6000610f3e82610f13565b9050919050565b610f4e81610f33565b8114610f5957600080fd5b50565b600081359050610f6b81610f45565b92915050565b600060208284031215610f8757610f86610f09565b5b6000610f9584828501610f5c565b91505092915050565b600081519050919050565b600082825260208201905092915050565b6000819050602082019050919050565b6000819050919050565b610fdd81610fca565b82525050565b6000610fef8383610fd4565b60208301905092915050565b6000602082019050919050565b600061101382610f9e565b61101d8185610fa9565b935061102883610fba565b8060005b838110156110595781516110408882610fe3565b975061104b83610ffb565b92505060018101905061102c565b5085935050505092915050565b600060208201905081810360008301526110808184611008565b905092915050565b61109181610fca565b811461109c57600080fd5b50565b6000813590506110ae81611088565b92915050565b6000602082840312156110ca576110c9610f09565b5b60006110d88482850161109f565b91505092915050565b600081519050919050565b600082825260208201905092915050565b60005b8381101561111b578082015181840152602081019050611100565b8381111561112a576000848401525b50505050565b6000601f19601f8301169050919050565b600061114c826110e1565b61115681856110ec565b93506111668185602086016110fd565b61116f81611130565b840191505092915050565b600060208201905081810360008301526111948184611141565b905092915050565b600080fd5b600080fd5b7f4e487b7100000000000000000000000000000000000000000000000000000000600052604160045260246000fd5b6111de82611130565b810181811067ffffffffffffffff821117156111fd576111fc6111a6565b5b80604052505050565b6000611210610eff565b905061121c82826111d5565b919050565b600067ffffffffffffffff82111561123c5761123b6111a6565b5b61124582611130565b9050602081019050919050565b82818337600083830152505050565b600061127461126f84611221565b611206565b9050828152602081018484840111156112905761128f6111a1565b5b61129b848285611252565b509392505050565b600082601f8301126112b8576112b761119c565b5b81356112c8848260208601611261565b91505092915050565b600067ffffffffffffffff8211156112ec576112eb6111a6565b5b602082029050602081019050919050565b600080fd5b6000611315611310846112d1565b611206565b90508083825260208201905060208402830185811115611338576113376112fd565b5b835b8181101561137f57803567ffffffffffffffff81111561135d5761135c61119c565b5b80860161136a89826112a3565b8552602085019450505060208101905061133a565b5050509392505050565b600082601f83011261139e5761139d61119c565b5b81356113ae848260208601611302565b91505092915050565b600067ffffffffffffffff8211156113d2576113d16111a6565b5b602082029050602081019050919050565b60006113f66113f1846113b7565b611206565b90508083825260208201905060208402830185811115611419576114186112fd565b5b835b81811015611442578061142e888261109f565b84526020840193505060208101905061141b565b5050509392505050565b600082601f8301126114615761146061119c565b5b81356114718482602086016113e3565b91505092915050565b600080600080600060a0868803121561149657611495610f09565b5b600086013567ffffffffffffffff8111156114b4576114b3610f0e565b5b6114c0888289016112a3565b955050602086013567ffffffffffffffff8111156114e1576114e0610f0e565b5b6114ed888289016112a3565b945050604086013567ffffffffffffffff81111561150e5761150d610f0e565b5b61151a88828901611389565b935050606086013567ffffffffffffffff81111561153b5761153a610f0e565b5b61154788828901611389565b925050608086013567ffffffffffffffff81111561156857611567610f0e565b5b6115748882890161144c565b9150509295509295909350565b60006020828403121561159757611596610f09565b5b600082013567ffffffffffffffff8111156115b5576115b4610f0e565b5b6115c184828501611389565b91505092915050565b60008115159050919050565b6115df816115ca565b82525050565b60006020820190506115fa60008301846115d6565b92915050565b60006020828403121561161657611615610f09565b5b600082013567ffffffffffffffff81111561163457611633610f0e565b5b611640848285016112a3565b91505092915050565b60008060006060848603121561166257611661610f09565b5b600084013567ffffffffffffffff8111156116805761167f610f0e565b5b61168c868287016112a3565b935050602084013567ffffffffffffffff8111156116ad576116ac610f0e565b5b6116b9868287016112a3565b92505060406116ca8682870161109f565b9150509250925092565b6116dd81610f33565b82525050565b60006020820190506116f860008301846116d4565b92915050565b60008151905061170d81611088565b92915050565b6000611726611721846113b7565b611206565b90508083825260208201905060208402830185811115611749576117486112fd565b5b835b81811015611772578061175e88826116fe565b84526020840193505060208101905061174b565b5050509392505050565b600082601f8301126117915761179061119c565b5b81516117a1848260208601611713565b91505092915050565b6000602082840312156117c0576117bf610f09565b5b600082015167ffffffffffffffff8111156117de576117dd610f0e565b5b6117ea8482850161177c565b91505092915050565b6117fc81610fca565b82525050565b600060208201905061181760008301846117f3565b92915050565b600061183061182b84611221565b611206565b90508281526020810184848401111561184c5761184b6111a1565b5b6118578482856110fd565b509392505050565b600082601f8301126118745761187361119c565b5b815161188484826020860161181d565b91505092915050565b6000602082840312156118a3576118a2610f09565b5b600082015167ffffffffffffffff8111156118c1576118c0610f0e565b5b6118cd8482850161185f565b91505092915050565b600081905092915050565b7f505f000000000000000000000000000000000000000000000000000000000000600082015250565b60006119176002836118d6565b9150611922826118e1565b600282019050919050565b6000611938826110e1565b61194281856118d6565b93506119528185602086016110fd565b80840191505092915050565b60006119698261190a565b9150611975828461192d565b915081905092915050565b611989816115ca565b811461199457600080fd5b50565b6000815190506119a681611980565b92915050565b6000602082840312156119c2576119c1610f09565b5b60006119d084828501611997565b91505092915050565b7f4e487b7100000000000000000000000000000000000000000000000000000000600052603260045260246000fd5b6000819050919050565b6000611a2d611a28611a2384610f13565b611a08565b610f13565b9050919050565b6000611a3f82611a12565b9050919050565b6000611a5182611a34565b9050919050565b611a6181611a46565b82525050565b6000604082019050611a7c6000830185611a58565b8181036020830152611a8e8184611141565b90509392505050565b7f4e487b7100000000000000000000000000000000000000000000000000000000600052601160045260246000fd5b6000611ad182610fca565b91507fffffffffffffffffffffffffffffffffffffffffffffffffffffffffffffffff821415611b0457611b03611a97565b5b600182019050919050565b6000611b1a82610fca565b9150611b2583610fca565b9250827fffffffffffffffffffffffffffffffffffffffffffffffffffffffffffffffff03821115611b5a57611b59611a97565b5b828201905092915050565b600060208284031215611b7b57611b7a610f09565b5b6000611b89848285016116fe565b91505092915050565b6000608082019050611ba76000830187611a58565b8181036020830152611bb98186611141565b9050611bc860408301856117f3565b8181036060830152611bda8184611141565b905095945050505050565b6000611bf082610f13565b9050919050565b611c0081611be5565b82525050565b600081519050919050565b600082825260208201905092915050565b6000819050602082019050919050565b600082825260208201905092915050565b6000611c4e826110e1565b611c588185611c32565b9350611c688185602086016110fd565b611c7181611130565b840191505092915050565b6000611c888383611c43565b905092915050565b6000602082019050919050565b6000611ca882611c06565b611cb28185611c11565b935083602082028501611cc485611c22565b8060005b85811015611d005784840389528151611ce18582611c7c565b9450611cec83611c90565b925060208a01995050600181019050611cc8565b50829750879550505050505092915050565b6000606082019050611d276000830186611bf7565b611d346020830185611bf7565b8181036040830152611d468184611c9d565b9050949350505050565b7f466f6f747072696e74206e6f6e2072697370657474612069207265717569736960008201527f7469206d696e696d690000000000000000000000000000000000000000000000602082015250565b6000611dac6029836110ec565b9150611db782611d50565b604082019050919050565b60006020820190508181036000830152611ddb81611d9f565b9050919050565b7f4d505f0000000000000000000000000000000000000000000000000000000000600082015250565b6000611e186003836118d6565b9150611e2382611de2565b600382019050919050565b6000611e3982611e0b565b9150611e45828461192d565b915081905092915050565b7f4e487b7100000000000000000000000000000000000000000000000000000000600052602260045260246000fd5b60006002820490506001821680611e9757607f821691505b60208210811415611eab57611eaa611e50565b5b5091905056fea264697066735822122027e0a6346be6e66af6c998f0a22251375a7547e04cbe49a22b244f895b99d55964736f6c634300080b0033",
  "immutableReferences": {},
  "source": "// SPDX-License-Identifier: GPL-3.0\r\n\r\npragma solidity >=0.7.0 <0.9.0;\r\nimport \"./CarbonFootprint.sol\";\r\n\r\n/**\r\n * @title GestioneProdotti\r\n * @dev SmartContract utilizzato per gestire i prodotti della filiera agroalimentare\r\n */\r\ncontract ProductFactory{\r\n\r\n    struct Attivita{\r\n        string nomeAttivita;\r\n        uint256 footprint;\r\n        string lotto;\r\n    }\r\n\r\n    mapping(uint=>Attivita) listaAttivita;\r\n    \r\n    //indirizzi\r\n    address payable produttore;\r\n    address payable fornitore;\r\n    address payable consumatore;\r\n    address payable nftContractAddress;\r\n\r\n    //contatori\r\n    uint256 counterMateriePrime;\r\n    uint256 counterProdotti;\r\n    uint256 counterAttivita;\r\n\r\n    //INIT\r\n    constructor (address payable _produttore, address payable _fornitore, address payable _consumatore,address payable _nftContractAddress){\r\n        produttore = _produttore;\r\n        fornitore = _fornitore;\r\n        consumatore = _consumatore;\r\n        counterMateriePrime = 0;\r\n        counterProdotti = 0;\r\n        counterAttivita = 0;\r\n        nftContractAddress = _nftContractAddress;\r\n    }\r\n    \r\n    //bisogna anche inserire le attivit\r\n\r\n\r\n    //metodo per inserire la materia prima\r\n    function inserisciMateriaPrima(string memory _lotto, string memory _nomeMateriaPrima, uint256 footprint) public{\r\n        require(msg.sender == fornitore);\r\n        //condizioni di accettazione della materia prima in termini di footprint\r\n        require(footprint<100,\"Footprint non rispetta i requisiti minimi\");        \r\n        \r\n        string memory lotto = string(abi.encodePacked(\"MP_\",_lotto));\r\n        require(! CarbonFootprint(nftContractAddress).existsLotto(lotto)); //nuovo lotto non deve esistere\r\n\r\n        CarbonFootprint(nftContractAddress).mint(fornitore,lotto,footprint,_nomeMateriaPrima);\r\n        counterMateriePrime ++;  //incremento del numero delle materie prime\r\n    }\r\n\r\n    //metodo per comprare le materie prime da parte del produttore\r\n    function compraMateriePrima(string[] memory _lotti) public returns(bool) {\r\n        require(msg.sender == produttore);\r\n        //verifica dell'esistenza dei lotti\r\n        for(uint i=0;i<_lotti.length;i++){\r\n            require(CarbonFootprint(nftContractAddress).existsLotto(_lotti[i]));\r\n        }\r\n        //passaggio di propriet\r\n\r\n        CarbonFootprint(nftContractAddress).compraNft(fornitore,produttore,_lotti);\r\n        return true;\r\n    }\r\n\r\n\r\n    //metodo per inserire il prodotto\r\n    function inserisciProdotto(string memory _lotto, string memory _nomeProdotto, string[] memory _lotto_materiePrime, string[] memory _nomiAttivita, uint[] memory _footprintAttivita) public {\r\n        \r\n        // _nomiAttivita = [\"A\",\"B\",\"C\"]\r\n        // _footprintAttivita = [10, 20, 30]\r\n        \r\n        require(msg.sender == produttore);\r\n        string memory lotto = string(abi.encodePacked(\"P_\",_lotto));\r\n        require(!CarbonFootprint(nftContractAddress).existsLotto(lotto));\r\n\r\n        //controllo dell'esistenza delle materie prime\r\n        for(uint i=0;i< _lotto_materiePrime.length;i++){\r\n            require(CarbonFootprint(nftContractAddress).existsLotto(_lotto_materiePrime[i]));\r\n            require(CarbonFootprint(nftContractAddress).isOwner(produttore,_lotto_materiePrime[i])); //controlla se il produttore pu usare quella risorsa\r\n        }\r\n        uint footprint = 0;\r\n\r\n        //salvaAttivita\r\n        for(uint i=0; i<_nomiAttivita.length; i++){\r\n            listaAttivita[counterAttivita] = Attivita({\r\n                nomeAttivita: _nomiAttivita[i],\r\n                footprint: _footprintAttivita[i],\r\n                lotto: lotto\r\n            });\r\n            counterAttivita++;\r\n            footprint = footprint + _footprintAttivita[i];\r\n        }\r\n\r\n        //calcolo del footprint totale\r\n        for(uint i=0;i< _lotto_materiePrime.length;i++){\r\n            footprint = footprint + CarbonFootprint(nftContractAddress).getFootPrintByLotto(_lotto_materiePrime[i]);\r\n        }\r\n \r\n\r\n        require(footprint<100);\r\n        \r\n        CarbonFootprint(nftContractAddress).mint(produttore,lotto,footprint,_nomeProdotto);\r\n\r\n        counterProdotti ++; //incremento del numero dei prodotti inseriti\r\n    }\r\n\r\n    //cerca il prodotto in base al numero di lotto\r\n    function searchProdottoByLotto(string memory lotto) public view returns (string memory){\r\n        return CarbonFootprint(nftContractAddress).searchProdottoByLotto(lotto);\r\n    }\r\n\r\n    //cerca la materia prima in base al lotto\r\n    function searchMateriaPrimaByLotto(string memory lotto) public view returns (string memory){\r\n        return CarbonFootprint(nftContractAddress).searchMateriaPrimaByLotto(lotto);\r\n    }\r\n\r\n    function getWallet(address owner) public view returns (uint[] memory){\r\n        return CarbonFootprint(nftContractAddress).walletOfOwner(owner);\r\n    }\r\n\r\n    function getNft(uint idToken) public view returns (string memory){\r\n        return CarbonFootprint(nftContractAddress).buildMetadata(idToken);\r\n    }\r\n\r\n}",
  "sourcePath": "C:/Users/sam/Desktop/Progetto/Truffle/contracts/ProductFactory.sol",
  "compiler": {
    "name": "solc",
    "version": "0.8.11+commit.d7f03943.Emscripten.clang"
  },
  "schemaVersion": "3.4.1",
  "updatedAt": "2022-02-10T22:24:00.451Z",
  "networkType": "quorum",
  "devdoc": {
    "details": "SmartContract utilizzato per gestire i prodotti della filiera agroalimentare",
    "kind": "dev",
    "methods": {},
    "title": "GestioneProdotti",
    "version": 1
  },
  "userdoc": {
    "kind": "user",
    "methods": {},
    "version": 1
  }
}