{
  "contractName": "ProductFactory",
  "abi": [
    {
      "inputs": [
        {
          "internalType": "address payable",
          "name": "_produttore",
          "type": "address"
        },
        {
          "internalType": "address payable",
          "name": "_fornitore",
          "type": "address"
        },
        {
          "internalType": "address payable",
          "name": "_consumatore",
          "type": "address"
        },
        {
          "internalType": "address payable",
          "name": "_nftContractAddress",
          "type": "address"
        }
      ],
      "stateMutability": "nonpayable",
      "type": "constructor"
    },
    {
      "inputs": [
        {
          "internalType": "string",
          "name": "_lotto",
          "type": "string"
        },
        {
          "internalType": "string",
          "name": "_nomeMateriaPrima",
          "type": "string"
        },
        {
          "internalType": "uint256",
          "name": "footprint",
          "type": "uint256"
        }
      ],
      "name": "inserisciMateriaPrima",
      "outputs": [],
      "stateMutability": "nonpayable",
      "type": "function"
    },
    {
      "inputs": [
        {
          "internalType": "string",
          "name": "_lotto",
          "type": "string"
        }
      ],
      "name": "compraMateriaPrima",
      "outputs": [
        {
          "internalType": "bool",
          "name": "",
          "type": "bool"
        }
      ],
      "stateMutability": "nonpayable",
      "type": "function"
    },
    {
      "inputs": [
        {
          "internalType": "string",
          "name": "_lotto",
          "type": "string"
        },
        {
          "internalType": "string",
          "name": "_nomeProdotto",
          "type": "string"
        },
        {
          "internalType": "string[]",
          "name": "_lotto_materiePrime",
          "type": "string[]"
        },
        {
          "internalType": "string[]",
          "name": "_nomiAttivita",
          "type": "string[]"
        },
        {
          "internalType": "uint256[]",
          "name": "_footprintAttivita",
          "type": "uint256[]"
        }
      ],
      "name": "inserisciProdotto",
      "outputs": [],
      "stateMutability": "nonpayable",
      "type": "function"
    },
    {
      "inputs": [
        {
          "internalType": "string",
          "name": "lotto",
          "type": "string"
        }
      ],
      "name": "searchProdottoByLotto",
      "outputs": [
        {
          "internalType": "string",
          "name": "",
          "type": "string"
        }
      ],
      "stateMutability": "view",
      "type": "function",
      "constant": true
    },
    {
      "inputs": [
        {
          "internalType": "string",
          "name": "lotto",
          "type": "string"
        }
      ],
      "name": "searchMateriaPrimaByLotto",
      "outputs": [
        {
          "internalType": "string",
          "name": "",
          "type": "string"
        }
      ],
      "stateMutability": "view",
      "type": "function",
      "constant": true
    },
    {
      "inputs": [
        {
          "internalType": "address",
          "name": "owner",
          "type": "address"
        }
      ],
      "name": "getWallet",
      "outputs": [
        {
          "internalType": "string[]",
          "name": "",
          "type": "string[]"
        }
      ],
      "stateMutability": "view",
      "type": "function",
      "constant": true
    },
    {
      "inputs": [
        {
          "internalType": "uint256",
          "name": "idToken",
          "type": "uint256"
        }
      ],
      "name": "getNft",
      "outputs": [
        {
          "internalType": "string",
          "name": "",
          "type": "string"
        }
      ],
      "stateMutability": "view",
      "type": "function",
      "constant": true
    }
  ],
  "bytecode": "0x60806040523480156200001157600080fd5b5060405162002865380380620028658339818101604052810190620000379190620001c7565b83600160006101000a81548173ffffffffffffffffffffffffffffffffffffffff021916908373ffffffffffffffffffffffffffffffffffffffff16021790555082600260006101000a81548173ffffffffffffffffffffffffffffffffffffffff021916908373ffffffffffffffffffffffffffffffffffffffff16021790555081600360006101000a81548173ffffffffffffffffffffffffffffffffffffffff021916908373ffffffffffffffffffffffffffffffffffffffff16021790555060006005819055506000600681905550600060078190555080600460006101000a81548173ffffffffffffffffffffffffffffffffffffffff021916908373ffffffffffffffffffffffffffffffffffffffff1602179055505050505062000239565b600080fd5b600073ffffffffffffffffffffffffffffffffffffffff82169050919050565b60006200018f8262000162565b9050919050565b620001a18162000182565b8114620001ad57600080fd5b50565b600081519050620001c18162000196565b92915050565b60008060008060808587031215620001e457620001e36200015d565b5b6000620001f487828801620001b0565b94505060206200020787828801620001b0565b93505060406200021a87828801620001b0565b92505060606200022d87828801620001b0565b91505092959194509250565b61261c80620002496000396000f3fe608060405234801561001057600080fd5b506004361061007d5760003560e01c8063b695956e1161005b578063b695956e146100fe578063bcd5a3751461012e578063d4cfdf5f1461015e578063e4fbd0201461018e5761007d565b806304d0a6471461008257806341f63bfd146100b2578063925d7795146100e2575b600080fd5b61009c60048036038101906100979190611495565b6101aa565b6040516100a9919061161d565b60405180910390f35b6100cc60048036038101906100c79190611675565b61030f565b6040516100d991906116ec565b60405180910390f35b6100fc60048036038101906100f791906119ec565b6103b9565b005b61011860048036038101906101139190611af3565b610cf5565b60405161012591906116ec565b60405180910390f35b61014860048036038101906101439190611af3565b610d9f565b60405161015591906116ec565b60405180910390f35b61017860048036038101906101739190611af3565b610e49565b6040516101859190611b57565b60405180910390f35b6101a860048036038101906101a39190611b72565b6110b7565b005b60606000600460009054906101000a900473ffffffffffffffffffffffffffffffffffffffff1673ffffffffffffffffffffffffffffffffffffffff1663438b6300846040518263ffffffff1660e01b81526004016102099190611c0c565b600060405180830381865afa158015610226573d6000803e3d6000fd5b505050506040513d6000823e3d601f19601f8201168201806040525081019061024f9190611cd3565b90506000815167ffffffffffffffff81111561026e5761026d611718565b5b6040519080825280602002602001820160405280156102a157816020015b606081526020019060019003908161028c5790505b50905060005b8251811015610304576102d38382815181106102c6576102c5611d1c565b5b602002602001015161030f565b8282815181106102e6576102e5611d1c565b5b602002602001018190525080806102fc90611d7a565b9150506102a7565b508092505050919050565b6060600460009054906101000a900473ffffffffffffffffffffffffffffffffffffffff1673ffffffffffffffffffffffffffffffffffffffff1663edf87704836040518263ffffffff1660e01b815260040161036c9190611dd2565b600060405180830381865afa158015610389573d6000803e3d6000fd5b505050506040513d6000823e3d601f19601f820116820180604052508101906103b29190611e5d565b9050919050565b600160009054906101000a900473ffffffffffffffffffffffffffffffffffffffff1673ffffffffffffffffffffffffffffffffffffffff163373ffffffffffffffffffffffffffffffffffffffff1614610449576040517f08c379a000000000000000000000000000000000000000000000000000000000815260040161044090611ef2565b60405180910390fd5b60008560405160200161045c9190611f9a565b6040516020818303038152906040529050600460009054906101000a900473ffffffffffffffffffffffffffffffffffffffff1673ffffffffffffffffffffffffffffffffffffffff1663dc861852826040518263ffffffff1660e01b81526004016104c891906116ec565b602060405180830381865afa1580156104e5573d6000803e3d6000fd5b505050506040513d601f19601f820116820180604052508101906105099190611fe8565b158160405160200161051b91906120ad565b6040516020818303038152906040529061056b576040517f08c379a000000000000000000000000000000000000000000000000000000000815260040161056291906116ec565b60405180910390fd5b5060005b845181101561094657600460009054906101000a900473ffffffffffffffffffffffffffffffffffffffff1673ffffffffffffffffffffffffffffffffffffffff1663dc8618528683815181106105c9576105c8611d1c565b5b60200260200101516040518263ffffffff1660e01b81526004016105ed91906116ec565b602060405180830381865afa15801561060a573d6000803e3d6000fd5b505050506040513d601f19601f8201168201806040525081019061062e9190611fe8565b85828151811061064157610640611d1c565b5b60200260200101516040516020016106599190612126565b604051602081830303815290604052906106a9576040517f08c379a00000000000000000000000000000000000000000000000000000000081526004016106a091906116ec565b60405180910390fd5b50600460009054906101000a900473ffffffffffffffffffffffffffffffffffffffff1673ffffffffffffffffffffffffffffffffffffffff1663cd379964600160009054906101000a900473ffffffffffffffffffffffffffffffffffffffff1687848151811061071e5761071d611d1c565b5b60200260200101516040518363ffffffff1660e01b81526004016107439291906121b2565b602060405180830381865afa158015610760573d6000803e3d6000fd5b505050506040513d601f19601f820116820180604052508101906107849190611fe8565b85828151811061079757610796611d1c565b5b60200260200101516040516020016107af919061222e565b604051602081830303815290604052906107ff576040517f08c379a00000000000000000000000000000000000000000000000000000000081526004016107f691906116ec565b60405180910390fd5b50600460009054906101000a900473ffffffffffffffffffffffffffffffffffffffff1673ffffffffffffffffffffffffffffffffffffffff16634f94a5e986838151811061085157610850611d1c565b5b60200260200101516040518263ffffffff1660e01b815260040161087591906116ec565b602060405180830381865afa158015610892573d6000803e3d6000fd5b505050506040513d601f19601f820116820180604052508101906108b69190611fe8565b158582815181106108ca576108c9611d1c565b5b60200260200101516040516020016108e2919061229c565b60405160208183030381529060405290610932576040517f08c379a000000000000000000000000000000000000000000000000000000000815260040161092991906116ec565b60405180910390fd5b50808061093e90611d7a565b91505061056f565b506000805b8451811015610a5157604051806060016040528086838151811061097257610971611d1c565b5b6020026020010151815260200185838151811061099257610991611d1c565b5b6020026020010151815260200184815250600080600754815260200190815260200160002060008201518160000190805190602001906109d3929190611380565b506020820151816001015560408201518160020190805190602001906109fa929190611380565b5090505060076000815480929190610a1190611d7a565b9190505550838181518110610a2957610a28611d1c565b5b602002602001015182610a3c91906122be565b91508080610a4990611d7a565b91505061094b565b5060005b8551811015610bdb57600460009054906101000a900473ffffffffffffffffffffffffffffffffffffffff1673ffffffffffffffffffffffffffffffffffffffff166398d0e3fe878381518110610aaf57610aae611d1c565b5b60200260200101516040518263ffffffff1660e01b8152600401610ad391906116ec565b600060405180830381600087803b158015610aed57600080fd5b505af1158015610b01573d6000803e3d6000fd5b50505050600460009054906101000a900473ffffffffffffffffffffffffffffffffffffffff1673ffffffffffffffffffffffffffffffffffffffff1663eb256cef878381518110610b5657610b55611d1c565b5b60200260200101516040518263ffffffff1660e01b8152600401610b7a91906116ec565b602060405180830381865afa158015610b97573d6000803e3d6000fd5b505050506040513d601f19601f82011682018060405250810190610bbb9190612314565b82610bc691906122be565b91508080610bd390611d7a565b915050610a55565b5060648110610c1f576040517f08c379a0000000000000000000000000000000000000000000000000000000008152600401610c16906123b3565b60405180910390fd5b600460009054906101000a900473ffffffffffffffffffffffffffffffffffffffff1673ffffffffffffffffffffffffffffffffffffffff16633dd90430600160009054906101000a900473ffffffffffffffffffffffffffffffffffffffff1684848a6040518563ffffffff1660e01b8152600401610ca294939291906123d3565b600060405180830381600087803b158015610cbc57600080fd5b505af1158015610cd0573d6000803e3d6000fd5b5050505060066000815480929190610ce790611d7a565b919050555050505050505050565b6060600460009054906101000a900473ffffffffffffffffffffffffffffffffffffffff1673ffffffffffffffffffffffffffffffffffffffff1663b695956e836040518263ffffffff1660e01b8152600401610d5291906116ec565b600060405180830381865afa158015610d6f573d6000803e3d6000fd5b505050506040513d6000823e3d601f19601f82011682018060405250810190610d989190611e5d565b9050919050565b6060600460009054906101000a900473ffffffffffffffffffffffffffffffffffffffff1673ffffffffffffffffffffffffffffffffffffffff1663bcd5a375836040518263ffffffff1660e01b8152600401610dfc91906116ec565b600060405180830381865afa158015610e19573d6000803e3d6000fd5b505050506040513d6000823e3d601f19601f82011682018060405250810190610e429190611e5d565b9050919050565b6000600160009054906101000a900473ffffffffffffffffffffffffffffffffffffffff1673ffffffffffffffffffffffffffffffffffffffff163373ffffffffffffffffffffffffffffffffffffffff1614610edb576040517f08c379a0000000000000000000000000000000000000000000000000000000008152600401610ed290611ef2565b60405180910390fd5b600460009054906101000a900473ffffffffffffffffffffffffffffffffffffffff1673ffffffffffffffffffffffffffffffffffffffff1663dc861852836040518263ffffffff1660e01b8152600401610f3691906116ec565b602060405180830381865afa158015610f53573d6000803e3d6000fd5b505050506040513d601f19601f82011682018060405250810190610f779190611fe8565b82604051602001610f889190612126565b60405160208183030381529060405290610fd8576040517f08c379a0000000000000000000000000000000000000000000000000000000008152600401610fcf91906116ec565b60405180910390fd5b50600460009054906101000a900473ffffffffffffffffffffffffffffffffffffffff1673ffffffffffffffffffffffffffffffffffffffff1663fa0313e2600260009054906101000a900473ffffffffffffffffffffffffffffffffffffffff16600160009054906101000a900473ffffffffffffffffffffffffffffffffffffffff16856040518463ffffffff1660e01b815260040161107c93929190612447565b600060405180830381600087803b15801561109657600080fd5b505af11580156110aa573d6000803e3d6000fd5b5050505060019050919050565b600260009054906101000a900473ffffffffffffffffffffffffffffffffffffffff1673ffffffffffffffffffffffffffffffffffffffff163373ffffffffffffffffffffffffffffffffffffffff1614611147576040517f08c379a000000000000000000000000000000000000000000000000000000000815260040161113e90611ef2565b60405180910390fd5b6064811061118a576040517f08c379a0000000000000000000000000000000000000000000000000000000008152600401611181906124f7565b60405180910390fd5b60008360405160200161119d9190612563565b6040516020818303038152906040529050600460009054906101000a900473ffffffffffffffffffffffffffffffffffffffff1673ffffffffffffffffffffffffffffffffffffffff1663dc861852826040518263ffffffff1660e01b815260040161120991906116ec565b602060405180830381865afa158015611226573d6000803e3d6000fd5b505050506040513d601f19601f8201168201806040525081019061124a9190611fe8565b158160405160200161125c91906120ad565b604051602081830303815290604052906112ac576040517f08c379a00000000000000000000000000000000000000000000000000000000081526004016112a391906116ec565b60405180910390fd5b50600460009054906101000a900473ffffffffffffffffffffffffffffffffffffffff1673ffffffffffffffffffffffffffffffffffffffff16633dd90430600260009054906101000a900473ffffffffffffffffffffffffffffffffffffffff168385876040518563ffffffff1660e01b815260040161133094939291906123d3565b600060405180830381600087803b15801561134a57600080fd5b505af115801561135e573d6000803e3d6000fd5b505050506005600081548092919061137590611d7a565b919050555050505050565b82805461138c906125b4565b90600052602060002090601f0160209004810192826113ae57600085556113f5565b82601f106113c757805160ff19168380011785556113f5565b828001600101855582156113f5579182015b828111156113f45782518255916020019190600101906113d9565b5b5090506114029190611406565b5090565b5b8082111561141f576000816000905550600101611407565b5090565b6000604051905090565b600080fd5b600080fd5b600073ffffffffffffffffffffffffffffffffffffffff82169050919050565b600061146282611437565b9050919050565b61147281611457565b811461147d57600080fd5b50565b60008135905061148f81611469565b92915050565b6000602082840312156114ab576114aa61142d565b5b60006114b984828501611480565b91505092915050565b600081519050919050565b600082825260208201905092915050565b6000819050602082019050919050565b600081519050919050565b600082825260208201905092915050565b60005b8381101561152857808201518184015260208101905061150d565b83811115611537576000848401525b50505050565b6000601f19601f8301169050919050565b6000611559826114ee565b61156381856114f9565b935061157381856020860161150a565b61157c8161153d565b840191505092915050565b6000611593838361154e565b905092915050565b6000602082019050919050565b60006115b3826114c2565b6115bd81856114cd565b9350836020820285016115cf856114de565b8060005b8581101561160b57848403895281516115ec8582611587565b94506115f78361159b565b925060208a019950506001810190506115d3565b50829750879550505050505092915050565b6000602082019050818103600083015261163781846115a8565b905092915050565b6000819050919050565b6116528161163f565b811461165d57600080fd5b50565b60008135905061166f81611649565b92915050565b60006020828403121561168b5761168a61142d565b5b600061169984828501611660565b91505092915050565b600082825260208201905092915050565b60006116be826114ee565b6116c881856116a2565b93506116d881856020860161150a565b6116e18161153d565b840191505092915050565b6000602082019050818103600083015261170681846116b3565b905092915050565b600080fd5b600080fd5b7f4e487b7100000000000000000000000000000000000000000000000000000000600052604160045260246000fd5b6117508261153d565b810181811067ffffffffffffffff8211171561176f5761176e611718565b5b80604052505050565b6000611782611423565b905061178e8282611747565b919050565b600067ffffffffffffffff8211156117ae576117ad611718565b5b6117b78261153d565b9050602081019050919050565b82818337600083830152505050565b60006117e66117e184611793565b611778565b90508281526020810184848401111561180257611801611713565b5b61180d8482856117c4565b509392505050565b600082601f83011261182a5761182961170e565b5b813561183a8482602086016117d3565b91505092915050565b600067ffffffffffffffff82111561185e5761185d611718565b5b602082029050602081019050919050565b600080fd5b600061188761188284611843565b611778565b905080838252602082019050602084028301858111156118aa576118a961186f565b5b835b818110156118f157803567ffffffffffffffff8111156118cf576118ce61170e565b5b8086016118dc8982611815565b855260208501945050506020810190506118ac565b5050509392505050565b600082601f8301126119105761190f61170e565b5b8135611920848260208601611874565b91505092915050565b600067ffffffffffffffff82111561194457611943611718565b5b602082029050602081019050919050565b600061196861196384611929565b611778565b9050808382526020820190506020840283018581111561198b5761198a61186f565b5b835b818110156119b457806119a08882611660565b84526020840193505060208101905061198d565b5050509392505050565b600082601f8301126119d3576119d261170e565b5b81356119e3848260208601611955565b91505092915050565b600080600080600060a08688031215611a0857611a0761142d565b5b600086013567ffffffffffffffff811115611a2657611a25611432565b5b611a3288828901611815565b955050602086013567ffffffffffffffff811115611a5357611a52611432565b5b611a5f88828901611815565b945050604086013567ffffffffffffffff811115611a8057611a7f611432565b5b611a8c888289016118fb565b935050606086013567ffffffffffffffff811115611aad57611aac611432565b5b611ab9888289016118fb565b925050608086013567ffffffffffffffff811115611ada57611ad9611432565b5b611ae6888289016119be565b9150509295509295909350565b600060208284031215611b0957611b0861142d565b5b600082013567ffffffffffffffff811115611b2757611b26611432565b5b611b3384828501611815565b91505092915050565b60008115159050919050565b611b5181611b3c565b82525050565b6000602082019050611b6c6000830184611b48565b92915050565b600080600060608486031215611b8b57611b8a61142d565b5b600084013567ffffffffffffffff811115611ba957611ba8611432565b5b611bb586828701611815565b935050602084013567ffffffffffffffff811115611bd657611bd5611432565b5b611be286828701611815565b9250506040611bf386828701611660565b9150509250925092565b611c0681611457565b82525050565b6000602082019050611c216000830184611bfd565b92915050565b600081519050611c3681611649565b92915050565b6000611c4f611c4a84611929565b611778565b90508083825260208201905060208402830185811115611c7257611c7161186f565b5b835b81811015611c9b5780611c878882611c27565b845260208401935050602081019050611c74565b5050509392505050565b600082601f830112611cba57611cb961170e565b5b8151611cca848260208601611c3c565b91505092915050565b600060208284031215611ce957611ce861142d565b5b600082015167ffffffffffffffff811115611d0757611d06611432565b5b611d1384828501611ca5565b91505092915050565b7f4e487b7100000000000000000000000000000000000000000000000000000000600052603260045260246000fd5b7f4e487b7100000000000000000000000000000000000000000000000000000000600052601160045260246000fd5b6000611d858261163f565b91507fffffffffffffffffffffffffffffffffffffffffffffffffffffffffffffffff821415611db857611db7611d4b565b5b600182019050919050565b611dcc8161163f565b82525050565b6000602082019050611de76000830184611dc3565b92915050565b6000611e00611dfb84611793565b611778565b905082815260208101848484011115611e1c57611e1b611713565b5b611e2784828561150a565b509392505050565b600082601f830112611e4457611e4361170e565b5b8151611e54848260208601611ded565b91505092915050565b600060208284031215611e7357611e7261142d565b5b600082015167ffffffffffffffff811115611e9157611e90611432565b5b611e9d84828501611e2f565b91505092915050565b7f4f706572617a696f6e65206e6f6e207065726d65737361000000000000000000600082015250565b6000611edc6017836116a2565b9150611ee782611ea6565b602082019050919050565b60006020820190508181036000830152611f0b81611ecf565b9050919050565b600081905092915050565b7f505f000000000000000000000000000000000000000000000000000000000000600082015250565b6000611f53600283611f12565b9150611f5e82611f1d565b600282019050919050565b6000611f74826114ee565b611f7e8185611f12565b9350611f8e81856020860161150a565b80840191505092915050565b6000611fa582611f46565b9150611fb18284611f69565b915081905092915050565b611fc581611b3c565b8114611fd057600080fd5b50565b600081519050611fe281611fbc565b92915050565b600060208284031215611ffe57611ffd61142d565b5b600061200c84828501611fd3565b91505092915050565b7f496c206c6f74746f200000000000000000000000000000000000000000000000600082015250565b600061204b600983611f12565b915061205682612015565b600982019050919050565b7f2067696127206573697374652100000000000000000000000000000000000000600082015250565b6000612097600d83611f12565b91506120a282612061565b600d82019050919050565b60006120b88261203e565b91506120c48284611f69565b91506120cf8261208a565b915081905092915050565b7f206e6f6e20657369737465000000000000000000000000000000000000000000600082015250565b6000612110600b83611f12565b915061211b826120da565b600b82019050919050565b60006121318261203e565b915061213d8284611f69565b915061214882612103565b915081905092915050565b6000819050919050565b600061217861217361216e84611437565b612153565b611437565b9050919050565b600061218a8261215d565b9050919050565b600061219c8261217f565b9050919050565b6121ac81612191565b82525050565b60006040820190506121c760008301856121a3565b81810360208301526121d981846116b3565b90509392505050565b7f4e6f6e20706f73736965646920696c206c6f74746f2000000000000000000000600082015250565b6000612218601683611f12565b9150612223826121e2565b601682019050919050565b60006122398261220b565b91506122458284611f69565b915081905092915050565b7f4861692067696127207574696c697a7a61746f20696c206c6f74746f20000000600082015250565b6000612286601d83611f12565b915061229182612250565b601d82019050919050565b60006122a782612279565b91506122b38284611f69565b915081905092915050565b60006122c98261163f565b91506122d48361163f565b9250827fffffffffffffffffffffffffffffffffffffffffffffffffffffffffffffffff0382111561230957612308611d4b565b5b828201905092915050565b60006020828403121561232a5761232961142d565b5b600061233884828501611c27565b91505092915050565b7f496c20666f6f747072696e74206e6f6e2072697370657474612069207265717560008201527f6973697469000000000000000000000000000000000000000000000000000000602082015250565b600061239d6025836116a2565b91506123a882612341565b604082019050919050565b600060208201905081810360008301526123cc81612390565b9050919050565b60006080820190506123e860008301876121a3565b81810360208301526123fa81866116b3565b90506124096040830185611dc3565b818103606083015261241b81846116b3565b905095945050505050565b600061243182611437565b9050919050565b61244181612426565b82525050565b600060608201905061245c6000830186612438565b6124696020830185612438565b818103604083015261247b81846116b3565b9050949350505050565b7f466f6f747072696e74206e6f6e2072697370657474612069207265717569736960008201527f7469000000000000000000000000000000000000000000000000000000000000602082015250565b60006124e16022836116a2565b91506124ec82612485565b604082019050919050565b60006020820190508181036000830152612510816124d4565b9050919050565b7f4d505f0000000000000000000000000000000000000000000000000000000000600082015250565b600061254d600383611f12565b915061255882612517565b600382019050919050565b600061256e82612540565b915061257a8284611f69565b915081905092915050565b7f4e487b7100000000000000000000000000000000000000000000000000000000600052602260045260246000fd5b600060028204905060018216806125cc57607f821691505b602082108114156125e0576125df612585565b5b5091905056fea264697066735822122016822274a44096b664e0863ac07fb8add466facefda308f9d12f0a886f857ffd64736f6c634300080b0033",
  "immutableReferences": {},
  "source": "// SPDX-License-Identifier: GPL-3.0\r\n\r\npragma solidity >=0.7.0 <0.9.0;\r\nimport \"./CarbonFootprint.sol\";\r\n\r\n/**\r\n * @title GestioneProdotti\r\n * @dev SmartContract utilizzato per gestire i prodotti della filiera agroalimentare\r\n */\r\ncontract ProductFactory{\r\n\r\n    struct Attivita{\r\n        string nomeAttivita;\r\n        uint256 footprint;\r\n        string lotto;\r\n    }\r\n\r\n    mapping(uint=>Attivita) listaAttivita;\r\n    \r\n    //indirizzi\r\n    address payable produttore;\r\n    address payable fornitore;\r\n    address payable consumatore;\r\n    address payable nftContractAddress;\r\n\r\n    //contatori\r\n    uint256 counterMateriePrime;\r\n    uint256 counterProdotti;\r\n    uint256 counterAttivita;\r\n\r\n    //INIT\r\n    constructor (address payable _produttore, address payable _fornitore, address payable _consumatore,address payable _nftContractAddress){\r\n        produttore = _produttore;\r\n        fornitore = _fornitore;\r\n        consumatore = _consumatore;\r\n        counterMateriePrime = 0;\r\n        counterProdotti = 0;\r\n        counterAttivita = 0;\r\n        nftContractAddress = _nftContractAddress;\r\n    }\r\n    \r\n    //metodo per inserire la materia prima\r\n    function inserisciMateriaPrima(string memory _lotto, string memory _nomeMateriaPrima, uint256 footprint) public{\r\n        require(msg.sender == fornitore,\"Operazione non permessa\");\r\n        //condizioni di accettazione della materia prima in termini di footprint\r\n        require(footprint<100,\"Footprint non rispetta i requisiti\");        \r\n        \r\n        string memory lotto = string(abi.encodePacked(\"MP_\",_lotto));\r\n        require(! CarbonFootprint(nftContractAddress).existsLotto(lotto),string(abi.encodePacked(\"Il lotto \",lotto,\" gia' esiste!\"))); //nuovo lotto non deve esistere\r\n\r\n        CarbonFootprint(nftContractAddress).mint(fornitore,lotto,footprint,_nomeMateriaPrima);\r\n        counterMateriePrime ++;  //incremento del numero delle materie prime\r\n    }\r\n\r\n    //metodo per comprare le materie prime da parte del produttore\r\n    function compraMateriaPrima(string memory _lotto) public returns(bool) {\r\n        require(msg.sender == produttore,\"Operazione non permessa\");\r\n        //verifica dell'esistenza del lotto\r\n        require(CarbonFootprint(nftContractAddress).existsLotto(_lotto),string(abi.encodePacked(\"Il lotto \",_lotto,\" non esiste\")));\r\n        \r\n        //passaggio di propriet\r\n\r\n        CarbonFootprint(nftContractAddress).trasferisciNft(fornitore,produttore,_lotto);\r\n        return true;\r\n    }\r\n\r\n\r\n    //metodo per inserire il prodotto\r\n    function inserisciProdotto(string memory _lotto, string memory _nomeProdotto, string[] memory _lotto_materiePrime, string[] memory _nomiAttivita, uint[] memory _footprintAttivita) public {\r\n        \r\n        // _nomiAttivita = [\"A\",\"B\",\"C\"]\r\n        // _footprintAttivita = [10, 20, 30]\r\n        \r\n        require(msg.sender == produttore,\"Operazione non permessa\");\r\n        string memory lotto = string(abi.encodePacked(\"P_\",_lotto));\r\n        require(!CarbonFootprint(nftContractAddress).existsLotto(lotto),string(abi.encodePacked(\"Il lotto \",lotto,\" gia' esiste!\")));\r\n\r\n        //controllo dell'esistenza delle materie prime\r\n        for(uint i=0;i< _lotto_materiePrime.length;i++){\r\n            require(CarbonFootprint(nftContractAddress).existsLotto(_lotto_materiePrime[i]),string(abi.encodePacked(\"Il lotto \",_lotto_materiePrime[i],\" non esiste\")));\r\n            require(CarbonFootprint(nftContractAddress).isOwner(produttore,_lotto_materiePrime[i]),string(abi.encodePacked(\"Non possiedi il lotto \",_lotto_materiePrime[i]))); //controlla se il produttore pu usare quella risorsa\r\n            require(!(CarbonFootprint(nftContractAddress).getRisorsaUtilizzata(_lotto_materiePrime[i])),string(abi.encodePacked(\"Hai gia' utilizzato il lotto \",_lotto_materiePrime[i])));\r\n        }\r\n        uint footprint = 0;\r\n\r\n        //salvaAttivita\r\n        for(uint i=0; i<_nomiAttivita.length; i++){\r\n            listaAttivita[counterAttivita] = Attivita({\r\n                nomeAttivita: _nomiAttivita[i],\r\n                footprint: _footprintAttivita[i],\r\n                lotto: lotto\r\n            });\r\n            counterAttivita++;\r\n            footprint = footprint + _footprintAttivita[i];\r\n        }\r\n\r\n        //calcolo del footprint totale\r\n        for(uint i=0;i< _lotto_materiePrime.length;i++){\r\n            CarbonFootprint(nftContractAddress).setRisorsaUtilizzata(_lotto_materiePrime[i]);\r\n            footprint = footprint + CarbonFootprint(nftContractAddress).getFootPrintByLotto(_lotto_materiePrime[i]);\r\n        }\r\n \r\n\r\n        require(footprint<100,\"Il footprint non rispetta i requisiti\");\r\n        \r\n        CarbonFootprint(nftContractAddress).mint(produttore,lotto,footprint,_nomeProdotto);\r\n\r\n        counterProdotti ++; //incremento del numero dei prodotti inseriti\r\n    }\r\n\r\n    //cerca il prodotto in base al numero di lotto\r\n    function searchProdottoByLotto(string memory lotto) public view returns (string memory){\r\n        return CarbonFootprint(nftContractAddress).searchProdottoByLotto(lotto);\r\n    }\r\n\r\n    //cerca la materia prima in base al lotto\r\n    function searchMateriaPrimaByLotto(string memory lotto) public view returns (string memory){\r\n        return CarbonFootprint(nftContractAddress).searchMateriaPrimaByLotto(lotto);\r\n    }\r\n\r\n    //ottieni materie prime possedute dall'owner\r\n    function getWallet(address owner) public view returns (string[] memory){\r\n        uint[] memory nftTokens = CarbonFootprint(nftContractAddress).walletOfOwner(owner);\r\n        string[] memory nftList = new string[](nftTokens.length);\r\n        for(uint i=0;i< nftTokens.length;i++){\r\n            nftList[i] = getNft(nftTokens[i]);\r\n        }\r\n        return nftList;\r\n    }\r\n\r\n\r\n    //metodo che permette di ottenere l'nft tramite l'id del token\r\n    function getNft(uint idToken) public view returns (string memory){\r\n        return CarbonFootprint(nftContractAddress).buildMetadata(idToken);\r\n    }\r\n\r\n}",
  "sourcePath": "C:/Users/sam/Desktop/Progetto/Truffle/contracts/ProductFactory.sol",
  "compiler": {
    "name": "solc",
    "version": "0.8.11+commit.d7f03943.Emscripten.clang"
  },
  "schemaVersion": "3.4.1",
  "updatedAt": "2022-02-15T16:54:12.305Z",
  "networkType": "quorum",
  "devdoc": {
    "details": "SmartContract utilizzato per gestire i prodotti della filiera agroalimentare",
    "kind": "dev",
    "methods": {},
    "title": "GestioneProdotti",
    "version": 1
  },
  "userdoc": {
    "kind": "user",
    "methods": {},
    "version": 1
  }
}